{"contracts/AzukiTrans.sol":{"AzukiTrans":{"abi":[{"inputs":[{"internalType":"uint256","name":"_totalSupply","type":"uint256"},{"internalType":"uint256","name":"_mintPrice","type":"uint256"},{"internalType":"uint256","name":"_mintStart","type":"uint256"},{"internalType":"uint256","name":"_presale","type":"uint256"},{"internalType":"uint256","name":"_publicsale","type":"uint256"}],"stateMutability":"nonpayable","type":"constructor"},{"anonymous":false,"inputs":[{"indexed":true,"internalType":"address","name":"owner","type":"address"},{"indexed":true,"internalType":"address","name":"approved","type":"address"},{"indexed":true,"internalType":"uint256","name":"tokenId","type":"uint256"}],"name":"Approval","type":"event"},{"anonymous":false,"inputs":[{"indexed":true,"internalType":"address","name":"owner","type":"address"},{"indexed":true,"internalType":"address","name":"operator","type":"address"},{"indexed":false,"internalType":"bool","name":"approved","type":"bool"}],"name":"ApprovalForAll","type":"event"},{"anonymous":false,"inputs":[{"indexed":true,"internalType":"bytes32","name":"role","type":"bytes32"},{"indexed":true,"internalType":"bytes32","name":"previousAdminRole","type":"bytes32"},{"indexed":true,"internalType":"bytes32","name":"newAdminRole","type":"bytes32"}],"name":"RoleAdminChanged","type":"event"},{"anonymous":false,"inputs":[{"indexed":true,"internalType":"bytes32","name":"role","type":"bytes32"},{"indexed":true,"internalType":"address","name":"account","type":"address"},{"indexed":true,"internalType":"address","name":"sender","type":"address"}],"name":"RoleGranted","type":"event"},{"anonymous":false,"inputs":[{"indexed":true,"internalType":"bytes32","name":"role","type":"bytes32"},{"indexed":true,"internalType":"address","name":"account","type":"address"},{"indexed":true,"internalType":"address","name":"sender","type":"address"}],"name":"RoleRevoked","type":"event"},{"anonymous":false,"inputs":[{"indexed":true,"internalType":"address","name":"from","type":"address"},{"indexed":true,"internalType":"address","name":"to","type":"address"},{"indexed":true,"internalType":"uint256","name":"tokenId","type":"uint256"}],"name":"Transfer","type":"event"},{"inputs":[],"name":"DEFAULT_ADMIN_ROLE","outputs":[{"internalType":"bytes32","name":"","type":"bytes32"}],"stateMutability":"view","type":"function"},{"inputs":[],"name":"MINTER_ROLE","outputs":[{"internalType":"bytes32","name":"","type":"bytes32"}],"stateMutability":"view","type":"function"},{"inputs":[{"internalType":"address","name":"to","type":"address"},{"internalType":"uint256","name":"tokenId","type":"uint256"}],"name":"approve","outputs":[],"stateMutability":"nonpayable","type":"function"},{"inputs":[{"internalType":"address","name":"owner","type":"address"}],"name":"balanceOf","outputs":[{"internalType":"uint256","name":"","type":"uint256"}],"stateMutability":"view","type":"function"},{"inputs":[],"name":"burn","outputs":[],"stateMutability":"nonpayable","type":"function"},{"inputs":[],"name":"burnAll","outputs":[],"stateMutability":"nonpayable","type":"function"},{"inputs":[{"internalType":"uint256","name":"tokenId","type":"uint256"}],"name":"getApproved","outputs":[{"internalType":"address","name":"","type":"address"}],"stateMutability":"view","type":"function"},{"inputs":[{"internalType":"bytes32","name":"role","type":"bytes32"}],"name":"getRoleAdmin","outputs":[{"internalType":"bytes32","name":"","type":"bytes32"}],"stateMutability":"view","type":"function"},{"inputs":[{"internalType":"address","name":"account","type":"address"}],"name":"grantMintRole","outputs":[],"stateMutability":"nonpayable","type":"function"},{"inputs":[{"internalType":"bytes32","name":"role","type":"bytes32"},{"internalType":"address","name":"account","type":"address"}],"name":"grantRole","outputs":[],"stateMutability":"nonpayable","type":"function"},{"inputs":[{"internalType":"bytes32","name":"role","type":"bytes32"},{"internalType":"address","name":"account","type":"address"}],"name":"hasRole","outputs":[{"internalType":"bool","name":"","type":"bool"}],"stateMutability":"view","type":"function"},{"inputs":[{"internalType":"address","name":"owner","type":"address"},{"internalType":"address","name":"operator","type":"address"}],"name":"isApprovedForAll","outputs":[{"internalType":"bool","name":"","type":"bool"}],"stateMutability":"view","type":"function"},{"inputs":[],"name":"mint","outputs":[{"internalType":"uint256","name":"priceGWei","type":"uint256"},{"components":[{"internalType":"uint256","name":"start","type":"uint256"},{"internalType":"uint256","name":"publicSale","type":"uint256"},{"internalType":"uint256","name":"end","type":"uint256"}],"internalType":"struct AzukiTrans.MintTime","name":"time","type":"tuple"},{"internalType":"uint256","name":"total","type":"uint256"}],"stateMutability":"view","type":"function"},{"inputs":[],"name":"name","outputs":[{"internalType":"string","name":"","type":"string"}],"stateMutability":"view","type":"function"},{"inputs":[{"internalType":"uint256","name":"tokenId","type":"uint256"}],"name":"ownerOf","outputs":[{"internalType":"address","name":"","type":"address"}],"stateMutability":"view","type":"function"},{"inputs":[{"internalType":"bytes32","name":"role","type":"bytes32"},{"internalType":"address","name":"account","type":"address"}],"name":"renounceRole","outputs":[],"stateMutability":"nonpayable","type":"function"},{"inputs":[{"internalType":"uint256","name":"_mintStart","type":"uint256"},{"internalType":"uint256","name":"_presale","type":"uint256"},{"internalType":"uint256","name":"_publicsale","type":"uint256"}],"name":"resetMint","outputs":[],"stateMutability":"nonpayable","type":"function"},{"inputs":[{"internalType":"address","name":"account","type":"address"}],"name":"revokeMintRole","outputs":[],"stateMutability":"nonpayable","type":"function"},{"inputs":[{"internalType":"bytes32","name":"role","type":"bytes32"},{"internalType":"address","name":"account","type":"address"}],"name":"revokeRole","outputs":[],"stateMutability":"nonpayable","type":"function"},{"inputs":[],"name":"safeMint","outputs":[],"stateMutability":"payable","type":"function"},{"inputs":[{"internalType":"address","name":"from","type":"address"},{"internalType":"address","name":"to","type":"address"},{"internalType":"uint256","name":"tokenId","type":"uint256"}],"name":"safeTransferFrom","outputs":[],"stateMutability":"nonpayable","type":"function"},{"inputs":[{"internalType":"address","name":"from","type":"address"},{"internalType":"address","name":"to","type":"address"},{"internalType":"uint256","name":"tokenId","type":"uint256"},{"internalType":"bytes","name":"data","type":"bytes"}],"name":"safeTransferFrom","outputs":[],"stateMutability":"nonpayable","type":"function"},{"inputs":[{"internalType":"address","name":"operator","type":"address"},{"internalType":"bool","name":"approved","type":"bool"}],"name":"setApprovalForAll","outputs":[],"stateMutability":"nonpayable","type":"function"},{"inputs":[{"internalType":"bytes4","name":"interfaceId","type":"bytes4"}],"name":"supportsInterface","outputs":[{"internalType":"bool","name":"","type":"bool"}],"stateMutability":"view","type":"function"},{"inputs":[],"name":"symbol","outputs":[{"internalType":"string","name":"","type":"string"}],"stateMutability":"view","type":"function"},{"inputs":[{"internalType":"uint256","name":"tokenId","type":"uint256"}],"name":"tokenURI","outputs":[{"internalType":"string","name":"","type":"string"}],"stateMutability":"view","type":"function"},{"inputs":[],"name":"totalSupply","outputs":[{"internalType":"uint256","name":"","type":"uint256"}],"stateMutability":"view","type":"function"},{"inputs":[{"internalType":"address","name":"from","type":"address"},{"internalType":"address","name":"to","type":"address"},{"internalType":"uint256","name":"tokenId","type":"uint256"}],"name":"transferFrom","outputs":[],"stateMutability":"nonpayable","type":"function"}],"evm":{"bytecode":{"linkReferences":{},"object":"60806040523480156200001157600080fd5b506040516200574c3803806200574c833981810160405281019062000037919062000967565b6040518060400160405280600781526020017f4d79546f6b656e000000000000000000000000000000000000000000000000008152506040518060400160405280600381526020017f4d544b00000000000000000000000000000000000000000000000000000000008152508160009081620000b4919062000c5f565b508060019081620000c6919062000c5f565b505050620000de6000801b336200013060201b60201c565b620001107f9f2df0fed2c77648de5860a4cc508cd0818c85b8b8a1ab4ceeef8d981c8956a6336200013060201b60201c565b6200012585858585856200022260201b60201c565b5050505050620014f0565b6200014282826200041c60201b60201c565b6200021e5760016006600084815260200190815260200160002060000160008373ffffffffffffffffffffffffffffffffffffffff1673ffffffffffffffffffffffffffffffffffffffff16815260200190815260200160002060006101000a81548160ff021916908315150217905550620001c36200048760201b60201c565b73ffffffffffffffffffffffffffffffffffffffff168173ffffffffffffffffffffffffffffffffffffffff16837f2f8788117e7eff1d82e926ec794901d17c78024a50270940304540a733656f0d60405160405180910390a45b5050565b6000801b62000237816200048f60201b60201c565b600086116200027d576040517f08c379a0000000000000000000000000000000000000000000000000000000008152600401620002749062000dcd565b60405180910390fd5b60008511620002c3576040517f08c379a0000000000000000000000000000000000000000000000000000000008152600401620002ba9062000e65565b60405180910390fd5b42841162000308576040517f08c379a0000000000000000000000000000000000000000000000000000000008152600401620002ff9062000efd565b60405180910390fd5b600083116200034e576040517f08c379a0000000000000000000000000000000000000000000000000000000008152600401620003459062000f95565b60405180910390fd5b6000821162000394576040517f08c379a00000000000000000000000000000000000000000000000000000000081526004016200038b906200102d565b60405180910390fd5b85600781905550633b9aca0085620003ad91906200107e565b600860000181905550836008600101600001819055508284620003d19190620010c9565b600860010160010181905550818385620003ec9190620010c9565b620003f89190620010c9565b60086001016002018190555062000414620004b360201b60201c565b505050505050565b60006006600084815260200190815260200160002060000160008373ffffffffffffffffffffffffffffffffffffffff1673ffffffffffffffffffffffffffffffffffffffff16815260200190815260200160002060009054906101000a900460ff16905092915050565b600033905090565b620004b081620004a46200048760201b60201c565b620005eb60201b60201c565b50565b6000801b620004c8816200048f60201b60201c565b60005b600754811015620005045780600d6000838152602001908152602001600020819055508080620004fb9062001104565b915050620004cb565b506000600754905060005b81811015620005e6576000818362000528919062001151565b4244846040516020016200053f93929190620011b1565b6040516020818303038152906040528051906020012060001c62000564919062001223565b82620005719190620010c9565b90506000600d6000838152602001908152602001600020549050600d600084815260200190815260200160002054600d60008481526020019081526020016000208190555080600d60008581526020019081526020016000208190555050508080620005dd9062001104565b9150506200050f565b505050565b620005fd82826200041c60201b60201c565b620006935762000618816200069760201b620011501760201c565b620006338360001c6020620006cc60201b6200117d1760201c565b6040516020016200064692919062001369565b6040516020818303038152906040526040517f08c379a00000000000000000000000000000000000000000000000000000000081526004016200068a9190620013fd565b60405180910390fd5b5050565b6060620006c58273ffffffffffffffffffffffffffffffffffffffff16601460ff16620006cc60201b60201c565b9050919050565b606060006002836002620006e191906200107e565b620006ed9190620010c9565b67ffffffffffffffff811115620007095762000708620009fa565b5b6040519080825280601f01601f1916602001820160405280156200073c5781602001600182028036833780820191505090505b5090507f30000000000000000000000000000000000000000000000000000000000000008160008151811062000777576200077662001421565b5b60200101907effffffffffffffffffffffffffffffffffffffffffffffffffffffffffffff1916908160001a9053507f780000000000000000000000000000000000000000000000000000000000000081600181518110620007de57620007dd62001421565b5b60200101907effffffffffffffffffffffffffffffffffffffffffffffffffffffffffffff1916908160001a905350600060018460026200082091906200107e565b6200082c9190620010c9565b90505b6001811115620008d6577f3031323334353637383961626364656600000000000000000000000000000000600f86166010811062000872576200087162001421565b5b1a60f81b8282815181106200088c576200088b62001421565b5b60200101907effffffffffffffffffffffffffffffffffffffffffffffffffffffffffffff1916908160001a905350600485901c945080620008ce9062001450565b90506200082f565b50600084146200091d576040517f08c379a00000000000000000000000000000000000000000000000000000000081526004016200091490620014ce565b60405180910390fd5b8091505092915050565b600080fd5b6000819050919050565b62000941816200092c565b81146200094d57600080fd5b50565b600081519050620009618162000936565b92915050565b600080600080600060a0868803121562000986576200098562000927565b5b6000620009968882890162000950565b9550506020620009a98882890162000950565b9450506040620009bc8882890162000950565b9350506060620009cf8882890162000950565b9250506080620009e28882890162000950565b9150509295509295909350565b600081519050919050565b7f4e487b7100000000000000000000000000000000000000000000000000000000600052604160045260246000fd5b7f4e487b7100000000000000000000000000000000000000000000000000000000600052602260045260246000fd5b6000600282049050600182168062000a7157607f821691505b60208210810362000a875762000a8662000a29565b5b50919050565b60008190508160005260206000209050919050565b60006020601f8301049050919050565b600082821b905092915050565b60006008830262000af17fffffffffffffffffffffffffffffffffffffffffffffffffffffffffffffffff8262000ab2565b62000afd868362000ab2565b95508019841693508086168417925050509392505050565b6000819050919050565b600062000b4062000b3a62000b34846200092c565b62000b15565b6200092c565b9050919050565b6000819050919050565b62000b5c8362000b1f565b62000b7462000b6b8262000b47565b84845462000abf565b825550505050565b600090565b62000b8b62000b7c565b62000b9881848462000b51565b505050565b5b8181101562000bc05762000bb460008262000b81565b60018101905062000b9e565b5050565b601f82111562000c0f5762000bd98162000a8d565b62000be48462000aa2565b8101602085101562000bf4578190505b62000c0c62000c038562000aa2565b83018262000b9d565b50505b505050565b600082821c905092915050565b600062000c346000198460080262000c14565b1980831691505092915050565b600062000c4f838362000c21565b9150826002028217905092915050565b62000c6a82620009ef565b67ffffffffffffffff81111562000c865762000c85620009fa565b5b62000c92825462000a58565b62000c9f82828562000bc4565b600060209050601f83116001811462000cd7576000841562000cc2578287015190505b62000cce858262000c41565b86555062000d3e565b601f19841662000ce78662000a8d565b60005b8281101562000d115784890151825560018201915060208501945060208101905062000cea565b8683101562000d31578489015162000d2d601f89168262000c21565b8355505b6001600288020188555050505b505050505050565b600082825260208201905092915050565b7f746f74616c20737570706c79206d75737420626520677265617465722074686160008201527f6e207a65726f7300000000000000000000000000000000000000000000000000602082015250565b600062000db560278362000d46565b915062000dc28262000d57565b604082019050919050565b6000602082019050818103600083015262000de88162000da6565b9050919050565b7f6d696e74207072696365206d7573742062652067726561746572207468616e2060008201527f7a65726f00000000000000000000000000000000000000000000000000000000602082015250565b600062000e4d60248362000d46565b915062000e5a8262000def565b604082019050919050565b6000602082019050818103600083015262000e808162000e3e565b9050919050565b7f6d696e742073746172742074696d65206d75737420626520677265617465722060008201527f7468616e2063757272656e742074696d65000000000000000000000000000000602082015250565b600062000ee560318362000d46565b915062000ef28262000e87565b604082019050919050565b6000602082019050818103600083015262000f188162000ed6565b9050919050565b7f70726573616c65206d7573742062652067726561746572207468616e207a657260008201527f6f00000000000000000000000000000000000000000000000000000000000000602082015250565b600062000f7d60218362000d46565b915062000f8a8262000f1f565b604082019050919050565b6000602082019050818103600083015262000fb08162000f6e565b9050919050565b7f7075626c696373616c65206d7573742062652067726561746572207468616e2060008201527f7a65726f00000000000000000000000000000000000000000000000000000000602082015250565b60006200101560248362000d46565b9150620010228262000fb7565b604082019050919050565b60006020820190508181036000830152620010488162001006565b9050919050565b7f4e487b7100000000000000000000000000000000000000000000000000000000600052601160045260246000fd5b60006200108b826200092c565b915062001098836200092c565b9250828202620010a8816200092c565b91508282048414831517620010c257620010c16200104f565b5b5092915050565b6000620010d6826200092c565b9150620010e3836200092c565b9250828201905080821115620010fe57620010fd6200104f565b5b92915050565b600062001111826200092c565b91507fffffffffffffffffffffffffffffffffffffffffffffffffffffffffffffffff82036200114657620011456200104f565b5b600182019050919050565b60006200115e826200092c565b91506200116b836200092c565b92508282039050818111156200118657620011856200104f565b5b92915050565b6000819050919050565b620011ab620011a5826200092c565b6200118c565b82525050565b6000620011bf828662001196565b602082019150620011d1828562001196565b602082019150620011e3828462001196565b602082019150819050949350505050565b7f4e487b7100000000000000000000000000000000000000000000000000000000600052601260045260246000fd5b600062001230826200092c565b91506200123d836200092c565b92508262001250576200124f620011f4565b5b828206905092915050565b600081905092915050565b7f416363657373436f6e74726f6c3a206163636f756e7420000000000000000000600082015250565b60006200129e6017836200125b565b9150620012ab8262001266565b601782019050919050565b60005b83811015620012d6578082015181840152602081019050620012b9565b60008484015250505050565b6000620012ef82620009ef565b620012fb81856200125b565b93506200130d818560208601620012b6565b80840191505092915050565b7f206973206d697373696e6720726f6c6520000000000000000000000000000000600082015250565b6000620013516011836200125b565b91506200135e8262001319565b601182019050919050565b600062001376826200128f565b9150620013848285620012e2565b9150620013918262001342565b91506200139f8284620012e2565b91508190509392505050565b6000601f19601f8301169050919050565b6000620013c982620009ef565b620013d5818562000d46565b9350620013e7818560208601620012b6565b620013f281620013ab565b840191505092915050565b60006020820190508181036000830152620014198184620013bc565b905092915050565b7f4e487b7100000000000000000000000000000000000000000000000000000000600052603260045260246000fd5b60006200145d826200092c565b9150600082036200147357620014726200104f565b5b600182039050919050565b7f537472696e67733a20686578206c656e67746820696e73756666696369656e74600082015250565b6000620014b660208362000d46565b9150620014c3826200147e565b602082019050919050565b60006020820190508181036000830152620014e981620014a7565b9050919050565b61424c80620015006000396000f3fe6080604052600436106101b75760003560e01c80636871ee40116100ec578063b88d4fde1161008a578063d539139311610064578063d5391393146105e9578063d547741f14610614578063e985e9c51461063d578063f81094f31461067a576101b7565b8063b88d4fde1461055a578063c2e3273d14610583578063c87b56dd146105ac576101b7565b806395d89b41116100c657806395d89b41146104c45780639975038c146104ef578063a217fddf14610506578063a22cb46514610531576101b7565b80636871ee401461044057806370a082311461044a57806391d1485414610487576101b7565b806323b872dd1161015957806336568abe1161013357806336568abe1461039a57806342842e0e146103c357806344df8e70146103ec5780636352211e14610403576101b7565b806323b872dd1461030b578063248a9ca3146103345780632f2ff15d14610371576101b7565b8063095ea7b311610195578063095ea7b3146102615780630ff95bc51461028a5780631249c58b146102b357806318160ddd146102e0576101b7565b806301ffc9a7146101bc57806306fdde03146101f9578063081812fc14610224575b600080fd5b3480156101c857600080fd5b506101e360048036038101906101de9190612a68565b6106a3565b6040516101f09190612ab0565b60405180910390f35b34801561020557600080fd5b5061020e6106b5565b60405161021b9190612b5b565b60405180910390f35b34801561023057600080fd5b5061024b60048036038101906102469190612bb3565b610747565b6040516102589190612c21565b60405180910390f35b34801561026d57600080fd5b5061028860048036038101906102839190612c68565b61078d565b005b34801561029657600080fd5b506102b160048036038101906102ac9190612ca8565b6108a4565b005b3480156102bf57600080fd5b506102c86108d3565b6040516102d793929190612d5b565b60405180910390f35b3480156102ec57600080fd5b506102f5610913565b6040516103029190612d92565b60405180910390f35b34801561031757600080fd5b50610332600480360381019061032d9190612dad565b610919565b005b34801561034057600080fd5b5061035b60048036038101906103569190612e36565b610979565b6040516103689190612e72565b60405180910390f35b34801561037d57600080fd5b5061039860048036038101906103939190612e8d565b610999565b005b3480156103a657600080fd5b506103c160048036038101906103bc9190612e8d565b6109ba565b005b3480156103cf57600080fd5b506103ea60048036038101906103e59190612dad565b610a3d565b005b3480156103f857600080fd5b50610401610a5d565b005b34801561040f57600080fd5b5061042a60048036038101906104259190612bb3565b610af1565b6040516104379190612c21565b60405180910390f35b610448610b77565b005b34801561045657600080fd5b50610471600480360381019061046c9190612ecd565b610cf8565b60405161047e9190612d92565b60405180910390f35b34801561049357600080fd5b506104ae60048036038101906104a99190612e8d565b610daf565b6040516104bb9190612ab0565b60405180910390f35b3480156104d057600080fd5b506104d9610e1a565b6040516104e69190612b5b565b60405180910390f35b3480156104fb57600080fd5b50610504610eac565b005b34801561051257600080fd5b5061051b610f36565b6040516105289190612e72565b60405180910390f35b34801561053d57600080fd5b5061055860048036038101906105539190612f26565b610f3d565b005b34801561056657600080fd5b50610581600480360381019061057c919061309b565b610f53565b005b34801561058f57600080fd5b506105aa60048036038101906105a59190612ecd565b610fb5565b005b3480156105b857600080fd5b506105d360048036038101906105ce9190612bb3565b610fe2565b6040516105e09190612b5b565b60405180910390f35b3480156105f557600080fd5b506105fe61104a565b60405161060b9190612e72565b60405180910390f35b34801561062057600080fd5b5061063b60048036038101906106369190612e8d565b61106e565b005b34801561064957600080fd5b50610664600480360381019061065f919061311e565b61108f565b6040516106719190612ab0565b60405180910390f35b34801561068657600080fd5b506106a1600480360381019061069c9190612ecd565b611123565b005b60006106ae826113b9565b9050919050565b6060600080546106c49061318d565b80601f01602080910402602001604051908101604052809291908181526020018280546106f09061318d565b801561073d5780601f106107125761010080835404028352916020019161073d565b820191906000526020600020905b81548152906001019060200180831161072057829003601f168201915b5050505050905090565b600061075282611433565b6004600083815260200190815260200160002060009054906101000a900473ffffffffffffffffffffffffffffffffffffffff169050919050565b600061079882610af1565b90508073ffffffffffffffffffffffffffffffffffffffff168373ffffffffffffffffffffffffffffffffffffffff1603610808576040517f08c379a00000000000000000000000000000000000000000000000000000000081526004016107ff90613230565b60405180910390fd5b8073ffffffffffffffffffffffffffffffffffffffff1661082761147e565b73ffffffffffffffffffffffffffffffffffffffff16148061085657506108558161085061147e565b61108f565b5b610895576040517f08c379a000000000000000000000000000000000000000000000000000000000815260040161088c906132c2565b60405180910390fd5b61089f8383611486565b505050565b6000801b6108b18161153f565b6108b9610eac565b6108cd600754600860000154868686611553565b50505050565b6008806000015490806001016040518060600160405290816000820154815260200160018201548152602001600282015481525050908060040154905083565b60075481565b61092a61092461147e565b82611726565b610969576040517f08c379a000000000000000000000000000000000000000000000000000000000815260040161096090613354565b60405180910390fd5b6109748383836117bb565b505050565b600060066000838152602001908152602001600020600101549050919050565b6109a282610979565b6109ab8161153f565b6109b58383611ab4565b505050565b6109c261147e565b73ffffffffffffffffffffffffffffffffffffffff168173ffffffffffffffffffffffffffffffffffffffff1614610a2f576040517f08c379a0000000000000000000000000000000000000000000000000000000008152600401610a26906133e6565b60405180910390fd5b610a398282611b95565b5050565b610a5883838360405180602001604052806000815250610f53565b505050565b6000801b610a6a8161153f565b600060086004015411610ab2576040517f08c379a0000000000000000000000000000000000000000000000000000000008152600401610aa990613452565b60405180910390fd5b60086004016000815480929190610ac8906134a1565b9190505550610aee600d6000600860040154815260200190815260200160002054611c77565b50565b600080610afd83611dc5565b9050600073ffffffffffffffffffffffffffffffffffffffff168173ffffffffffffffffffffffffffffffffffffffff1603610b6e576040517f08c379a0000000000000000000000000000000000000000000000000000000008152600401610b6590613516565b60405180910390fd5b80915050919050565b600042905060086001016002015481108015610b9a575060086001016000015481115b610bd9576040517f08c379a0000000000000000000000000000000000000000000000000000000008152600401610bd0906135a8565b60405180910390fd5b6000610be433610cf8565b14610c24576040517f08c379a0000000000000000000000000000000000000000000000000000000008152600401610c1b90613614565b60405180910390fd5b60075460086004015410610c6d576040517f08c379a0000000000000000000000000000000000000000000000000000000008152600401610c6490613680565b60405180910390fd5b6008600001543414610cb4576040517f08c379a0000000000000000000000000000000000000000000000000000000008152600401610cab906136ec565b60405180910390fd5b600860010160010154811015610cd157610ccc611e02565b610cda565b610cd9611e51565b5b60086004016000815480929190610cf09061370c565b919050555050565b60008073ffffffffffffffffffffffffffffffffffffffff168273ffffffffffffffffffffffffffffffffffffffff1603610d68576040517f08c379a0000000000000000000000000000000000000000000000000000000008152600401610d5f906137c6565b60405180910390fd5b600360008373ffffffffffffffffffffffffffffffffffffffff1673ffffffffffffffffffffffffffffffffffffffff168152602001908152602001600020549050919050565b60006006600084815260200190815260200160002060000160008373ffffffffffffffffffffffffffffffffffffffff1673ffffffffffffffffffffffffffffffffffffffff16815260200190815260200160002060009054906101000a900460ff16905092915050565b606060018054610e299061318d565b80601f0160208091040260200160405190810160405280929190818152602001828054610e559061318d565b8015610ea25780601f10610e7757610100808354040283529160200191610ea2565b820191906000526020600020905b815481529060010190602001808311610e8557829003601f168201915b5050505050905090565b6000801b610eb98161153f565b600060086004015411610f01576040517f08c379a0000000000000000000000000000000000000000000000000000000008152600401610ef890613452565b60405180910390fd5b6000600860040154905060005b81811015610f3157610f1e610a5d565b8080610f299061370c565b915050610f0e565b505050565b6000801b81565b610f4f610f4861147e565b8383611e75565b5050565b610f64610f5e61147e565b83611726565b610fa3576040517f08c379a0000000000000000000000000000000000000000000000000000000008152600401610f9a90613354565b60405180910390fd5b610faf84848484611fe1565b50505050565b610fdf7f9f2df0fed2c77648de5860a4cc508cd0818c85b8b8a1ab4ceeef8d981c8956a682610999565b50565b6060610fed82611433565b6000610ff761203d565b905060008151116110175760405180602001604052806000815250611042565b806110218461205d565b604051602001611032929190613822565b6040516020818303038152906040525b915050919050565b7f9f2df0fed2c77648de5860a4cc508cd0818c85b8b8a1ab4ceeef8d981c8956a681565b61107782610979565b6110808161153f565b61108a8383611b95565b505050565b6000600560008473ffffffffffffffffffffffffffffffffffffffff1673ffffffffffffffffffffffffffffffffffffffff16815260200190815260200160002060008373ffffffffffffffffffffffffffffffffffffffff1673ffffffffffffffffffffffffffffffffffffffff16815260200190815260200160002060009054906101000a900460ff16905092915050565b61114d7f9f2df0fed2c77648de5860a4cc508cd0818c85b8b8a1ab4ceeef8d981c8956a68261106e565b50565b60606111768273ffffffffffffffffffffffffffffffffffffffff16601460ff1661117d565b9050919050565b6060600060028360026111909190613846565b61119a9190613888565b67ffffffffffffffff8111156111b3576111b2612f70565b5b6040519080825280601f01601f1916602001820160405280156111e55781602001600182028036833780820191505090505b5090507f30000000000000000000000000000000000000000000000000000000000000008160008151811061121d5761121c6138bc565b5b60200101907effffffffffffffffffffffffffffffffffffffffffffffffffffffffffffff1916908160001a9053507f780000000000000000000000000000000000000000000000000000000000000081600181518110611281576112806138bc565b5b60200101907effffffffffffffffffffffffffffffffffffffffffffffffffffffffffffff1916908160001a905350600060018460026112c19190613846565b6112cb9190613888565b90505b600181111561136b577f3031323334353637383961626364656600000000000000000000000000000000600f86166010811061130d5761130c6138bc565b5b1a60f81b828281518110611324576113236138bc565b5b60200101907effffffffffffffffffffffffffffffffffffffffffffffffffffffffffffff1916908160001a905350600485901c945080611364906134a1565b90506112ce565b50600084146113af576040517f08c379a00000000000000000000000000000000000000000000000000000000081526004016113a690613937565b60405180910390fd5b8091505092915050565b60007f7965db0b000000000000000000000000000000000000000000000000000000007bffffffffffffffffffffffffffffffffffffffffffffffffffffffff1916827bffffffffffffffffffffffffffffffffffffffffffffffffffffffff1916148061142c575061142b8261212b565b5b9050919050565b61143c8161220d565b61147b576040517f08c379a000000000000000000000000000000000000000000000000000000000815260040161147290613516565b60405180910390fd5b50565b600033905090565b816004600083815260200190815260200160002060006101000a81548173ffffffffffffffffffffffffffffffffffffffff021916908373ffffffffffffffffffffffffffffffffffffffff160217905550808273ffffffffffffffffffffffffffffffffffffffff166114f983610af1565b73ffffffffffffffffffffffffffffffffffffffff167f8c5be1e5ebec7d5bd14f71427d1e84f3dd0314c0f7b2291e5b200ac8c7c3b92560405160405180910390a45050565b6115508161154b61147e565b61224e565b50565b6000801b6115608161153f565b600086116115a3576040517f08c379a000000000000000000000000000000000000000000000000000000000815260040161159a906139c9565b60405180910390fd5b600085116115e6576040517f08c379a00000000000000000000000000000000000000000000000000000000081526004016115dd90613a5b565b60405180910390fd5b428411611628576040517f08c379a000000000000000000000000000000000000000000000000000000000815260040161161f90613aed565b60405180910390fd5b6000831161166b576040517f08c379a000000000000000000000000000000000000000000000000000000000815260040161166290613b7f565b60405180910390fd5b600082116116ae576040517f08c379a00000000000000000000000000000000000000000000000000000000081526004016116a590613c11565b60405180910390fd5b85600781905550633b9aca00856116c59190613846565b6008600001819055508360086001016000018190555082846116e79190613888565b6008600101600101819055508183856117009190613888565b61170a9190613888565b60086001016002018190555061171e6122d3565b505050505050565b60008061173283610af1565b90508073ffffffffffffffffffffffffffffffffffffffff168473ffffffffffffffffffffffffffffffffffffffff1614806117745750611773818561108f565b5b806117b257508373ffffffffffffffffffffffffffffffffffffffff1661179a84610747565b73ffffffffffffffffffffffffffffffffffffffff16145b91505092915050565b8273ffffffffffffffffffffffffffffffffffffffff166117db82610af1565b73ffffffffffffffffffffffffffffffffffffffff1614611831576040517f08c379a000000000000000000000000000000000000000000000000000000000815260040161182890613ca3565b60405180910390fd5b600073ffffffffffffffffffffffffffffffffffffffff168273ffffffffffffffffffffffffffffffffffffffff16036118a0576040517f08c379a000000000000000000000000000000000000000000000000000000000815260040161189790613d35565b60405180910390fd5b6118ad83838360016123f3565b8273ffffffffffffffffffffffffffffffffffffffff166118cd82610af1565b73ffffffffffffffffffffffffffffffffffffffff1614611923576040517f08c379a000000000000000000000000000000000000000000000000000000000815260040161191a90613ca3565b60405180910390fd5b6004600082815260200190815260200160002060006101000a81549073ffffffffffffffffffffffffffffffffffffffff02191690556001600360008573ffffffffffffffffffffffffffffffffffffffff1673ffffffffffffffffffffffffffffffffffffffff168152602001908152602001600020600082825403925050819055506001600360008473ffffffffffffffffffffffffffffffffffffffff1673ffffffffffffffffffffffffffffffffffffffff16815260200190815260200160002060008282540192505081905550816002600083815260200190815260200160002060006101000a81548173ffffffffffffffffffffffffffffffffffffffff021916908373ffffffffffffffffffffffffffffffffffffffff160217905550808273ffffffffffffffffffffffffffffffffffffffff168473ffffffffffffffffffffffffffffffffffffffff167fddf252ad1be2c89b69c2b068fc378daa952ba7f163c4a11628f55a4df523b3ef60405160405180910390a4611aaf83838360016123f9565b505050565b611abe8282610daf565b611b915760016006600084815260200190815260200160002060000160008373ffffffffffffffffffffffffffffffffffffffff1673ffffffffffffffffffffffffffffffffffffffff16815260200190815260200160002060006101000a81548160ff021916908315150217905550611b3661147e565b73ffffffffffffffffffffffffffffffffffffffff168173ffffffffffffffffffffffffffffffffffffffff16837f2f8788117e7eff1d82e926ec794901d17c78024a50270940304540a733656f0d60405160405180910390a45b5050565b611b9f8282610daf565b15611c735760006006600084815260200190815260200160002060000160008373ffffffffffffffffffffffffffffffffffffffff1673ffffffffffffffffffffffffffffffffffffffff16815260200190815260200160002060006101000a81548160ff021916908315150217905550611c1861147e565b73ffffffffffffffffffffffffffffffffffffffff168173ffffffffffffffffffffffffffffffffffffffff16837ff6391f5c32d9c69d2a47ea670b442974b53935d1edc7fd64eb21e047a839171b60405160405180910390a45b5050565b6000611c8282610af1565b9050611c928160008460016123f3565b611c9b82610af1565b90506004600083815260200190815260200160002060006101000a81549073ffffffffffffffffffffffffffffffffffffffff02191690556001600360008373ffffffffffffffffffffffffffffffffffffffff1673ffffffffffffffffffffffffffffffffffffffff168152602001908152602001600020600082825403925050819055506002600083815260200190815260200160002060006101000a81549073ffffffffffffffffffffffffffffffffffffffff021916905581600073ffffffffffffffffffffffffffffffffffffffff168273ffffffffffffffffffffffffffffffffffffffff167fddf252ad1be2c89b69c2b068fc378daa952ba7f163c4a11628f55a4df523b3ef60405160405180910390a4611dc18160008460016123f9565b5050565b60006002600083815260200190815260200160002060009054906101000a900473ffffffffffffffffffffffffffffffffffffffff169050919050565b7f9f2df0fed2c77648de5860a4cc508cd0818c85b8b8a1ab4ceeef8d981c8956a6611e2c8161153f565b611e4e33600d60006008600401548152602001908152602001600020546123ff565b50565b611e7333600d60006008600401548152602001908152602001600020546123ff565b565b8173ffffffffffffffffffffffffffffffffffffffff168373ffffffffffffffffffffffffffffffffffffffff1603611ee3576040517f08c379a0000000000000000000000000000000000000000000000000000000008152600401611eda90613da1565b60405180910390fd5b80600560008573ffffffffffffffffffffffffffffffffffffffff1673ffffffffffffffffffffffffffffffffffffffff16815260200190815260200160002060008473ffffffffffffffffffffffffffffffffffffffff1673ffffffffffffffffffffffffffffffffffffffff16815260200190815260200160002060006101000a81548160ff0219169083151502179055508173ffffffffffffffffffffffffffffffffffffffff168373ffffffffffffffffffffffffffffffffffffffff167f17307eab39ab6107e8899845ad3d59bd9653f200f220920489ca2b5937696c3183604051611fd49190612ab0565b60405180910390a3505050565b611fec8484846117bb565b611ff88484848461241d565b612037576040517f08c379a000000000000000000000000000000000000000000000000000000000815260040161202e90613e33565b60405180910390fd5b50505050565b60606040518060800160405280604481526020016141d360449139905090565b60606000600161206c846125a4565b01905060008167ffffffffffffffff81111561208b5761208a612f70565b5b6040519080825280601f01601f1916602001820160405280156120bd5781602001600182028036833780820191505090505b509050600082602001820190505b600115612120578080600190039150507f3031323334353637383961626364656600000000000000000000000000000000600a86061a8153600a858161211457612113613e53565b5b049450600085036120cb575b819350505050919050565b60007f80ac58cd000000000000000000000000000000000000000000000000000000007bffffffffffffffffffffffffffffffffffffffffffffffffffffffff1916827bffffffffffffffffffffffffffffffffffffffffffffffffffffffff191614806121f657507f5b5e139f000000000000000000000000000000000000000000000000000000007bffffffffffffffffffffffffffffffffffffffffffffffffffffffff1916827bffffffffffffffffffffffffffffffffffffffffffffffffffffffff1916145b806122065750612205826126f7565b5b9050919050565b60008073ffffffffffffffffffffffffffffffffffffffff1661222f83611dc5565b73ffffffffffffffffffffffffffffffffffffffff1614159050919050565b6122588282610daf565b6122cf5761226581611150565b6122738360001c602061117d565b604051602001612284929190613f1a565b6040516020818303038152906040526040517f08c379a00000000000000000000000000000000000000000000000000000000081526004016122c69190612b5b565b60405180910390fd5b5050565b6000801b6122e08161153f565b60005b6007548110156123185780600d60008381526020019081526020016000208190555080806123109061370c565b9150506122e3565b506000600754905060005b818110156123ee57600081836123399190613f54565b42448460405160200161234e93929190613fa9565b6040516020818303038152906040528051906020012060001c6123719190613fe6565b8261237c9190613888565b90506000600d6000838152602001908152602001600020549050600d600084815260200190815260200160002054600d60008481526020019081526020016000208190555080600d600085815260200190815260200160002081905550505080806123e69061370c565b915050612323565b505050565b50505050565b50505050565b612419828260405180602001604052806000815250612761565b5050565b600061243e8473ffffffffffffffffffffffffffffffffffffffff166127bc565b15612597578373ffffffffffffffffffffffffffffffffffffffff1663150b7a0261246761147e565b8786866040518563ffffffff1660e01b8152600401612489949392919061406c565b6020604051808303816000875af19250505080156124c557506040513d601f19601f820116820180604052508101906124c291906140cd565b60015b612547573d80600081146124f5576040519150601f19603f3d011682016040523d82523d6000602084013e6124fa565b606091505b50600081510361253f576040517f08c379a000000000000000000000000000000000000000000000000000000000815260040161253690613e33565b60405180910390fd5b805181602001fd5b63150b7a0260e01b7bffffffffffffffffffffffffffffffffffffffffffffffffffffffff1916817bffffffffffffffffffffffffffffffffffffffffffffffffffffffff19161491505061259c565b600190505b949350505050565b600080600090507a184f03e93ff9f4daa797ed6e38ed64bf6a1f0100000000000000008310612602577a184f03e93ff9f4daa797ed6e38ed64bf6a1f01000000000000000083816125f8576125f7613e53565b5b0492506040810190505b6d04ee2d6d415b85acef8100000000831061263f576d04ee2d6d415b85acef8100000000838161263557612634613e53565b5b0492506020810190505b662386f26fc10000831061266e57662386f26fc10000838161266457612663613e53565b5b0492506010810190505b6305f5e1008310612697576305f5e100838161268d5761268c613e53565b5b0492506008810190505b61271083106126bc5761271083816126b2576126b1613e53565b5b0492506004810190505b606483106126df57606483816126d5576126d4613e53565b5b0492506002810190505b600a83106126ee576001810190505b80915050919050565b60007f01ffc9a7000000000000000000000000000000000000000000000000000000007bffffffffffffffffffffffffffffffffffffffffffffffffffffffff1916827bffffffffffffffffffffffffffffffffffffffffffffffffffffffff1916149050919050565b61276b83836127df565b612778600084848461241d565b6127b7576040517f08c379a00000000000000000000000000000000000000000000000000000000081526004016127ae90613e33565b60405180910390fd5b505050565b6000808273ffffffffffffffffffffffffffffffffffffffff163b119050919050565b600073ffffffffffffffffffffffffffffffffffffffff168273ffffffffffffffffffffffffffffffffffffffff160361284e576040517f08c379a000000000000000000000000000000000000000000000000000000000815260040161284590614146565b60405180910390fd5b6128578161220d565b15612897576040517f08c379a000000000000000000000000000000000000000000000000000000000815260040161288e906141b2565b60405180910390fd5b6128a56000838360016123f3565b6128ae8161220d565b156128ee576040517f08c379a00000000000000000000000000000000000000000000000000000000081526004016128e5906141b2565b60405180910390fd5b6001600360008473ffffffffffffffffffffffffffffffffffffffff1673ffffffffffffffffffffffffffffffffffffffff16815260200190815260200160002060008282540192505081905550816002600083815260200190815260200160002060006101000a81548173ffffffffffffffffffffffffffffffffffffffff021916908373ffffffffffffffffffffffffffffffffffffffff160217905550808273ffffffffffffffffffffffffffffffffffffffff16600073ffffffffffffffffffffffffffffffffffffffff167fddf252ad1be2c89b69c2b068fc378daa952ba7f163c4a11628f55a4df523b3ef60405160405180910390a46129f86000838360016123f9565b5050565b6000604051905090565b600080fd5b600080fd5b60007fffffffff0000000000000000000000000000000000000000000000000000000082169050919050565b612a4581612a10565b8114612a5057600080fd5b50565b600081359050612a6281612a3c565b92915050565b600060208284031215612a7e57612a7d612a06565b5b6000612a8c84828501612a53565b91505092915050565b60008115159050919050565b612aaa81612a95565b82525050565b6000602082019050612ac56000830184612aa1565b92915050565b600081519050919050565b600082825260208201905092915050565b60005b83811015612b05578082015181840152602081019050612aea565b60008484015250505050565b6000601f19601f8301169050919050565b6000612b2d82612acb565b612b378185612ad6565b9350612b47818560208601612ae7565b612b5081612b11565b840191505092915050565b60006020820190508181036000830152612b758184612b22565b905092915050565b6000819050919050565b612b9081612b7d565b8114612b9b57600080fd5b50565b600081359050612bad81612b87565b92915050565b600060208284031215612bc957612bc8612a06565b5b6000612bd784828501612b9e565b91505092915050565b600073ffffffffffffffffffffffffffffffffffffffff82169050919050565b6000612c0b82612be0565b9050919050565b612c1b81612c00565b82525050565b6000602082019050612c366000830184612c12565b92915050565b612c4581612c00565b8114612c5057600080fd5b50565b600081359050612c6281612c3c565b92915050565b60008060408385031215612c7f57612c7e612a06565b5b6000612c8d85828601612c53565b9250506020612c9e85828601612b9e565b9150509250929050565b600080600060608486031215612cc157612cc0612a06565b5b6000612ccf86828701612b9e565b9350506020612ce086828701612b9e565b9250506040612cf186828701612b9e565b9150509250925092565b612d0481612b7d565b82525050565b612d1381612b7d565b82525050565b606082016000820151612d2f6000850182612d0a565b506020820151612d426020850182612d0a565b506040820151612d556040850182612d0a565b50505050565b600060a082019050612d706000830186612cfb565b612d7d6020830185612d19565b612d8a6080830184612cfb565b949350505050565b6000602082019050612da76000830184612cfb565b92915050565b600080600060608486031215612dc657612dc5612a06565b5b6000612dd486828701612c53565b9350506020612de586828701612c53565b9250506040612df686828701612b9e565b9150509250925092565b6000819050919050565b612e1381612e00565b8114612e1e57600080fd5b50565b600081359050612e3081612e0a565b92915050565b600060208284031215612e4c57612e4b612a06565b5b6000612e5a84828501612e21565b91505092915050565b612e6c81612e00565b82525050565b6000602082019050612e876000830184612e63565b92915050565b60008060408385031215612ea457612ea3612a06565b5b6000612eb285828601612e21565b9250506020612ec385828601612c53565b9150509250929050565b600060208284031215612ee357612ee2612a06565b5b6000612ef184828501612c53565b91505092915050565b612f0381612a95565b8114612f0e57600080fd5b50565b600081359050612f2081612efa565b92915050565b60008060408385031215612f3d57612f3c612a06565b5b6000612f4b85828601612c53565b9250506020612f5c85828601612f11565b9150509250929050565b600080fd5b600080fd5b7f4e487b7100000000000000000000000000000000000000000000000000000000600052604160045260246000fd5b612fa882612b11565b810181811067ffffffffffffffff82111715612fc757612fc6612f70565b5b80604052505050565b6000612fda6129fc565b9050612fe68282612f9f565b919050565b600067ffffffffffffffff82111561300657613005612f70565b5b61300f82612b11565b9050602081019050919050565b82818337600083830152505050565b600061303e61303984612feb565b612fd0565b90508281526020810184848401111561305a57613059612f6b565b5b61306584828561301c565b509392505050565b600082601f83011261308257613081612f66565b5b813561309284826020860161302b565b91505092915050565b600080600080608085870312156130b5576130b4612a06565b5b60006130c387828801612c53565b94505060206130d487828801612c53565b93505060406130e587828801612b9e565b925050606085013567ffffffffffffffff81111561310657613105612a0b565b5b6131128782880161306d565b91505092959194509250565b6000806040838503121561313557613134612a06565b5b600061314385828601612c53565b925050602061315485828601612c53565b9150509250929050565b7f4e487b7100000000000000000000000000000000000000000000000000000000600052602260045260246000fd5b600060028204905060018216806131a557607f821691505b6020821081036131b8576131b761315e565b5b50919050565b7f4552433732313a20617070726f76616c20746f2063757272656e74206f776e6560008201527f7200000000000000000000000000000000000000000000000000000000000000602082015250565b600061321a602183612ad6565b9150613225826131be565b604082019050919050565b600060208201905081810360008301526132498161320d565b9050919050565b7f4552433732313a20617070726f76652063616c6c6572206973206e6f7420746f60008201527f6b656e206f776e6572206f7220617070726f76656420666f7220616c6c000000602082015250565b60006132ac603d83612ad6565b91506132b782613250565b604082019050919050565b600060208201905081810360008301526132db8161329f565b9050919050565b7f4552433732313a2063616c6c6572206973206e6f7420746f6b656e206f776e6560008201527f72206f7220617070726f76656400000000000000000000000000000000000000602082015250565b600061333e602d83612ad6565b9150613349826132e2565b604082019050919050565b6000602082019050818103600083015261336d81613331565b9050919050565b7f416363657373436f6e74726f6c3a2063616e206f6e6c792072656e6f756e636560008201527f20726f6c657320666f722073656c660000000000000000000000000000000000602082015250565b60006133d0602f83612ad6565b91506133db82613374565b604082019050919050565b600060208201905081810360008301526133ff816133c3565b9050919050565b7f4e6f20746f6b656e20746f206275726e00000000000000000000000000000000600082015250565b600061343c601083612ad6565b915061344782613406565b602082019050919050565b6000602082019050818103600083015261346b8161342f565b9050919050565b7f4e487b7100000000000000000000000000000000000000000000000000000000600052601160045260246000fd5b60006134ac82612b7d565b9150600082036134bf576134be613472565b5b600182039050919050565b7f4552433732313a20696e76616c696420746f6b656e2049440000000000000000600082015250565b6000613500601883612ad6565b915061350b826134ca565b602082019050919050565b6000602082019050818103600083015261352f816134f3565b9050919050565b7f4d696e74206861732065697468657220656e646564206f72206e6f742073746160008201527f7274656400000000000000000000000000000000000000000000000000000000602082015250565b6000613592602483612ad6565b915061359d82613536565b604082019050919050565b600060208201905081810360008301526135c181613585565b9050919050565b7f596f75277665206d696e74656421000000000000000000000000000000000000600082015250565b60006135fe600e83612ad6565b9150613609826135c8565b602082019050919050565b6000602082019050818103600083015261362d816135f1565b9050919050565b7f416c6c20746f6b656e2068617665206265656e206d696e746564000000000000600082015250565b600061366a601a83612ad6565b915061367582613634565b602082019050919050565b600060208201905081810360008301526136998161365d565b9050919050565b7f496e76616c696420616d6f756e74000000000000000000000000000000000000600082015250565b60006136d6600e83612ad6565b91506136e1826136a0565b602082019050919050565b60006020820190508181036000830152613705816136c9565b9050919050565b600061371782612b7d565b91507fffffffffffffffffffffffffffffffffffffffffffffffffffffffffffffffff820361374957613748613472565b5b600182019050919050565b7f4552433732313a2061646472657373207a65726f206973206e6f74206120766160008201527f6c6964206f776e65720000000000000000000000000000000000000000000000602082015250565b60006137b0602983612ad6565b91506137bb82613754565b604082019050919050565b600060208201905081810360008301526137df816137a3565b9050919050565b600081905092915050565b60006137fc82612acb565b61380681856137e6565b9350613816818560208601612ae7565b80840191505092915050565b600061382e82856137f1565b915061383a82846137f1565b91508190509392505050565b600061385182612b7d565b915061385c83612b7d565b925082820261386a81612b7d565b9150828204841483151761388157613880613472565b5b5092915050565b600061389382612b7d565b915061389e83612b7d565b92508282019050808211156138b6576138b5613472565b5b92915050565b7f4e487b7100000000000000000000000000000000000000000000000000000000600052603260045260246000fd5b7f537472696e67733a20686578206c656e67746820696e73756666696369656e74600082015250565b6000613921602083612ad6565b915061392c826138eb565b602082019050919050565b6000602082019050818103600083015261395081613914565b9050919050565b7f746f74616c20737570706c79206d75737420626520677265617465722074686160008201527f6e207a65726f7300000000000000000000000000000000000000000000000000602082015250565b60006139b3602783612ad6565b91506139be82613957565b604082019050919050565b600060208201905081810360008301526139e2816139a6565b9050919050565b7f6d696e74207072696365206d7573742062652067726561746572207468616e2060008201527f7a65726f00000000000000000000000000000000000000000000000000000000602082015250565b6000613a45602483612ad6565b9150613a50826139e9565b604082019050919050565b60006020820190508181036000830152613a7481613a38565b9050919050565b7f6d696e742073746172742074696d65206d75737420626520677265617465722060008201527f7468616e2063757272656e742074696d65000000000000000000000000000000602082015250565b6000613ad7603183612ad6565b9150613ae282613a7b565b604082019050919050565b60006020820190508181036000830152613b0681613aca565b9050919050565b7f70726573616c65206d7573742062652067726561746572207468616e207a657260008201527f6f00000000000000000000000000000000000000000000000000000000000000602082015250565b6000613b69602183612ad6565b9150613b7482613b0d565b604082019050919050565b60006020820190508181036000830152613b9881613b5c565b9050919050565b7f7075626c696373616c65206d7573742062652067726561746572207468616e2060008201527f7a65726f00000000000000000000000000000000000000000000000000000000602082015250565b6000613bfb602483612ad6565b9150613c0682613b9f565b604082019050919050565b60006020820190508181036000830152613c2a81613bee565b9050919050565b7f4552433732313a207472616e736665722066726f6d20696e636f72726563742060008201527f6f776e6572000000000000000000000000000000000000000000000000000000602082015250565b6000613c8d602583612ad6565b9150613c9882613c31565b604082019050919050565b60006020820190508181036000830152613cbc81613c80565b9050919050565b7f4552433732313a207472616e7366657220746f20746865207a65726f2061646460008201527f7265737300000000000000000000000000000000000000000000000000000000602082015250565b6000613d1f602483612ad6565b9150613d2a82613cc3565b604082019050919050565b60006020820190508181036000830152613d4e81613d12565b9050919050565b7f4552433732313a20617070726f766520746f2063616c6c657200000000000000600082015250565b6000613d8b601983612ad6565b9150613d9682613d55565b602082019050919050565b60006020820190508181036000830152613dba81613d7e565b9050919050565b7f4552433732313a207472616e7366657220746f206e6f6e20455243373231526560008201527f63656976657220696d706c656d656e7465720000000000000000000000000000602082015250565b6000613e1d603283612ad6565b9150613e2882613dc1565b604082019050919050565b60006020820190508181036000830152613e4c81613e10565b9050919050565b7f4e487b7100000000000000000000000000000000000000000000000000000000600052601260045260246000fd5b7f416363657373436f6e74726f6c3a206163636f756e7420000000000000000000600082015250565b6000613eb86017836137e6565b9150613ec382613e82565b601782019050919050565b7f206973206d697373696e6720726f6c6520000000000000000000000000000000600082015250565b6000613f046011836137e6565b9150613f0f82613ece565b601182019050919050565b6000613f2582613eab565b9150613f3182856137f1565b9150613f3c82613ef7565b9150613f4882846137f1565b91508190509392505050565b6000613f5f82612b7d565b9150613f6a83612b7d565b9250828203905081811115613f8257613f81613472565b5b92915050565b6000819050919050565b613fa3613f9e82612b7d565b613f88565b82525050565b6000613fb58286613f92565b602082019150613fc58285613f92565b602082019150613fd58284613f92565b602082019150819050949350505050565b6000613ff182612b7d565b9150613ffc83612b7d565b92508261400c5761400b613e53565b5b828206905092915050565b600081519050919050565b600082825260208201905092915050565b600061403e82614017565b6140488185614022565b9350614058818560208601612ae7565b61406181612b11565b840191505092915050565b60006080820190506140816000830187612c12565b61408e6020830186612c12565b61409b6040830185612cfb565b81810360608301526140ad8184614033565b905095945050505050565b6000815190506140c781612a3c565b92915050565b6000602082840312156140e3576140e2612a06565b5b60006140f1848285016140b8565b91505092915050565b7f4552433732313a206d696e7420746f20746865207a65726f2061646472657373600082015250565b6000614130602083612ad6565b915061413b826140fa565b602082019050919050565b6000602082019050818103600083015261415f81614123565b9050919050565b7f4552433732313a20746f6b656e20616c7265616479206d696e74656400000000600082015250565b600061419c601c83612ad6565b91506141a782614166565b602082019050919050565b600060208201905081810360008301526141cb8161418f565b905091905056fe68747470733a2f2f697066732e696f2f697066732f516d5a6348345976425656524a74646e3452646261716773704655386748365039766f6d4470425670414c3375342fa26469706673582212206ee200eae29392389533685873ce7f9cf8daeef28a32933a07fa993abc68e36964736f6c63430008120033","opcodes":"PUSH1 0x80 PUSH1 0x40 MSTORE CALLVALUE DUP1 ISZERO PUSH3 0x11 JUMPI PUSH1 0x0 DUP1 REVERT JUMPDEST POP PUSH1 0x40 MLOAD PUSH3 0x574C CODESIZE SUB DUP1 PUSH3 0x574C DUP4 CODECOPY DUP2 DUP2 ADD PUSH1 0x40 MSTORE DUP2 ADD SWAP1 PUSH3 0x37 SWAP2 SWAP1 PUSH3 0x967 JUMP JUMPDEST PUSH1 0x40 MLOAD DUP1 PUSH1 0x40 ADD PUSH1 0x40 MSTORE DUP1 PUSH1 0x7 DUP2 MSTORE PUSH1 0x20 ADD PUSH32 0x4D79546F6B656E00000000000000000000000000000000000000000000000000 DUP2 MSTORE POP PUSH1 0x40 MLOAD DUP1 PUSH1 0x40 ADD PUSH1 0x40 MSTORE DUP1 PUSH1 0x3 DUP2 MSTORE PUSH1 0x20 ADD PUSH32 0x4D544B0000000000000000000000000000000000000000000000000000000000 DUP2 MSTORE POP DUP2 PUSH1 0x0 SWAP1 DUP2 PUSH3 0xB4 SWAP2 SWAP1 PUSH3 0xC5F JUMP JUMPDEST POP DUP1 PUSH1 0x1 SWAP1 DUP2 PUSH3 0xC6 SWAP2 SWAP1 PUSH3 0xC5F JUMP JUMPDEST POP POP POP PUSH3 0xDE PUSH1 0x0 DUP1 SHL CALLER PUSH3 0x130 PUSH1 0x20 SHL PUSH1 0x20 SHR JUMP JUMPDEST PUSH3 0x110 PUSH32 0x9F2DF0FED2C77648DE5860A4CC508CD0818C85B8B8A1AB4CEEEF8D981C8956A6 CALLER PUSH3 0x130 PUSH1 0x20 SHL PUSH1 0x20 SHR JUMP JUMPDEST PUSH3 0x125 DUP6 DUP6 DUP6 DUP6 DUP6 PUSH3 0x222 PUSH1 0x20 SHL PUSH1 0x20 SHR JUMP JUMPDEST POP POP POP POP POP PUSH3 0x14F0 JUMP JUMPDEST PUSH3 0x142 DUP3 DUP3 PUSH3 0x41C PUSH1 0x20 SHL PUSH1 0x20 SHR JUMP JUMPDEST PUSH3 0x21E JUMPI PUSH1 0x1 PUSH1 0x6 PUSH1 0x0 DUP5 DUP2 MSTORE PUSH1 0x20 ADD SWAP1 DUP2 MSTORE PUSH1 0x20 ADD PUSH1 0x0 KECCAK256 PUSH1 0x0 ADD PUSH1 0x0 DUP4 PUSH20 0xFFFFFFFFFFFFFFFFFFFFFFFFFFFFFFFFFFFFFFFF AND PUSH20 0xFFFFFFFFFFFFFFFFFFFFFFFFFFFFFFFFFFFFFFFF AND DUP2 MSTORE PUSH1 0x20 ADD SWAP1 DUP2 MSTORE PUSH1 0x20 ADD PUSH1 0x0 KECCAK256 PUSH1 0x0 PUSH2 0x100 EXP DUP2 SLOAD DUP2 PUSH1 0xFF MUL NOT AND SWAP1 DUP4 ISZERO ISZERO MUL OR SWAP1 SSTORE POP PUSH3 0x1C3 PUSH3 0x487 PUSH1 0x20 SHL PUSH1 0x20 SHR JUMP JUMPDEST PUSH20 0xFFFFFFFFFFFFFFFFFFFFFFFFFFFFFFFFFFFFFFFF AND DUP2 PUSH20 0xFFFFFFFFFFFFFFFFFFFFFFFFFFFFFFFFFFFFFFFF AND DUP4 PUSH32 0x2F8788117E7EFF1D82E926EC794901D17C78024A50270940304540A733656F0D PUSH1 0x40 MLOAD PUSH1 0x40 MLOAD DUP1 SWAP2 SUB SWAP1 LOG4 JUMPDEST POP POP JUMP JUMPDEST PUSH1 0x0 DUP1 SHL PUSH3 0x237 DUP2 PUSH3 0x48F PUSH1 0x20 SHL PUSH1 0x20 SHR JUMP JUMPDEST PUSH1 0x0 DUP7 GT PUSH3 0x27D JUMPI PUSH1 0x40 MLOAD PUSH32 0x8C379A000000000000000000000000000000000000000000000000000000000 DUP2 MSTORE PUSH1 0x4 ADD PUSH3 0x274 SWAP1 PUSH3 0xDCD JUMP JUMPDEST PUSH1 0x40 MLOAD DUP1 SWAP2 SUB SWAP1 REVERT JUMPDEST PUSH1 0x0 DUP6 GT PUSH3 0x2C3 JUMPI PUSH1 0x40 MLOAD PUSH32 0x8C379A000000000000000000000000000000000000000000000000000000000 DUP2 MSTORE PUSH1 0x4 ADD PUSH3 0x2BA SWAP1 PUSH3 0xE65 JUMP JUMPDEST PUSH1 0x40 MLOAD DUP1 SWAP2 SUB SWAP1 REVERT JUMPDEST TIMESTAMP DUP5 GT PUSH3 0x308 JUMPI PUSH1 0x40 MLOAD PUSH32 0x8C379A000000000000000000000000000000000000000000000000000000000 DUP2 MSTORE PUSH1 0x4 ADD PUSH3 0x2FF SWAP1 PUSH3 0xEFD JUMP JUMPDEST PUSH1 0x40 MLOAD DUP1 SWAP2 SUB SWAP1 REVERT JUMPDEST PUSH1 0x0 DUP4 GT PUSH3 0x34E JUMPI PUSH1 0x40 MLOAD PUSH32 0x8C379A000000000000000000000000000000000000000000000000000000000 DUP2 MSTORE PUSH1 0x4 ADD PUSH3 0x345 SWAP1 PUSH3 0xF95 JUMP JUMPDEST PUSH1 0x40 MLOAD DUP1 SWAP2 SUB SWAP1 REVERT JUMPDEST PUSH1 0x0 DUP3 GT PUSH3 0x394 JUMPI PUSH1 0x40 MLOAD PUSH32 0x8C379A000000000000000000000000000000000000000000000000000000000 DUP2 MSTORE PUSH1 0x4 ADD PUSH3 0x38B SWAP1 PUSH3 0x102D JUMP JUMPDEST PUSH1 0x40 MLOAD DUP1 SWAP2 SUB SWAP1 REVERT JUMPDEST DUP6 PUSH1 0x7 DUP2 SWAP1 SSTORE POP PUSH4 0x3B9ACA00 DUP6 PUSH3 0x3AD SWAP2 SWAP1 PUSH3 0x107E JUMP JUMPDEST PUSH1 0x8 PUSH1 0x0 ADD DUP2 SWAP1 SSTORE POP DUP4 PUSH1 0x8 PUSH1 0x1 ADD PUSH1 0x0 ADD DUP2 SWAP1 SSTORE POP DUP3 DUP5 PUSH3 0x3D1 SWAP2 SWAP1 PUSH3 0x10C9 JUMP JUMPDEST PUSH1 0x8 PUSH1 0x1 ADD PUSH1 0x1 ADD DUP2 SWAP1 SSTORE POP DUP2 DUP4 DUP6 PUSH3 0x3EC SWAP2 SWAP1 PUSH3 0x10C9 JUMP JUMPDEST PUSH3 0x3F8 SWAP2 SWAP1 PUSH3 0x10C9 JUMP JUMPDEST PUSH1 0x8 PUSH1 0x1 ADD PUSH1 0x2 ADD DUP2 SWAP1 SSTORE POP PUSH3 0x414 PUSH3 0x4B3 PUSH1 0x20 SHL PUSH1 0x20 SHR JUMP JUMPDEST POP POP POP POP POP POP JUMP JUMPDEST PUSH1 0x0 PUSH1 0x6 PUSH1 0x0 DUP5 DUP2 MSTORE PUSH1 0x20 ADD SWAP1 DUP2 MSTORE PUSH1 0x20 ADD PUSH1 0x0 KECCAK256 PUSH1 0x0 ADD PUSH1 0x0 DUP4 PUSH20 0xFFFFFFFFFFFFFFFFFFFFFFFFFFFFFFFFFFFFFFFF AND PUSH20 0xFFFFFFFFFFFFFFFFFFFFFFFFFFFFFFFFFFFFFFFF AND DUP2 MSTORE PUSH1 0x20 ADD SWAP1 DUP2 MSTORE PUSH1 0x20 ADD PUSH1 0x0 KECCAK256 PUSH1 0x0 SWAP1 SLOAD SWAP1 PUSH2 0x100 EXP SWAP1 DIV PUSH1 0xFF AND SWAP1 POP SWAP3 SWAP2 POP POP JUMP JUMPDEST PUSH1 0x0 CALLER SWAP1 POP SWAP1 JUMP JUMPDEST PUSH3 0x4B0 DUP2 PUSH3 0x4A4 PUSH3 0x487 PUSH1 0x20 SHL PUSH1 0x20 SHR JUMP JUMPDEST PUSH3 0x5EB PUSH1 0x20 SHL PUSH1 0x20 SHR JUMP JUMPDEST POP JUMP JUMPDEST PUSH1 0x0 DUP1 SHL PUSH3 0x4C8 DUP2 PUSH3 0x48F PUSH1 0x20 SHL PUSH1 0x20 SHR JUMP JUMPDEST PUSH1 0x0 JUMPDEST PUSH1 0x7 SLOAD DUP2 LT ISZERO PUSH3 0x504 JUMPI DUP1 PUSH1 0xD PUSH1 0x0 DUP4 DUP2 MSTORE PUSH1 0x20 ADD SWAP1 DUP2 MSTORE PUSH1 0x20 ADD PUSH1 0x0 KECCAK256 DUP2 SWAP1 SSTORE POP DUP1 DUP1 PUSH3 0x4FB SWAP1 PUSH3 0x1104 JUMP JUMPDEST SWAP2 POP POP PUSH3 0x4CB JUMP JUMPDEST POP PUSH1 0x0 PUSH1 0x7 SLOAD SWAP1 POP PUSH1 0x0 JUMPDEST DUP2 DUP2 LT ISZERO PUSH3 0x5E6 JUMPI PUSH1 0x0 DUP2 DUP4 PUSH3 0x528 SWAP2 SWAP1 PUSH3 0x1151 JUMP JUMPDEST TIMESTAMP PREVRANDAO DUP5 PUSH1 0x40 MLOAD PUSH1 0x20 ADD PUSH3 0x53F SWAP4 SWAP3 SWAP2 SWAP1 PUSH3 0x11B1 JUMP JUMPDEST PUSH1 0x40 MLOAD PUSH1 0x20 DUP2 DUP4 SUB SUB DUP2 MSTORE SWAP1 PUSH1 0x40 MSTORE DUP1 MLOAD SWAP1 PUSH1 0x20 ADD KECCAK256 PUSH1 0x0 SHR PUSH3 0x564 SWAP2 SWAP1 PUSH3 0x1223 JUMP JUMPDEST DUP3 PUSH3 0x571 SWAP2 SWAP1 PUSH3 0x10C9 JUMP JUMPDEST SWAP1 POP PUSH1 0x0 PUSH1 0xD PUSH1 0x0 DUP4 DUP2 MSTORE PUSH1 0x20 ADD SWAP1 DUP2 MSTORE PUSH1 0x20 ADD PUSH1 0x0 KECCAK256 SLOAD SWAP1 POP PUSH1 0xD PUSH1 0x0 DUP5 DUP2 MSTORE PUSH1 0x20 ADD SWAP1 DUP2 MSTORE PUSH1 0x20 ADD PUSH1 0x0 KECCAK256 SLOAD PUSH1 0xD PUSH1 0x0 DUP5 DUP2 MSTORE PUSH1 0x20 ADD SWAP1 DUP2 MSTORE PUSH1 0x20 ADD PUSH1 0x0 KECCAK256 DUP2 SWAP1 SSTORE POP DUP1 PUSH1 0xD PUSH1 0x0 DUP6 DUP2 MSTORE PUSH1 0x20 ADD SWAP1 DUP2 MSTORE PUSH1 0x20 ADD PUSH1 0x0 KECCAK256 DUP2 SWAP1 SSTORE POP POP POP DUP1 DUP1 PUSH3 0x5DD SWAP1 PUSH3 0x1104 JUMP JUMPDEST SWAP2 POP POP PUSH3 0x50F JUMP JUMPDEST POP POP POP JUMP JUMPDEST PUSH3 0x5FD DUP3 DUP3 PUSH3 0x41C PUSH1 0x20 SHL PUSH1 0x20 SHR JUMP JUMPDEST PUSH3 0x693 JUMPI PUSH3 0x618 DUP2 PUSH3 0x697 PUSH1 0x20 SHL PUSH3 0x1150 OR PUSH1 0x20 SHR JUMP JUMPDEST PUSH3 0x633 DUP4 PUSH1 0x0 SHR PUSH1 0x20 PUSH3 0x6CC PUSH1 0x20 SHL PUSH3 0x117D OR PUSH1 0x20 SHR JUMP JUMPDEST PUSH1 0x40 MLOAD PUSH1 0x20 ADD PUSH3 0x646 SWAP3 SWAP2 SWAP1 PUSH3 0x1369 JUMP JUMPDEST PUSH1 0x40 MLOAD PUSH1 0x20 DUP2 DUP4 SUB SUB DUP2 MSTORE SWAP1 PUSH1 0x40 MSTORE PUSH1 0x40 MLOAD PUSH32 0x8C379A000000000000000000000000000000000000000000000000000000000 DUP2 MSTORE PUSH1 0x4 ADD PUSH3 0x68A SWAP2 SWAP1 PUSH3 0x13FD JUMP JUMPDEST PUSH1 0x40 MLOAD DUP1 SWAP2 SUB SWAP1 REVERT JUMPDEST POP POP JUMP JUMPDEST PUSH1 0x60 PUSH3 0x6C5 DUP3 PUSH20 0xFFFFFFFFFFFFFFFFFFFFFFFFFFFFFFFFFFFFFFFF AND PUSH1 0x14 PUSH1 0xFF AND PUSH3 0x6CC PUSH1 0x20 SHL PUSH1 0x20 SHR JUMP JUMPDEST SWAP1 POP SWAP2 SWAP1 POP JUMP JUMPDEST PUSH1 0x60 PUSH1 0x0 PUSH1 0x2 DUP4 PUSH1 0x2 PUSH3 0x6E1 SWAP2 SWAP1 PUSH3 0x107E JUMP JUMPDEST PUSH3 0x6ED SWAP2 SWAP1 PUSH3 0x10C9 JUMP JUMPDEST PUSH8 0xFFFFFFFFFFFFFFFF DUP2 GT ISZERO PUSH3 0x709 JUMPI PUSH3 0x708 PUSH3 0x9FA JUMP JUMPDEST JUMPDEST PUSH1 0x40 MLOAD SWAP1 DUP1 DUP3 MSTORE DUP1 PUSH1 0x1F ADD PUSH1 0x1F NOT AND PUSH1 0x20 ADD DUP3 ADD PUSH1 0x40 MSTORE DUP1 ISZERO PUSH3 0x73C JUMPI DUP2 PUSH1 0x20 ADD PUSH1 0x1 DUP3 MUL DUP1 CALLDATASIZE DUP4 CALLDATACOPY DUP1 DUP3 ADD SWAP2 POP POP SWAP1 POP JUMPDEST POP SWAP1 POP PUSH32 0x3000000000000000000000000000000000000000000000000000000000000000 DUP2 PUSH1 0x0 DUP2 MLOAD DUP2 LT PUSH3 0x777 JUMPI PUSH3 0x776 PUSH3 0x1421 JUMP JUMPDEST JUMPDEST PUSH1 0x20 ADD ADD SWAP1 PUSH31 0xFFFFFFFFFFFFFFFFFFFFFFFFFFFFFFFFFFFFFFFFFFFFFFFFFFFFFFFFFFFFFF NOT AND SWAP1 DUP2 PUSH1 0x0 BYTE SWAP1 MSTORE8 POP PUSH32 0x7800000000000000000000000000000000000000000000000000000000000000 DUP2 PUSH1 0x1 DUP2 MLOAD DUP2 LT PUSH3 0x7DE JUMPI PUSH3 0x7DD PUSH3 0x1421 JUMP JUMPDEST JUMPDEST PUSH1 0x20 ADD ADD SWAP1 PUSH31 0xFFFFFFFFFFFFFFFFFFFFFFFFFFFFFFFFFFFFFFFFFFFFFFFFFFFFFFFFFFFFFF NOT AND SWAP1 DUP2 PUSH1 0x0 BYTE SWAP1 MSTORE8 POP PUSH1 0x0 PUSH1 0x1 DUP5 PUSH1 0x2 PUSH3 0x820 SWAP2 SWAP1 PUSH3 0x107E JUMP JUMPDEST PUSH3 0x82C SWAP2 SWAP1 PUSH3 0x10C9 JUMP JUMPDEST SWAP1 POP JUMPDEST PUSH1 0x1 DUP2 GT ISZERO PUSH3 0x8D6 JUMPI PUSH32 0x3031323334353637383961626364656600000000000000000000000000000000 PUSH1 0xF DUP7 AND PUSH1 0x10 DUP2 LT PUSH3 0x872 JUMPI PUSH3 0x871 PUSH3 0x1421 JUMP JUMPDEST JUMPDEST BYTE PUSH1 0xF8 SHL DUP3 DUP3 DUP2 MLOAD DUP2 LT PUSH3 0x88C JUMPI PUSH3 0x88B PUSH3 0x1421 JUMP JUMPDEST JUMPDEST PUSH1 0x20 ADD ADD SWAP1 PUSH31 0xFFFFFFFFFFFFFFFFFFFFFFFFFFFFFFFFFFFFFFFFFFFFFFFFFFFFFFFFFFFFFF NOT AND SWAP1 DUP2 PUSH1 0x0 BYTE SWAP1 MSTORE8 POP PUSH1 0x4 DUP6 SWAP1 SHR SWAP5 POP DUP1 PUSH3 0x8CE SWAP1 PUSH3 0x1450 JUMP JUMPDEST SWAP1 POP PUSH3 0x82F JUMP JUMPDEST POP PUSH1 0x0 DUP5 EQ PUSH3 0x91D JUMPI PUSH1 0x40 MLOAD PUSH32 0x8C379A000000000000000000000000000000000000000000000000000000000 DUP2 MSTORE PUSH1 0x4 ADD PUSH3 0x914 SWAP1 PUSH3 0x14CE JUMP JUMPDEST PUSH1 0x40 MLOAD DUP1 SWAP2 SUB SWAP1 REVERT JUMPDEST DUP1 SWAP2 POP POP SWAP3 SWAP2 POP POP JUMP JUMPDEST PUSH1 0x0 DUP1 REVERT JUMPDEST PUSH1 0x0 DUP2 SWAP1 POP SWAP2 SWAP1 POP JUMP JUMPDEST PUSH3 0x941 DUP2 PUSH3 0x92C JUMP JUMPDEST DUP2 EQ PUSH3 0x94D JUMPI PUSH1 0x0 DUP1 REVERT JUMPDEST POP JUMP JUMPDEST PUSH1 0x0 DUP2 MLOAD SWAP1 POP PUSH3 0x961 DUP2 PUSH3 0x936 JUMP JUMPDEST SWAP3 SWAP2 POP POP JUMP JUMPDEST PUSH1 0x0 DUP1 PUSH1 0x0 DUP1 PUSH1 0x0 PUSH1 0xA0 DUP7 DUP9 SUB SLT ISZERO PUSH3 0x986 JUMPI PUSH3 0x985 PUSH3 0x927 JUMP JUMPDEST JUMPDEST PUSH1 0x0 PUSH3 0x996 DUP9 DUP3 DUP10 ADD PUSH3 0x950 JUMP JUMPDEST SWAP6 POP POP PUSH1 0x20 PUSH3 0x9A9 DUP9 DUP3 DUP10 ADD PUSH3 0x950 JUMP JUMPDEST SWAP5 POP POP PUSH1 0x40 PUSH3 0x9BC DUP9 DUP3 DUP10 ADD PUSH3 0x950 JUMP JUMPDEST SWAP4 POP POP PUSH1 0x60 PUSH3 0x9CF DUP9 DUP3 DUP10 ADD PUSH3 0x950 JUMP JUMPDEST SWAP3 POP POP PUSH1 0x80 PUSH3 0x9E2 DUP9 DUP3 DUP10 ADD PUSH3 0x950 JUMP JUMPDEST SWAP2 POP POP SWAP3 SWAP6 POP SWAP3 SWAP6 SWAP1 SWAP4 POP JUMP JUMPDEST PUSH1 0x0 DUP2 MLOAD SWAP1 POP SWAP2 SWAP1 POP JUMP JUMPDEST PUSH32 0x4E487B7100000000000000000000000000000000000000000000000000000000 PUSH1 0x0 MSTORE PUSH1 0x41 PUSH1 0x4 MSTORE PUSH1 0x24 PUSH1 0x0 REVERT JUMPDEST PUSH32 0x4E487B7100000000000000000000000000000000000000000000000000000000 PUSH1 0x0 MSTORE PUSH1 0x22 PUSH1 0x4 MSTORE PUSH1 0x24 PUSH1 0x0 REVERT JUMPDEST PUSH1 0x0 PUSH1 0x2 DUP3 DIV SWAP1 POP PUSH1 0x1 DUP3 AND DUP1 PUSH3 0xA71 JUMPI PUSH1 0x7F DUP3 AND SWAP2 POP JUMPDEST PUSH1 0x20 DUP3 LT DUP2 SUB PUSH3 0xA87 JUMPI PUSH3 0xA86 PUSH3 0xA29 JUMP JUMPDEST JUMPDEST POP SWAP2 SWAP1 POP JUMP JUMPDEST PUSH1 0x0 DUP2 SWAP1 POP DUP2 PUSH1 0x0 MSTORE PUSH1 0x20 PUSH1 0x0 KECCAK256 SWAP1 POP SWAP2 SWAP1 POP JUMP JUMPDEST PUSH1 0x0 PUSH1 0x20 PUSH1 0x1F DUP4 ADD DIV SWAP1 POP SWAP2 SWAP1 POP JUMP JUMPDEST PUSH1 0x0 DUP3 DUP3 SHL SWAP1 POP SWAP3 SWAP2 POP POP JUMP JUMPDEST PUSH1 0x0 PUSH1 0x8 DUP4 MUL PUSH3 0xAF1 PUSH32 0xFFFFFFFFFFFFFFFFFFFFFFFFFFFFFFFFFFFFFFFFFFFFFFFFFFFFFFFFFFFFFFFF DUP3 PUSH3 0xAB2 JUMP JUMPDEST PUSH3 0xAFD DUP7 DUP4 PUSH3 0xAB2 JUMP JUMPDEST SWAP6 POP DUP1 NOT DUP5 AND SWAP4 POP DUP1 DUP7 AND DUP5 OR SWAP3 POP POP POP SWAP4 SWAP3 POP POP POP JUMP JUMPDEST PUSH1 0x0 DUP2 SWAP1 POP SWAP2 SWAP1 POP JUMP JUMPDEST PUSH1 0x0 PUSH3 0xB40 PUSH3 0xB3A PUSH3 0xB34 DUP5 PUSH3 0x92C JUMP JUMPDEST PUSH3 0xB15 JUMP JUMPDEST PUSH3 0x92C JUMP JUMPDEST SWAP1 POP SWAP2 SWAP1 POP JUMP JUMPDEST PUSH1 0x0 DUP2 SWAP1 POP SWAP2 SWAP1 POP JUMP JUMPDEST PUSH3 0xB5C DUP4 PUSH3 0xB1F JUMP JUMPDEST PUSH3 0xB74 PUSH3 0xB6B DUP3 PUSH3 0xB47 JUMP JUMPDEST DUP5 DUP5 SLOAD PUSH3 0xABF JUMP JUMPDEST DUP3 SSTORE POP POP POP POP JUMP JUMPDEST PUSH1 0x0 SWAP1 JUMP JUMPDEST PUSH3 0xB8B PUSH3 0xB7C JUMP JUMPDEST PUSH3 0xB98 DUP2 DUP5 DUP5 PUSH3 0xB51 JUMP JUMPDEST POP POP POP JUMP JUMPDEST JUMPDEST DUP2 DUP2 LT ISZERO PUSH3 0xBC0 JUMPI PUSH3 0xBB4 PUSH1 0x0 DUP3 PUSH3 0xB81 JUMP JUMPDEST PUSH1 0x1 DUP2 ADD SWAP1 POP PUSH3 0xB9E JUMP JUMPDEST POP POP JUMP JUMPDEST PUSH1 0x1F DUP3 GT ISZERO PUSH3 0xC0F JUMPI PUSH3 0xBD9 DUP2 PUSH3 0xA8D JUMP JUMPDEST PUSH3 0xBE4 DUP5 PUSH3 0xAA2 JUMP JUMPDEST DUP2 ADD PUSH1 0x20 DUP6 LT ISZERO PUSH3 0xBF4 JUMPI DUP2 SWAP1 POP JUMPDEST PUSH3 0xC0C PUSH3 0xC03 DUP6 PUSH3 0xAA2 JUMP JUMPDEST DUP4 ADD DUP3 PUSH3 0xB9D JUMP JUMPDEST POP POP JUMPDEST POP POP POP JUMP JUMPDEST PUSH1 0x0 DUP3 DUP3 SHR SWAP1 POP SWAP3 SWAP2 POP POP JUMP JUMPDEST PUSH1 0x0 PUSH3 0xC34 PUSH1 0x0 NOT DUP5 PUSH1 0x8 MUL PUSH3 0xC14 JUMP JUMPDEST NOT DUP1 DUP4 AND SWAP2 POP POP SWAP3 SWAP2 POP POP JUMP JUMPDEST PUSH1 0x0 PUSH3 0xC4F DUP4 DUP4 PUSH3 0xC21 JUMP JUMPDEST SWAP2 POP DUP3 PUSH1 0x2 MUL DUP3 OR SWAP1 POP SWAP3 SWAP2 POP POP JUMP JUMPDEST PUSH3 0xC6A DUP3 PUSH3 0x9EF JUMP JUMPDEST PUSH8 0xFFFFFFFFFFFFFFFF DUP2 GT ISZERO PUSH3 0xC86 JUMPI PUSH3 0xC85 PUSH3 0x9FA JUMP JUMPDEST JUMPDEST PUSH3 0xC92 DUP3 SLOAD PUSH3 0xA58 JUMP JUMPDEST PUSH3 0xC9F DUP3 DUP3 DUP6 PUSH3 0xBC4 JUMP JUMPDEST PUSH1 0x0 PUSH1 0x20 SWAP1 POP PUSH1 0x1F DUP4 GT PUSH1 0x1 DUP2 EQ PUSH3 0xCD7 JUMPI PUSH1 0x0 DUP5 ISZERO PUSH3 0xCC2 JUMPI DUP3 DUP8 ADD MLOAD SWAP1 POP JUMPDEST PUSH3 0xCCE DUP6 DUP3 PUSH3 0xC41 JUMP JUMPDEST DUP7 SSTORE POP PUSH3 0xD3E JUMP JUMPDEST PUSH1 0x1F NOT DUP5 AND PUSH3 0xCE7 DUP7 PUSH3 0xA8D JUMP JUMPDEST PUSH1 0x0 JUMPDEST DUP3 DUP2 LT ISZERO PUSH3 0xD11 JUMPI DUP5 DUP10 ADD MLOAD DUP3 SSTORE PUSH1 0x1 DUP3 ADD SWAP2 POP PUSH1 0x20 DUP6 ADD SWAP5 POP PUSH1 0x20 DUP2 ADD SWAP1 POP PUSH3 0xCEA JUMP JUMPDEST DUP7 DUP4 LT ISZERO PUSH3 0xD31 JUMPI DUP5 DUP10 ADD MLOAD PUSH3 0xD2D PUSH1 0x1F DUP10 AND DUP3 PUSH3 0xC21 JUMP JUMPDEST DUP4 SSTORE POP JUMPDEST PUSH1 0x1 PUSH1 0x2 DUP9 MUL ADD DUP9 SSTORE POP POP POP JUMPDEST POP POP POP POP POP POP JUMP JUMPDEST PUSH1 0x0 DUP3 DUP3 MSTORE PUSH1 0x20 DUP3 ADD SWAP1 POP SWAP3 SWAP2 POP POP JUMP JUMPDEST PUSH32 0x746F74616C20737570706C79206D757374206265206772656174657220746861 PUSH1 0x0 DUP3 ADD MSTORE PUSH32 0x6E207A65726F7300000000000000000000000000000000000000000000000000 PUSH1 0x20 DUP3 ADD MSTORE POP JUMP JUMPDEST PUSH1 0x0 PUSH3 0xDB5 PUSH1 0x27 DUP4 PUSH3 0xD46 JUMP JUMPDEST SWAP2 POP PUSH3 0xDC2 DUP3 PUSH3 0xD57 JUMP JUMPDEST PUSH1 0x40 DUP3 ADD SWAP1 POP SWAP2 SWAP1 POP JUMP JUMPDEST PUSH1 0x0 PUSH1 0x20 DUP3 ADD SWAP1 POP DUP2 DUP2 SUB PUSH1 0x0 DUP4 ADD MSTORE PUSH3 0xDE8 DUP2 PUSH3 0xDA6 JUMP JUMPDEST SWAP1 POP SWAP2 SWAP1 POP JUMP JUMPDEST PUSH32 0x6D696E74207072696365206D7573742062652067726561746572207468616E20 PUSH1 0x0 DUP3 ADD MSTORE PUSH32 0x7A65726F00000000000000000000000000000000000000000000000000000000 PUSH1 0x20 DUP3 ADD MSTORE POP JUMP JUMPDEST PUSH1 0x0 PUSH3 0xE4D PUSH1 0x24 DUP4 PUSH3 0xD46 JUMP JUMPDEST SWAP2 POP PUSH3 0xE5A DUP3 PUSH3 0xDEF JUMP JUMPDEST PUSH1 0x40 DUP3 ADD SWAP1 POP SWAP2 SWAP1 POP JUMP JUMPDEST PUSH1 0x0 PUSH1 0x20 DUP3 ADD SWAP1 POP DUP2 DUP2 SUB PUSH1 0x0 DUP4 ADD MSTORE PUSH3 0xE80 DUP2 PUSH3 0xE3E JUMP JUMPDEST SWAP1 POP SWAP2 SWAP1 POP JUMP JUMPDEST PUSH32 0x6D696E742073746172742074696D65206D757374206265206772656174657220 PUSH1 0x0 DUP3 ADD MSTORE PUSH32 0x7468616E2063757272656E742074696D65000000000000000000000000000000 PUSH1 0x20 DUP3 ADD MSTORE POP JUMP JUMPDEST PUSH1 0x0 PUSH3 0xEE5 PUSH1 0x31 DUP4 PUSH3 0xD46 JUMP JUMPDEST SWAP2 POP PUSH3 0xEF2 DUP3 PUSH3 0xE87 JUMP JUMPDEST PUSH1 0x40 DUP3 ADD SWAP1 POP SWAP2 SWAP1 POP JUMP JUMPDEST PUSH1 0x0 PUSH1 0x20 DUP3 ADD SWAP1 POP DUP2 DUP2 SUB PUSH1 0x0 DUP4 ADD MSTORE PUSH3 0xF18 DUP2 PUSH3 0xED6 JUMP JUMPDEST SWAP1 POP SWAP2 SWAP1 POP JUMP JUMPDEST PUSH32 0x70726573616C65206D7573742062652067726561746572207468616E207A6572 PUSH1 0x0 DUP3 ADD MSTORE PUSH32 0x6F00000000000000000000000000000000000000000000000000000000000000 PUSH1 0x20 DUP3 ADD MSTORE POP JUMP JUMPDEST PUSH1 0x0 PUSH3 0xF7D PUSH1 0x21 DUP4 PUSH3 0xD46 JUMP JUMPDEST SWAP2 POP PUSH3 0xF8A DUP3 PUSH3 0xF1F JUMP JUMPDEST PUSH1 0x40 DUP3 ADD SWAP1 POP SWAP2 SWAP1 POP JUMP JUMPDEST PUSH1 0x0 PUSH1 0x20 DUP3 ADD SWAP1 POP DUP2 DUP2 SUB PUSH1 0x0 DUP4 ADD MSTORE PUSH3 0xFB0 DUP2 PUSH3 0xF6E JUMP JUMPDEST SWAP1 POP SWAP2 SWAP1 POP JUMP JUMPDEST PUSH32 0x7075626C696373616C65206D7573742062652067726561746572207468616E20 PUSH1 0x0 DUP3 ADD MSTORE PUSH32 0x7A65726F00000000000000000000000000000000000000000000000000000000 PUSH1 0x20 DUP3 ADD MSTORE POP JUMP JUMPDEST PUSH1 0x0 PUSH3 0x1015 PUSH1 0x24 DUP4 PUSH3 0xD46 JUMP JUMPDEST SWAP2 POP PUSH3 0x1022 DUP3 PUSH3 0xFB7 JUMP JUMPDEST PUSH1 0x40 DUP3 ADD SWAP1 POP SWAP2 SWAP1 POP JUMP JUMPDEST PUSH1 0x0 PUSH1 0x20 DUP3 ADD SWAP1 POP DUP2 DUP2 SUB PUSH1 0x0 DUP4 ADD MSTORE PUSH3 0x1048 DUP2 PUSH3 0x1006 JUMP JUMPDEST SWAP1 POP SWAP2 SWAP1 POP JUMP JUMPDEST PUSH32 0x4E487B7100000000000000000000000000000000000000000000000000000000 PUSH1 0x0 MSTORE PUSH1 0x11 PUSH1 0x4 MSTORE PUSH1 0x24 PUSH1 0x0 REVERT JUMPDEST PUSH1 0x0 PUSH3 0x108B DUP3 PUSH3 0x92C JUMP JUMPDEST SWAP2 POP PUSH3 0x1098 DUP4 PUSH3 0x92C JUMP JUMPDEST SWAP3 POP DUP3 DUP3 MUL PUSH3 0x10A8 DUP2 PUSH3 0x92C JUMP JUMPDEST SWAP2 POP DUP3 DUP3 DIV DUP5 EQ DUP4 ISZERO OR PUSH3 0x10C2 JUMPI PUSH3 0x10C1 PUSH3 0x104F JUMP JUMPDEST JUMPDEST POP SWAP3 SWAP2 POP POP JUMP JUMPDEST PUSH1 0x0 PUSH3 0x10D6 DUP3 PUSH3 0x92C JUMP JUMPDEST SWAP2 POP PUSH3 0x10E3 DUP4 PUSH3 0x92C JUMP JUMPDEST SWAP3 POP DUP3 DUP3 ADD SWAP1 POP DUP1 DUP3 GT ISZERO PUSH3 0x10FE JUMPI PUSH3 0x10FD PUSH3 0x104F JUMP JUMPDEST JUMPDEST SWAP3 SWAP2 POP POP JUMP JUMPDEST PUSH1 0x0 PUSH3 0x1111 DUP3 PUSH3 0x92C JUMP JUMPDEST SWAP2 POP PUSH32 0xFFFFFFFFFFFFFFFFFFFFFFFFFFFFFFFFFFFFFFFFFFFFFFFFFFFFFFFFFFFFFFFF DUP3 SUB PUSH3 0x1146 JUMPI PUSH3 0x1145 PUSH3 0x104F JUMP JUMPDEST JUMPDEST PUSH1 0x1 DUP3 ADD SWAP1 POP SWAP2 SWAP1 POP JUMP JUMPDEST PUSH1 0x0 PUSH3 0x115E DUP3 PUSH3 0x92C JUMP JUMPDEST SWAP2 POP PUSH3 0x116B DUP4 PUSH3 0x92C JUMP JUMPDEST SWAP3 POP DUP3 DUP3 SUB SWAP1 POP DUP2 DUP2 GT ISZERO PUSH3 0x1186 JUMPI PUSH3 0x1185 PUSH3 0x104F JUMP JUMPDEST JUMPDEST SWAP3 SWAP2 POP POP JUMP JUMPDEST PUSH1 0x0 DUP2 SWAP1 POP SWAP2 SWAP1 POP JUMP JUMPDEST PUSH3 0x11AB PUSH3 0x11A5 DUP3 PUSH3 0x92C JUMP JUMPDEST PUSH3 0x118C JUMP JUMPDEST DUP3 MSTORE POP POP JUMP JUMPDEST PUSH1 0x0 PUSH3 0x11BF DUP3 DUP7 PUSH3 0x1196 JUMP JUMPDEST PUSH1 0x20 DUP3 ADD SWAP2 POP PUSH3 0x11D1 DUP3 DUP6 PUSH3 0x1196 JUMP JUMPDEST PUSH1 0x20 DUP3 ADD SWAP2 POP PUSH3 0x11E3 DUP3 DUP5 PUSH3 0x1196 JUMP JUMPDEST PUSH1 0x20 DUP3 ADD SWAP2 POP DUP2 SWAP1 POP SWAP5 SWAP4 POP POP POP POP JUMP JUMPDEST PUSH32 0x4E487B7100000000000000000000000000000000000000000000000000000000 PUSH1 0x0 MSTORE PUSH1 0x12 PUSH1 0x4 MSTORE PUSH1 0x24 PUSH1 0x0 REVERT JUMPDEST PUSH1 0x0 PUSH3 0x1230 DUP3 PUSH3 0x92C JUMP JUMPDEST SWAP2 POP PUSH3 0x123D DUP4 PUSH3 0x92C JUMP JUMPDEST SWAP3 POP DUP3 PUSH3 0x1250 JUMPI PUSH3 0x124F PUSH3 0x11F4 JUMP JUMPDEST JUMPDEST DUP3 DUP3 MOD SWAP1 POP SWAP3 SWAP2 POP POP JUMP JUMPDEST PUSH1 0x0 DUP2 SWAP1 POP SWAP3 SWAP2 POP POP JUMP JUMPDEST PUSH32 0x416363657373436F6E74726F6C3A206163636F756E7420000000000000000000 PUSH1 0x0 DUP3 ADD MSTORE POP JUMP JUMPDEST PUSH1 0x0 PUSH3 0x129E PUSH1 0x17 DUP4 PUSH3 0x125B JUMP JUMPDEST SWAP2 POP PUSH3 0x12AB DUP3 PUSH3 0x1266 JUMP JUMPDEST PUSH1 0x17 DUP3 ADD SWAP1 POP SWAP2 SWAP1 POP JUMP JUMPDEST PUSH1 0x0 JUMPDEST DUP4 DUP2 LT ISZERO PUSH3 0x12D6 JUMPI DUP1 DUP3 ADD MLOAD DUP2 DUP5 ADD MSTORE PUSH1 0x20 DUP2 ADD SWAP1 POP PUSH3 0x12B9 JUMP JUMPDEST PUSH1 0x0 DUP5 DUP5 ADD MSTORE POP POP POP POP JUMP JUMPDEST PUSH1 0x0 PUSH3 0x12EF DUP3 PUSH3 0x9EF JUMP JUMPDEST PUSH3 0x12FB DUP2 DUP6 PUSH3 0x125B JUMP JUMPDEST SWAP4 POP PUSH3 0x130D DUP2 DUP6 PUSH1 0x20 DUP7 ADD PUSH3 0x12B6 JUMP JUMPDEST DUP1 DUP5 ADD SWAP2 POP POP SWAP3 SWAP2 POP POP JUMP JUMPDEST PUSH32 0x206973206D697373696E6720726F6C6520000000000000000000000000000000 PUSH1 0x0 DUP3 ADD MSTORE POP JUMP JUMPDEST PUSH1 0x0 PUSH3 0x1351 PUSH1 0x11 DUP4 PUSH3 0x125B JUMP JUMPDEST SWAP2 POP PUSH3 0x135E DUP3 PUSH3 0x1319 JUMP JUMPDEST PUSH1 0x11 DUP3 ADD SWAP1 POP SWAP2 SWAP1 POP JUMP JUMPDEST PUSH1 0x0 PUSH3 0x1376 DUP3 PUSH3 0x128F JUMP JUMPDEST SWAP2 POP PUSH3 0x1384 DUP3 DUP6 PUSH3 0x12E2 JUMP JUMPDEST SWAP2 POP PUSH3 0x1391 DUP3 PUSH3 0x1342 JUMP JUMPDEST SWAP2 POP PUSH3 0x139F DUP3 DUP5 PUSH3 0x12E2 JUMP JUMPDEST SWAP2 POP DUP2 SWAP1 POP SWAP4 SWAP3 POP POP POP JUMP JUMPDEST PUSH1 0x0 PUSH1 0x1F NOT PUSH1 0x1F DUP4 ADD AND SWAP1 POP SWAP2 SWAP1 POP JUMP JUMPDEST PUSH1 0x0 PUSH3 0x13C9 DUP3 PUSH3 0x9EF JUMP JUMPDEST PUSH3 0x13D5 DUP2 DUP6 PUSH3 0xD46 JUMP JUMPDEST SWAP4 POP PUSH3 0x13E7 DUP2 DUP6 PUSH1 0x20 DUP7 ADD PUSH3 0x12B6 JUMP JUMPDEST PUSH3 0x13F2 DUP2 PUSH3 0x13AB JUMP JUMPDEST DUP5 ADD SWAP2 POP POP SWAP3 SWAP2 POP POP JUMP JUMPDEST PUSH1 0x0 PUSH1 0x20 DUP3 ADD SWAP1 POP DUP2 DUP2 SUB PUSH1 0x0 DUP4 ADD MSTORE PUSH3 0x1419 DUP2 DUP5 PUSH3 0x13BC JUMP JUMPDEST SWAP1 POP SWAP3 SWAP2 POP POP JUMP JUMPDEST PUSH32 0x4E487B7100000000000000000000000000000000000000000000000000000000 PUSH1 0x0 MSTORE PUSH1 0x32 PUSH1 0x4 MSTORE PUSH1 0x24 PUSH1 0x0 REVERT JUMPDEST PUSH1 0x0 PUSH3 0x145D DUP3 PUSH3 0x92C JUMP JUMPDEST SWAP2 POP PUSH1 0x0 DUP3 SUB PUSH3 0x1473 JUMPI PUSH3 0x1472 PUSH3 0x104F JUMP JUMPDEST JUMPDEST PUSH1 0x1 DUP3 SUB SWAP1 POP SWAP2 SWAP1 POP JUMP JUMPDEST PUSH32 0x537472696E67733A20686578206C656E67746820696E73756666696369656E74 PUSH1 0x0 DUP3 ADD MSTORE POP JUMP JUMPDEST PUSH1 0x0 PUSH3 0x14B6 PUSH1 0x20 DUP4 PUSH3 0xD46 JUMP JUMPDEST SWAP2 POP PUSH3 0x14C3 DUP3 PUSH3 0x147E JUMP JUMPDEST PUSH1 0x20 DUP3 ADD SWAP1 POP SWAP2 SWAP1 POP JUMP JUMPDEST PUSH1 0x0 PUSH1 0x20 DUP3 ADD SWAP1 POP DUP2 DUP2 SUB PUSH1 0x0 DUP4 ADD MSTORE PUSH3 0x14E9 DUP2 PUSH3 0x14A7 JUMP JUMPDEST SWAP1 POP SWAP2 SWAP1 POP JUMP JUMPDEST PUSH2 0x424C DUP1 PUSH3 0x1500 PUSH1 0x0 CODECOPY PUSH1 0x0 RETURN INVALID PUSH1 0x80 PUSH1 0x40 MSTORE PUSH1 0x4 CALLDATASIZE LT PUSH2 0x1B7 JUMPI PUSH1 0x0 CALLDATALOAD PUSH1 0xE0 SHR DUP1 PUSH4 0x6871EE40 GT PUSH2 0xEC JUMPI DUP1 PUSH4 0xB88D4FDE GT PUSH2 0x8A JUMPI DUP1 PUSH4 0xD5391393 GT PUSH2 0x64 JUMPI DUP1 PUSH4 0xD5391393 EQ PUSH2 0x5E9 JUMPI DUP1 PUSH4 0xD547741F EQ PUSH2 0x614 JUMPI DUP1 PUSH4 0xE985E9C5 EQ PUSH2 0x63D JUMPI DUP1 PUSH4 0xF81094F3 EQ PUSH2 0x67A JUMPI PUSH2 0x1B7 JUMP JUMPDEST DUP1 PUSH4 0xB88D4FDE EQ PUSH2 0x55A JUMPI DUP1 PUSH4 0xC2E3273D EQ PUSH2 0x583 JUMPI DUP1 PUSH4 0xC87B56DD EQ PUSH2 0x5AC JUMPI PUSH2 0x1B7 JUMP JUMPDEST DUP1 PUSH4 0x95D89B41 GT PUSH2 0xC6 JUMPI DUP1 PUSH4 0x95D89B41 EQ PUSH2 0x4C4 JUMPI DUP1 PUSH4 0x9975038C EQ PUSH2 0x4EF JUMPI DUP1 PUSH4 0xA217FDDF EQ PUSH2 0x506 JUMPI DUP1 PUSH4 0xA22CB465 EQ PUSH2 0x531 JUMPI PUSH2 0x1B7 JUMP JUMPDEST DUP1 PUSH4 0x6871EE40 EQ PUSH2 0x440 JUMPI DUP1 PUSH4 0x70A08231 EQ PUSH2 0x44A JUMPI DUP1 PUSH4 0x91D14854 EQ PUSH2 0x487 JUMPI PUSH2 0x1B7 JUMP JUMPDEST DUP1 PUSH4 0x23B872DD GT PUSH2 0x159 JUMPI DUP1 PUSH4 0x36568ABE GT PUSH2 0x133 JUMPI DUP1 PUSH4 0x36568ABE EQ PUSH2 0x39A JUMPI DUP1 PUSH4 0x42842E0E EQ PUSH2 0x3C3 JUMPI DUP1 PUSH4 0x44DF8E70 EQ PUSH2 0x3EC JUMPI DUP1 PUSH4 0x6352211E EQ PUSH2 0x403 JUMPI PUSH2 0x1B7 JUMP JUMPDEST DUP1 PUSH4 0x23B872DD EQ PUSH2 0x30B JUMPI DUP1 PUSH4 0x248A9CA3 EQ PUSH2 0x334 JUMPI DUP1 PUSH4 0x2F2FF15D EQ PUSH2 0x371 JUMPI PUSH2 0x1B7 JUMP JUMPDEST DUP1 PUSH4 0x95EA7B3 GT PUSH2 0x195 JUMPI DUP1 PUSH4 0x95EA7B3 EQ PUSH2 0x261 JUMPI DUP1 PUSH4 0xFF95BC5 EQ PUSH2 0x28A JUMPI DUP1 PUSH4 0x1249C58B EQ PUSH2 0x2B3 JUMPI DUP1 PUSH4 0x18160DDD EQ PUSH2 0x2E0 JUMPI PUSH2 0x1B7 JUMP JUMPDEST DUP1 PUSH4 0x1FFC9A7 EQ PUSH2 0x1BC JUMPI DUP1 PUSH4 0x6FDDE03 EQ PUSH2 0x1F9 JUMPI DUP1 PUSH4 0x81812FC EQ PUSH2 0x224 JUMPI JUMPDEST PUSH1 0x0 DUP1 REVERT JUMPDEST CALLVALUE DUP1 ISZERO PUSH2 0x1C8 JUMPI PUSH1 0x0 DUP1 REVERT JUMPDEST POP PUSH2 0x1E3 PUSH1 0x4 DUP1 CALLDATASIZE SUB DUP2 ADD SWAP1 PUSH2 0x1DE SWAP2 SWAP1 PUSH2 0x2A68 JUMP JUMPDEST PUSH2 0x6A3 JUMP JUMPDEST PUSH1 0x40 MLOAD PUSH2 0x1F0 SWAP2 SWAP1 PUSH2 0x2AB0 JUMP JUMPDEST PUSH1 0x40 MLOAD DUP1 SWAP2 SUB SWAP1 RETURN JUMPDEST CALLVALUE DUP1 ISZERO PUSH2 0x205 JUMPI PUSH1 0x0 DUP1 REVERT JUMPDEST POP PUSH2 0x20E PUSH2 0x6B5 JUMP JUMPDEST PUSH1 0x40 MLOAD PUSH2 0x21B SWAP2 SWAP1 PUSH2 0x2B5B JUMP JUMPDEST PUSH1 0x40 MLOAD DUP1 SWAP2 SUB SWAP1 RETURN JUMPDEST CALLVALUE DUP1 ISZERO PUSH2 0x230 JUMPI PUSH1 0x0 DUP1 REVERT JUMPDEST POP PUSH2 0x24B PUSH1 0x4 DUP1 CALLDATASIZE SUB DUP2 ADD SWAP1 PUSH2 0x246 SWAP2 SWAP1 PUSH2 0x2BB3 JUMP JUMPDEST PUSH2 0x747 JUMP JUMPDEST PUSH1 0x40 MLOAD PUSH2 0x258 SWAP2 SWAP1 PUSH2 0x2C21 JUMP JUMPDEST PUSH1 0x40 MLOAD DUP1 SWAP2 SUB SWAP1 RETURN JUMPDEST CALLVALUE DUP1 ISZERO PUSH2 0x26D JUMPI PUSH1 0x0 DUP1 REVERT JUMPDEST POP PUSH2 0x288 PUSH1 0x4 DUP1 CALLDATASIZE SUB DUP2 ADD SWAP1 PUSH2 0x283 SWAP2 SWAP1 PUSH2 0x2C68 JUMP JUMPDEST PUSH2 0x78D JUMP JUMPDEST STOP JUMPDEST CALLVALUE DUP1 ISZERO PUSH2 0x296 JUMPI PUSH1 0x0 DUP1 REVERT JUMPDEST POP PUSH2 0x2B1 PUSH1 0x4 DUP1 CALLDATASIZE SUB DUP2 ADD SWAP1 PUSH2 0x2AC SWAP2 SWAP1 PUSH2 0x2CA8 JUMP JUMPDEST PUSH2 0x8A4 JUMP JUMPDEST STOP JUMPDEST CALLVALUE DUP1 ISZERO PUSH2 0x2BF JUMPI PUSH1 0x0 DUP1 REVERT JUMPDEST POP PUSH2 0x2C8 PUSH2 0x8D3 JUMP JUMPDEST PUSH1 0x40 MLOAD PUSH2 0x2D7 SWAP4 SWAP3 SWAP2 SWAP1 PUSH2 0x2D5B JUMP JUMPDEST PUSH1 0x40 MLOAD DUP1 SWAP2 SUB SWAP1 RETURN JUMPDEST CALLVALUE DUP1 ISZERO PUSH2 0x2EC JUMPI PUSH1 0x0 DUP1 REVERT JUMPDEST POP PUSH2 0x2F5 PUSH2 0x913 JUMP JUMPDEST PUSH1 0x40 MLOAD PUSH2 0x302 SWAP2 SWAP1 PUSH2 0x2D92 JUMP JUMPDEST PUSH1 0x40 MLOAD DUP1 SWAP2 SUB SWAP1 RETURN JUMPDEST CALLVALUE DUP1 ISZERO PUSH2 0x317 JUMPI PUSH1 0x0 DUP1 REVERT JUMPDEST POP PUSH2 0x332 PUSH1 0x4 DUP1 CALLDATASIZE SUB DUP2 ADD SWAP1 PUSH2 0x32D SWAP2 SWAP1 PUSH2 0x2DAD JUMP JUMPDEST PUSH2 0x919 JUMP JUMPDEST STOP JUMPDEST CALLVALUE DUP1 ISZERO PUSH2 0x340 JUMPI PUSH1 0x0 DUP1 REVERT JUMPDEST POP PUSH2 0x35B PUSH1 0x4 DUP1 CALLDATASIZE SUB DUP2 ADD SWAP1 PUSH2 0x356 SWAP2 SWAP1 PUSH2 0x2E36 JUMP JUMPDEST PUSH2 0x979 JUMP JUMPDEST PUSH1 0x40 MLOAD PUSH2 0x368 SWAP2 SWAP1 PUSH2 0x2E72 JUMP JUMPDEST PUSH1 0x40 MLOAD DUP1 SWAP2 SUB SWAP1 RETURN JUMPDEST CALLVALUE DUP1 ISZERO PUSH2 0x37D JUMPI PUSH1 0x0 DUP1 REVERT JUMPDEST POP PUSH2 0x398 PUSH1 0x4 DUP1 CALLDATASIZE SUB DUP2 ADD SWAP1 PUSH2 0x393 SWAP2 SWAP1 PUSH2 0x2E8D JUMP JUMPDEST PUSH2 0x999 JUMP JUMPDEST STOP JUMPDEST CALLVALUE DUP1 ISZERO PUSH2 0x3A6 JUMPI PUSH1 0x0 DUP1 REVERT JUMPDEST POP PUSH2 0x3C1 PUSH1 0x4 DUP1 CALLDATASIZE SUB DUP2 ADD SWAP1 PUSH2 0x3BC SWAP2 SWAP1 PUSH2 0x2E8D JUMP JUMPDEST PUSH2 0x9BA JUMP JUMPDEST STOP JUMPDEST CALLVALUE DUP1 ISZERO PUSH2 0x3CF JUMPI PUSH1 0x0 DUP1 REVERT JUMPDEST POP PUSH2 0x3EA PUSH1 0x4 DUP1 CALLDATASIZE SUB DUP2 ADD SWAP1 PUSH2 0x3E5 SWAP2 SWAP1 PUSH2 0x2DAD JUMP JUMPDEST PUSH2 0xA3D JUMP JUMPDEST STOP JUMPDEST CALLVALUE DUP1 ISZERO PUSH2 0x3F8 JUMPI PUSH1 0x0 DUP1 REVERT JUMPDEST POP PUSH2 0x401 PUSH2 0xA5D JUMP JUMPDEST STOP JUMPDEST CALLVALUE DUP1 ISZERO PUSH2 0x40F JUMPI PUSH1 0x0 DUP1 REVERT JUMPDEST POP PUSH2 0x42A PUSH1 0x4 DUP1 CALLDATASIZE SUB DUP2 ADD SWAP1 PUSH2 0x425 SWAP2 SWAP1 PUSH2 0x2BB3 JUMP JUMPDEST PUSH2 0xAF1 JUMP JUMPDEST PUSH1 0x40 MLOAD PUSH2 0x437 SWAP2 SWAP1 PUSH2 0x2C21 JUMP JUMPDEST PUSH1 0x40 MLOAD DUP1 SWAP2 SUB SWAP1 RETURN JUMPDEST PUSH2 0x448 PUSH2 0xB77 JUMP JUMPDEST STOP JUMPDEST CALLVALUE DUP1 ISZERO PUSH2 0x456 JUMPI PUSH1 0x0 DUP1 REVERT JUMPDEST POP PUSH2 0x471 PUSH1 0x4 DUP1 CALLDATASIZE SUB DUP2 ADD SWAP1 PUSH2 0x46C SWAP2 SWAP1 PUSH2 0x2ECD JUMP JUMPDEST PUSH2 0xCF8 JUMP JUMPDEST PUSH1 0x40 MLOAD PUSH2 0x47E SWAP2 SWAP1 PUSH2 0x2D92 JUMP JUMPDEST PUSH1 0x40 MLOAD DUP1 SWAP2 SUB SWAP1 RETURN JUMPDEST CALLVALUE DUP1 ISZERO PUSH2 0x493 JUMPI PUSH1 0x0 DUP1 REVERT JUMPDEST POP PUSH2 0x4AE PUSH1 0x4 DUP1 CALLDATASIZE SUB DUP2 ADD SWAP1 PUSH2 0x4A9 SWAP2 SWAP1 PUSH2 0x2E8D JUMP JUMPDEST PUSH2 0xDAF JUMP JUMPDEST PUSH1 0x40 MLOAD PUSH2 0x4BB SWAP2 SWAP1 PUSH2 0x2AB0 JUMP JUMPDEST PUSH1 0x40 MLOAD DUP1 SWAP2 SUB SWAP1 RETURN JUMPDEST CALLVALUE DUP1 ISZERO PUSH2 0x4D0 JUMPI PUSH1 0x0 DUP1 REVERT JUMPDEST POP PUSH2 0x4D9 PUSH2 0xE1A JUMP JUMPDEST PUSH1 0x40 MLOAD PUSH2 0x4E6 SWAP2 SWAP1 PUSH2 0x2B5B JUMP JUMPDEST PUSH1 0x40 MLOAD DUP1 SWAP2 SUB SWAP1 RETURN JUMPDEST CALLVALUE DUP1 ISZERO PUSH2 0x4FB JUMPI PUSH1 0x0 DUP1 REVERT JUMPDEST POP PUSH2 0x504 PUSH2 0xEAC JUMP JUMPDEST STOP JUMPDEST CALLVALUE DUP1 ISZERO PUSH2 0x512 JUMPI PUSH1 0x0 DUP1 REVERT JUMPDEST POP PUSH2 0x51B PUSH2 0xF36 JUMP JUMPDEST PUSH1 0x40 MLOAD PUSH2 0x528 SWAP2 SWAP1 PUSH2 0x2E72 JUMP JUMPDEST PUSH1 0x40 MLOAD DUP1 SWAP2 SUB SWAP1 RETURN JUMPDEST CALLVALUE DUP1 ISZERO PUSH2 0x53D JUMPI PUSH1 0x0 DUP1 REVERT JUMPDEST POP PUSH2 0x558 PUSH1 0x4 DUP1 CALLDATASIZE SUB DUP2 ADD SWAP1 PUSH2 0x553 SWAP2 SWAP1 PUSH2 0x2F26 JUMP JUMPDEST PUSH2 0xF3D JUMP JUMPDEST STOP JUMPDEST CALLVALUE DUP1 ISZERO PUSH2 0x566 JUMPI PUSH1 0x0 DUP1 REVERT JUMPDEST POP PUSH2 0x581 PUSH1 0x4 DUP1 CALLDATASIZE SUB DUP2 ADD SWAP1 PUSH2 0x57C SWAP2 SWAP1 PUSH2 0x309B JUMP JUMPDEST PUSH2 0xF53 JUMP JUMPDEST STOP JUMPDEST CALLVALUE DUP1 ISZERO PUSH2 0x58F JUMPI PUSH1 0x0 DUP1 REVERT JUMPDEST POP PUSH2 0x5AA PUSH1 0x4 DUP1 CALLDATASIZE SUB DUP2 ADD SWAP1 PUSH2 0x5A5 SWAP2 SWAP1 PUSH2 0x2ECD JUMP JUMPDEST PUSH2 0xFB5 JUMP JUMPDEST STOP JUMPDEST CALLVALUE DUP1 ISZERO PUSH2 0x5B8 JUMPI PUSH1 0x0 DUP1 REVERT JUMPDEST POP PUSH2 0x5D3 PUSH1 0x4 DUP1 CALLDATASIZE SUB DUP2 ADD SWAP1 PUSH2 0x5CE SWAP2 SWAP1 PUSH2 0x2BB3 JUMP JUMPDEST PUSH2 0xFE2 JUMP JUMPDEST PUSH1 0x40 MLOAD PUSH2 0x5E0 SWAP2 SWAP1 PUSH2 0x2B5B JUMP JUMPDEST PUSH1 0x40 MLOAD DUP1 SWAP2 SUB SWAP1 RETURN JUMPDEST CALLVALUE DUP1 ISZERO PUSH2 0x5F5 JUMPI PUSH1 0x0 DUP1 REVERT JUMPDEST POP PUSH2 0x5FE PUSH2 0x104A JUMP JUMPDEST PUSH1 0x40 MLOAD PUSH2 0x60B SWAP2 SWAP1 PUSH2 0x2E72 JUMP JUMPDEST PUSH1 0x40 MLOAD DUP1 SWAP2 SUB SWAP1 RETURN JUMPDEST CALLVALUE DUP1 ISZERO PUSH2 0x620 JUMPI PUSH1 0x0 DUP1 REVERT JUMPDEST POP PUSH2 0x63B PUSH1 0x4 DUP1 CALLDATASIZE SUB DUP2 ADD SWAP1 PUSH2 0x636 SWAP2 SWAP1 PUSH2 0x2E8D JUMP JUMPDEST PUSH2 0x106E JUMP JUMPDEST STOP JUMPDEST CALLVALUE DUP1 ISZERO PUSH2 0x649 JUMPI PUSH1 0x0 DUP1 REVERT JUMPDEST POP PUSH2 0x664 PUSH1 0x4 DUP1 CALLDATASIZE SUB DUP2 ADD SWAP1 PUSH2 0x65F SWAP2 SWAP1 PUSH2 0x311E JUMP JUMPDEST PUSH2 0x108F JUMP JUMPDEST PUSH1 0x40 MLOAD PUSH2 0x671 SWAP2 SWAP1 PUSH2 0x2AB0 JUMP JUMPDEST PUSH1 0x40 MLOAD DUP1 SWAP2 SUB SWAP1 RETURN JUMPDEST CALLVALUE DUP1 ISZERO PUSH2 0x686 JUMPI PUSH1 0x0 DUP1 REVERT JUMPDEST POP PUSH2 0x6A1 PUSH1 0x4 DUP1 CALLDATASIZE SUB DUP2 ADD SWAP1 PUSH2 0x69C SWAP2 SWAP1 PUSH2 0x2ECD JUMP JUMPDEST PUSH2 0x1123 JUMP JUMPDEST STOP JUMPDEST PUSH1 0x0 PUSH2 0x6AE DUP3 PUSH2 0x13B9 JUMP JUMPDEST SWAP1 POP SWAP2 SWAP1 POP JUMP JUMPDEST PUSH1 0x60 PUSH1 0x0 DUP1 SLOAD PUSH2 0x6C4 SWAP1 PUSH2 0x318D JUMP JUMPDEST DUP1 PUSH1 0x1F ADD PUSH1 0x20 DUP1 SWAP2 DIV MUL PUSH1 0x20 ADD PUSH1 0x40 MLOAD SWAP1 DUP2 ADD PUSH1 0x40 MSTORE DUP1 SWAP3 SWAP2 SWAP1 DUP2 DUP2 MSTORE PUSH1 0x20 ADD DUP3 DUP1 SLOAD PUSH2 0x6F0 SWAP1 PUSH2 0x318D JUMP JUMPDEST DUP1 ISZERO PUSH2 0x73D JUMPI DUP1 PUSH1 0x1F LT PUSH2 0x712 JUMPI PUSH2 0x100 DUP1 DUP4 SLOAD DIV MUL DUP4 MSTORE SWAP2 PUSH1 0x20 ADD SWAP2 PUSH2 0x73D JUMP JUMPDEST DUP3 ADD SWAP2 SWAP1 PUSH1 0x0 MSTORE PUSH1 0x20 PUSH1 0x0 KECCAK256 SWAP1 JUMPDEST DUP2 SLOAD DUP2 MSTORE SWAP1 PUSH1 0x1 ADD SWAP1 PUSH1 0x20 ADD DUP1 DUP4 GT PUSH2 0x720 JUMPI DUP3 SWAP1 SUB PUSH1 0x1F AND DUP3 ADD SWAP2 JUMPDEST POP POP POP POP POP SWAP1 POP SWAP1 JUMP JUMPDEST PUSH1 0x0 PUSH2 0x752 DUP3 PUSH2 0x1433 JUMP JUMPDEST PUSH1 0x4 PUSH1 0x0 DUP4 DUP2 MSTORE PUSH1 0x20 ADD SWAP1 DUP2 MSTORE PUSH1 0x20 ADD PUSH1 0x0 KECCAK256 PUSH1 0x0 SWAP1 SLOAD SWAP1 PUSH2 0x100 EXP SWAP1 DIV PUSH20 0xFFFFFFFFFFFFFFFFFFFFFFFFFFFFFFFFFFFFFFFF AND SWAP1 POP SWAP2 SWAP1 POP JUMP JUMPDEST PUSH1 0x0 PUSH2 0x798 DUP3 PUSH2 0xAF1 JUMP JUMPDEST SWAP1 POP DUP1 PUSH20 0xFFFFFFFFFFFFFFFFFFFFFFFFFFFFFFFFFFFFFFFF AND DUP4 PUSH20 0xFFFFFFFFFFFFFFFFFFFFFFFFFFFFFFFFFFFFFFFF AND SUB PUSH2 0x808 JUMPI PUSH1 0x40 MLOAD PUSH32 0x8C379A000000000000000000000000000000000000000000000000000000000 DUP2 MSTORE PUSH1 0x4 ADD PUSH2 0x7FF SWAP1 PUSH2 0x3230 JUMP JUMPDEST PUSH1 0x40 MLOAD DUP1 SWAP2 SUB SWAP1 REVERT JUMPDEST DUP1 PUSH20 0xFFFFFFFFFFFFFFFFFFFFFFFFFFFFFFFFFFFFFFFF AND PUSH2 0x827 PUSH2 0x147E JUMP JUMPDEST PUSH20 0xFFFFFFFFFFFFFFFFFFFFFFFFFFFFFFFFFFFFFFFF AND EQ DUP1 PUSH2 0x856 JUMPI POP PUSH2 0x855 DUP2 PUSH2 0x850 PUSH2 0x147E JUMP JUMPDEST PUSH2 0x108F JUMP JUMPDEST JUMPDEST PUSH2 0x895 JUMPI PUSH1 0x40 MLOAD PUSH32 0x8C379A000000000000000000000000000000000000000000000000000000000 DUP2 MSTORE PUSH1 0x4 ADD PUSH2 0x88C SWAP1 PUSH2 0x32C2 JUMP JUMPDEST PUSH1 0x40 MLOAD DUP1 SWAP2 SUB SWAP1 REVERT JUMPDEST PUSH2 0x89F DUP4 DUP4 PUSH2 0x1486 JUMP JUMPDEST POP POP POP JUMP JUMPDEST PUSH1 0x0 DUP1 SHL PUSH2 0x8B1 DUP2 PUSH2 0x153F JUMP JUMPDEST PUSH2 0x8B9 PUSH2 0xEAC JUMP JUMPDEST PUSH2 0x8CD PUSH1 0x7 SLOAD PUSH1 0x8 PUSH1 0x0 ADD SLOAD DUP7 DUP7 DUP7 PUSH2 0x1553 JUMP JUMPDEST POP POP POP POP JUMP JUMPDEST PUSH1 0x8 DUP1 PUSH1 0x0 ADD SLOAD SWAP1 DUP1 PUSH1 0x1 ADD PUSH1 0x40 MLOAD DUP1 PUSH1 0x60 ADD PUSH1 0x40 MSTORE SWAP1 DUP2 PUSH1 0x0 DUP3 ADD SLOAD DUP2 MSTORE PUSH1 0x20 ADD PUSH1 0x1 DUP3 ADD SLOAD DUP2 MSTORE PUSH1 0x20 ADD PUSH1 0x2 DUP3 ADD SLOAD DUP2 MSTORE POP POP SWAP1 DUP1 PUSH1 0x4 ADD SLOAD SWAP1 POP DUP4 JUMP JUMPDEST PUSH1 0x7 SLOAD DUP2 JUMP JUMPDEST PUSH2 0x92A PUSH2 0x924 PUSH2 0x147E JUMP JUMPDEST DUP3 PUSH2 0x1726 JUMP JUMPDEST PUSH2 0x969 JUMPI PUSH1 0x40 MLOAD PUSH32 0x8C379A000000000000000000000000000000000000000000000000000000000 DUP2 MSTORE PUSH1 0x4 ADD PUSH2 0x960 SWAP1 PUSH2 0x3354 JUMP JUMPDEST PUSH1 0x40 MLOAD DUP1 SWAP2 SUB SWAP1 REVERT JUMPDEST PUSH2 0x974 DUP4 DUP4 DUP4 PUSH2 0x17BB JUMP JUMPDEST POP POP POP JUMP JUMPDEST PUSH1 0x0 PUSH1 0x6 PUSH1 0x0 DUP4 DUP2 MSTORE PUSH1 0x20 ADD SWAP1 DUP2 MSTORE PUSH1 0x20 ADD PUSH1 0x0 KECCAK256 PUSH1 0x1 ADD SLOAD SWAP1 POP SWAP2 SWAP1 POP JUMP JUMPDEST PUSH2 0x9A2 DUP3 PUSH2 0x979 JUMP JUMPDEST PUSH2 0x9AB DUP2 PUSH2 0x153F JUMP JUMPDEST PUSH2 0x9B5 DUP4 DUP4 PUSH2 0x1AB4 JUMP JUMPDEST POP POP POP JUMP JUMPDEST PUSH2 0x9C2 PUSH2 0x147E JUMP JUMPDEST PUSH20 0xFFFFFFFFFFFFFFFFFFFFFFFFFFFFFFFFFFFFFFFF AND DUP2 PUSH20 0xFFFFFFFFFFFFFFFFFFFFFFFFFFFFFFFFFFFFFFFF AND EQ PUSH2 0xA2F JUMPI PUSH1 0x40 MLOAD PUSH32 0x8C379A000000000000000000000000000000000000000000000000000000000 DUP2 MSTORE PUSH1 0x4 ADD PUSH2 0xA26 SWAP1 PUSH2 0x33E6 JUMP JUMPDEST PUSH1 0x40 MLOAD DUP1 SWAP2 SUB SWAP1 REVERT JUMPDEST PUSH2 0xA39 DUP3 DUP3 PUSH2 0x1B95 JUMP JUMPDEST POP POP JUMP JUMPDEST PUSH2 0xA58 DUP4 DUP4 DUP4 PUSH1 0x40 MLOAD DUP1 PUSH1 0x20 ADD PUSH1 0x40 MSTORE DUP1 PUSH1 0x0 DUP2 MSTORE POP PUSH2 0xF53 JUMP JUMPDEST POP POP POP JUMP JUMPDEST PUSH1 0x0 DUP1 SHL PUSH2 0xA6A DUP2 PUSH2 0x153F JUMP JUMPDEST PUSH1 0x0 PUSH1 0x8 PUSH1 0x4 ADD SLOAD GT PUSH2 0xAB2 JUMPI PUSH1 0x40 MLOAD PUSH32 0x8C379A000000000000000000000000000000000000000000000000000000000 DUP2 MSTORE PUSH1 0x4 ADD PUSH2 0xAA9 SWAP1 PUSH2 0x3452 JUMP JUMPDEST PUSH1 0x40 MLOAD DUP1 SWAP2 SUB SWAP1 REVERT JUMPDEST PUSH1 0x8 PUSH1 0x4 ADD PUSH1 0x0 DUP2 SLOAD DUP1 SWAP3 SWAP2 SWAP1 PUSH2 0xAC8 SWAP1 PUSH2 0x34A1 JUMP JUMPDEST SWAP2 SWAP1 POP SSTORE POP PUSH2 0xAEE PUSH1 0xD PUSH1 0x0 PUSH1 0x8 PUSH1 0x4 ADD SLOAD DUP2 MSTORE PUSH1 0x20 ADD SWAP1 DUP2 MSTORE PUSH1 0x20 ADD PUSH1 0x0 KECCAK256 SLOAD PUSH2 0x1C77 JUMP JUMPDEST POP JUMP JUMPDEST PUSH1 0x0 DUP1 PUSH2 0xAFD DUP4 PUSH2 0x1DC5 JUMP JUMPDEST SWAP1 POP PUSH1 0x0 PUSH20 0xFFFFFFFFFFFFFFFFFFFFFFFFFFFFFFFFFFFFFFFF AND DUP2 PUSH20 0xFFFFFFFFFFFFFFFFFFFFFFFFFFFFFFFFFFFFFFFF AND SUB PUSH2 0xB6E JUMPI PUSH1 0x40 MLOAD PUSH32 0x8C379A000000000000000000000000000000000000000000000000000000000 DUP2 MSTORE PUSH1 0x4 ADD PUSH2 0xB65 SWAP1 PUSH2 0x3516 JUMP JUMPDEST PUSH1 0x40 MLOAD DUP1 SWAP2 SUB SWAP1 REVERT JUMPDEST DUP1 SWAP2 POP POP SWAP2 SWAP1 POP JUMP JUMPDEST PUSH1 0x0 TIMESTAMP SWAP1 POP PUSH1 0x8 PUSH1 0x1 ADD PUSH1 0x2 ADD SLOAD DUP2 LT DUP1 ISZERO PUSH2 0xB9A JUMPI POP PUSH1 0x8 PUSH1 0x1 ADD PUSH1 0x0 ADD SLOAD DUP2 GT JUMPDEST PUSH2 0xBD9 JUMPI PUSH1 0x40 MLOAD PUSH32 0x8C379A000000000000000000000000000000000000000000000000000000000 DUP2 MSTORE PUSH1 0x4 ADD PUSH2 0xBD0 SWAP1 PUSH2 0x35A8 JUMP JUMPDEST PUSH1 0x40 MLOAD DUP1 SWAP2 SUB SWAP1 REVERT JUMPDEST PUSH1 0x0 PUSH2 0xBE4 CALLER PUSH2 0xCF8 JUMP JUMPDEST EQ PUSH2 0xC24 JUMPI PUSH1 0x40 MLOAD PUSH32 0x8C379A000000000000000000000000000000000000000000000000000000000 DUP2 MSTORE PUSH1 0x4 ADD PUSH2 0xC1B SWAP1 PUSH2 0x3614 JUMP JUMPDEST PUSH1 0x40 MLOAD DUP1 SWAP2 SUB SWAP1 REVERT JUMPDEST PUSH1 0x7 SLOAD PUSH1 0x8 PUSH1 0x4 ADD SLOAD LT PUSH2 0xC6D JUMPI PUSH1 0x40 MLOAD PUSH32 0x8C379A000000000000000000000000000000000000000000000000000000000 DUP2 MSTORE PUSH1 0x4 ADD PUSH2 0xC64 SWAP1 PUSH2 0x3680 JUMP JUMPDEST PUSH1 0x40 MLOAD DUP1 SWAP2 SUB SWAP1 REVERT JUMPDEST PUSH1 0x8 PUSH1 0x0 ADD SLOAD CALLVALUE EQ PUSH2 0xCB4 JUMPI PUSH1 0x40 MLOAD PUSH32 0x8C379A000000000000000000000000000000000000000000000000000000000 DUP2 MSTORE PUSH1 0x4 ADD PUSH2 0xCAB SWAP1 PUSH2 0x36EC JUMP JUMPDEST PUSH1 0x40 MLOAD DUP1 SWAP2 SUB SWAP1 REVERT JUMPDEST PUSH1 0x8 PUSH1 0x1 ADD PUSH1 0x1 ADD SLOAD DUP2 LT ISZERO PUSH2 0xCD1 JUMPI PUSH2 0xCCC PUSH2 0x1E02 JUMP JUMPDEST PUSH2 0xCDA JUMP JUMPDEST PUSH2 0xCD9 PUSH2 0x1E51 JUMP JUMPDEST JUMPDEST PUSH1 0x8 PUSH1 0x4 ADD PUSH1 0x0 DUP2 SLOAD DUP1 SWAP3 SWAP2 SWAP1 PUSH2 0xCF0 SWAP1 PUSH2 0x370C JUMP JUMPDEST SWAP2 SWAP1 POP SSTORE POP POP JUMP JUMPDEST PUSH1 0x0 DUP1 PUSH20 0xFFFFFFFFFFFFFFFFFFFFFFFFFFFFFFFFFFFFFFFF AND DUP3 PUSH20 0xFFFFFFFFFFFFFFFFFFFFFFFFFFFFFFFFFFFFFFFF AND SUB PUSH2 0xD68 JUMPI PUSH1 0x40 MLOAD PUSH32 0x8C379A000000000000000000000000000000000000000000000000000000000 DUP2 MSTORE PUSH1 0x4 ADD PUSH2 0xD5F SWAP1 PUSH2 0x37C6 JUMP JUMPDEST PUSH1 0x40 MLOAD DUP1 SWAP2 SUB SWAP1 REVERT JUMPDEST PUSH1 0x3 PUSH1 0x0 DUP4 PUSH20 0xFFFFFFFFFFFFFFFFFFFFFFFFFFFFFFFFFFFFFFFF AND PUSH20 0xFFFFFFFFFFFFFFFFFFFFFFFFFFFFFFFFFFFFFFFF AND DUP2 MSTORE PUSH1 0x20 ADD SWAP1 DUP2 MSTORE PUSH1 0x20 ADD PUSH1 0x0 KECCAK256 SLOAD SWAP1 POP SWAP2 SWAP1 POP JUMP JUMPDEST PUSH1 0x0 PUSH1 0x6 PUSH1 0x0 DUP5 DUP2 MSTORE PUSH1 0x20 ADD SWAP1 DUP2 MSTORE PUSH1 0x20 ADD PUSH1 0x0 KECCAK256 PUSH1 0x0 ADD PUSH1 0x0 DUP4 PUSH20 0xFFFFFFFFFFFFFFFFFFFFFFFFFFFFFFFFFFFFFFFF AND PUSH20 0xFFFFFFFFFFFFFFFFFFFFFFFFFFFFFFFFFFFFFFFF AND DUP2 MSTORE PUSH1 0x20 ADD SWAP1 DUP2 MSTORE PUSH1 0x20 ADD PUSH1 0x0 KECCAK256 PUSH1 0x0 SWAP1 SLOAD SWAP1 PUSH2 0x100 EXP SWAP1 DIV PUSH1 0xFF AND SWAP1 POP SWAP3 SWAP2 POP POP JUMP JUMPDEST PUSH1 0x60 PUSH1 0x1 DUP1 SLOAD PUSH2 0xE29 SWAP1 PUSH2 0x318D JUMP JUMPDEST DUP1 PUSH1 0x1F ADD PUSH1 0x20 DUP1 SWAP2 DIV MUL PUSH1 0x20 ADD PUSH1 0x40 MLOAD SWAP1 DUP2 ADD PUSH1 0x40 MSTORE DUP1 SWAP3 SWAP2 SWAP1 DUP2 DUP2 MSTORE PUSH1 0x20 ADD DUP3 DUP1 SLOAD PUSH2 0xE55 SWAP1 PUSH2 0x318D JUMP JUMPDEST DUP1 ISZERO PUSH2 0xEA2 JUMPI DUP1 PUSH1 0x1F LT PUSH2 0xE77 JUMPI PUSH2 0x100 DUP1 DUP4 SLOAD DIV MUL DUP4 MSTORE SWAP2 PUSH1 0x20 ADD SWAP2 PUSH2 0xEA2 JUMP JUMPDEST DUP3 ADD SWAP2 SWAP1 PUSH1 0x0 MSTORE PUSH1 0x20 PUSH1 0x0 KECCAK256 SWAP1 JUMPDEST DUP2 SLOAD DUP2 MSTORE SWAP1 PUSH1 0x1 ADD SWAP1 PUSH1 0x20 ADD DUP1 DUP4 GT PUSH2 0xE85 JUMPI DUP3 SWAP1 SUB PUSH1 0x1F AND DUP3 ADD SWAP2 JUMPDEST POP POP POP POP POP SWAP1 POP SWAP1 JUMP JUMPDEST PUSH1 0x0 DUP1 SHL PUSH2 0xEB9 DUP2 PUSH2 0x153F JUMP JUMPDEST PUSH1 0x0 PUSH1 0x8 PUSH1 0x4 ADD SLOAD GT PUSH2 0xF01 JUMPI PUSH1 0x40 MLOAD PUSH32 0x8C379A000000000000000000000000000000000000000000000000000000000 DUP2 MSTORE PUSH1 0x4 ADD PUSH2 0xEF8 SWAP1 PUSH2 0x3452 JUMP JUMPDEST PUSH1 0x40 MLOAD DUP1 SWAP2 SUB SWAP1 REVERT JUMPDEST PUSH1 0x0 PUSH1 0x8 PUSH1 0x4 ADD SLOAD SWAP1 POP PUSH1 0x0 JUMPDEST DUP2 DUP2 LT ISZERO PUSH2 0xF31 JUMPI PUSH2 0xF1E PUSH2 0xA5D JUMP JUMPDEST DUP1 DUP1 PUSH2 0xF29 SWAP1 PUSH2 0x370C JUMP JUMPDEST SWAP2 POP POP PUSH2 0xF0E JUMP JUMPDEST POP POP POP JUMP JUMPDEST PUSH1 0x0 DUP1 SHL DUP2 JUMP JUMPDEST PUSH2 0xF4F PUSH2 0xF48 PUSH2 0x147E JUMP JUMPDEST DUP4 DUP4 PUSH2 0x1E75 JUMP JUMPDEST POP POP JUMP JUMPDEST PUSH2 0xF64 PUSH2 0xF5E PUSH2 0x147E JUMP JUMPDEST DUP4 PUSH2 0x1726 JUMP JUMPDEST PUSH2 0xFA3 JUMPI PUSH1 0x40 MLOAD PUSH32 0x8C379A000000000000000000000000000000000000000000000000000000000 DUP2 MSTORE PUSH1 0x4 ADD PUSH2 0xF9A SWAP1 PUSH2 0x3354 JUMP JUMPDEST PUSH1 0x40 MLOAD DUP1 SWAP2 SUB SWAP1 REVERT JUMPDEST PUSH2 0xFAF DUP5 DUP5 DUP5 DUP5 PUSH2 0x1FE1 JUMP JUMPDEST POP POP POP POP JUMP JUMPDEST PUSH2 0xFDF PUSH32 0x9F2DF0FED2C77648DE5860A4CC508CD0818C85B8B8A1AB4CEEEF8D981C8956A6 DUP3 PUSH2 0x999 JUMP JUMPDEST POP JUMP JUMPDEST PUSH1 0x60 PUSH2 0xFED DUP3 PUSH2 0x1433 JUMP JUMPDEST PUSH1 0x0 PUSH2 0xFF7 PUSH2 0x203D JUMP JUMPDEST SWAP1 POP PUSH1 0x0 DUP2 MLOAD GT PUSH2 0x1017 JUMPI PUSH1 0x40 MLOAD DUP1 PUSH1 0x20 ADD PUSH1 0x40 MSTORE DUP1 PUSH1 0x0 DUP2 MSTORE POP PUSH2 0x1042 JUMP JUMPDEST DUP1 PUSH2 0x1021 DUP5 PUSH2 0x205D JUMP JUMPDEST PUSH1 0x40 MLOAD PUSH1 0x20 ADD PUSH2 0x1032 SWAP3 SWAP2 SWAP1 PUSH2 0x3822 JUMP JUMPDEST PUSH1 0x40 MLOAD PUSH1 0x20 DUP2 DUP4 SUB SUB DUP2 MSTORE SWAP1 PUSH1 0x40 MSTORE JUMPDEST SWAP2 POP POP SWAP2 SWAP1 POP JUMP JUMPDEST PUSH32 0x9F2DF0FED2C77648DE5860A4CC508CD0818C85B8B8A1AB4CEEEF8D981C8956A6 DUP2 JUMP JUMPDEST PUSH2 0x1077 DUP3 PUSH2 0x979 JUMP JUMPDEST PUSH2 0x1080 DUP2 PUSH2 0x153F JUMP JUMPDEST PUSH2 0x108A DUP4 DUP4 PUSH2 0x1B95 JUMP JUMPDEST POP POP POP JUMP JUMPDEST PUSH1 0x0 PUSH1 0x5 PUSH1 0x0 DUP5 PUSH20 0xFFFFFFFFFFFFFFFFFFFFFFFFFFFFFFFFFFFFFFFF AND PUSH20 0xFFFFFFFFFFFFFFFFFFFFFFFFFFFFFFFFFFFFFFFF AND DUP2 MSTORE PUSH1 0x20 ADD SWAP1 DUP2 MSTORE PUSH1 0x20 ADD PUSH1 0x0 KECCAK256 PUSH1 0x0 DUP4 PUSH20 0xFFFFFFFFFFFFFFFFFFFFFFFFFFFFFFFFFFFFFFFF AND PUSH20 0xFFFFFFFFFFFFFFFFFFFFFFFFFFFFFFFFFFFFFFFF AND DUP2 MSTORE PUSH1 0x20 ADD SWAP1 DUP2 MSTORE PUSH1 0x20 ADD PUSH1 0x0 KECCAK256 PUSH1 0x0 SWAP1 SLOAD SWAP1 PUSH2 0x100 EXP SWAP1 DIV PUSH1 0xFF AND SWAP1 POP SWAP3 SWAP2 POP POP JUMP JUMPDEST PUSH2 0x114D PUSH32 0x9F2DF0FED2C77648DE5860A4CC508CD0818C85B8B8A1AB4CEEEF8D981C8956A6 DUP3 PUSH2 0x106E JUMP JUMPDEST POP JUMP JUMPDEST PUSH1 0x60 PUSH2 0x1176 DUP3 PUSH20 0xFFFFFFFFFFFFFFFFFFFFFFFFFFFFFFFFFFFFFFFF AND PUSH1 0x14 PUSH1 0xFF AND PUSH2 0x117D JUMP JUMPDEST SWAP1 POP SWAP2 SWAP1 POP JUMP JUMPDEST PUSH1 0x60 PUSH1 0x0 PUSH1 0x2 DUP4 PUSH1 0x2 PUSH2 0x1190 SWAP2 SWAP1 PUSH2 0x3846 JUMP JUMPDEST PUSH2 0x119A SWAP2 SWAP1 PUSH2 0x3888 JUMP JUMPDEST PUSH8 0xFFFFFFFFFFFFFFFF DUP2 GT ISZERO PUSH2 0x11B3 JUMPI PUSH2 0x11B2 PUSH2 0x2F70 JUMP JUMPDEST JUMPDEST PUSH1 0x40 MLOAD SWAP1 DUP1 DUP3 MSTORE DUP1 PUSH1 0x1F ADD PUSH1 0x1F NOT AND PUSH1 0x20 ADD DUP3 ADD PUSH1 0x40 MSTORE DUP1 ISZERO PUSH2 0x11E5 JUMPI DUP2 PUSH1 0x20 ADD PUSH1 0x1 DUP3 MUL DUP1 CALLDATASIZE DUP4 CALLDATACOPY DUP1 DUP3 ADD SWAP2 POP POP SWAP1 POP JUMPDEST POP SWAP1 POP PUSH32 0x3000000000000000000000000000000000000000000000000000000000000000 DUP2 PUSH1 0x0 DUP2 MLOAD DUP2 LT PUSH2 0x121D JUMPI PUSH2 0x121C PUSH2 0x38BC JUMP JUMPDEST JUMPDEST PUSH1 0x20 ADD ADD SWAP1 PUSH31 0xFFFFFFFFFFFFFFFFFFFFFFFFFFFFFFFFFFFFFFFFFFFFFFFFFFFFFFFFFFFFFF NOT AND SWAP1 DUP2 PUSH1 0x0 BYTE SWAP1 MSTORE8 POP PUSH32 0x7800000000000000000000000000000000000000000000000000000000000000 DUP2 PUSH1 0x1 DUP2 MLOAD DUP2 LT PUSH2 0x1281 JUMPI PUSH2 0x1280 PUSH2 0x38BC JUMP JUMPDEST JUMPDEST PUSH1 0x20 ADD ADD SWAP1 PUSH31 0xFFFFFFFFFFFFFFFFFFFFFFFFFFFFFFFFFFFFFFFFFFFFFFFFFFFFFFFFFFFFFF NOT AND SWAP1 DUP2 PUSH1 0x0 BYTE SWAP1 MSTORE8 POP PUSH1 0x0 PUSH1 0x1 DUP5 PUSH1 0x2 PUSH2 0x12C1 SWAP2 SWAP1 PUSH2 0x3846 JUMP JUMPDEST PUSH2 0x12CB SWAP2 SWAP1 PUSH2 0x3888 JUMP JUMPDEST SWAP1 POP JUMPDEST PUSH1 0x1 DUP2 GT ISZERO PUSH2 0x136B JUMPI PUSH32 0x3031323334353637383961626364656600000000000000000000000000000000 PUSH1 0xF DUP7 AND PUSH1 0x10 DUP2 LT PUSH2 0x130D JUMPI PUSH2 0x130C PUSH2 0x38BC JUMP JUMPDEST JUMPDEST BYTE PUSH1 0xF8 SHL DUP3 DUP3 DUP2 MLOAD DUP2 LT PUSH2 0x1324 JUMPI PUSH2 0x1323 PUSH2 0x38BC JUMP JUMPDEST JUMPDEST PUSH1 0x20 ADD ADD SWAP1 PUSH31 0xFFFFFFFFFFFFFFFFFFFFFFFFFFFFFFFFFFFFFFFFFFFFFFFFFFFFFFFFFFFFFF NOT AND SWAP1 DUP2 PUSH1 0x0 BYTE SWAP1 MSTORE8 POP PUSH1 0x4 DUP6 SWAP1 SHR SWAP5 POP DUP1 PUSH2 0x1364 SWAP1 PUSH2 0x34A1 JUMP JUMPDEST SWAP1 POP PUSH2 0x12CE JUMP JUMPDEST POP PUSH1 0x0 DUP5 EQ PUSH2 0x13AF JUMPI PUSH1 0x40 MLOAD PUSH32 0x8C379A000000000000000000000000000000000000000000000000000000000 DUP2 MSTORE PUSH1 0x4 ADD PUSH2 0x13A6 SWAP1 PUSH2 0x3937 JUMP JUMPDEST PUSH1 0x40 MLOAD DUP1 SWAP2 SUB SWAP1 REVERT JUMPDEST DUP1 SWAP2 POP POP SWAP3 SWAP2 POP POP JUMP JUMPDEST PUSH1 0x0 PUSH32 0x7965DB0B00000000000000000000000000000000000000000000000000000000 PUSH28 0xFFFFFFFFFFFFFFFFFFFFFFFFFFFFFFFFFFFFFFFFFFFFFFFFFFFFFFFF NOT AND DUP3 PUSH28 0xFFFFFFFFFFFFFFFFFFFFFFFFFFFFFFFFFFFFFFFFFFFFFFFFFFFFFFFF NOT AND EQ DUP1 PUSH2 0x142C JUMPI POP PUSH2 0x142B DUP3 PUSH2 0x212B JUMP JUMPDEST JUMPDEST SWAP1 POP SWAP2 SWAP1 POP JUMP JUMPDEST PUSH2 0x143C DUP2 PUSH2 0x220D JUMP JUMPDEST PUSH2 0x147B JUMPI PUSH1 0x40 MLOAD PUSH32 0x8C379A000000000000000000000000000000000000000000000000000000000 DUP2 MSTORE PUSH1 0x4 ADD PUSH2 0x1472 SWAP1 PUSH2 0x3516 JUMP JUMPDEST PUSH1 0x40 MLOAD DUP1 SWAP2 SUB SWAP1 REVERT JUMPDEST POP JUMP JUMPDEST PUSH1 0x0 CALLER SWAP1 POP SWAP1 JUMP JUMPDEST DUP2 PUSH1 0x4 PUSH1 0x0 DUP4 DUP2 MSTORE PUSH1 0x20 ADD SWAP1 DUP2 MSTORE PUSH1 0x20 ADD PUSH1 0x0 KECCAK256 PUSH1 0x0 PUSH2 0x100 EXP DUP2 SLOAD DUP2 PUSH20 0xFFFFFFFFFFFFFFFFFFFFFFFFFFFFFFFFFFFFFFFF MUL NOT AND SWAP1 DUP4 PUSH20 0xFFFFFFFFFFFFFFFFFFFFFFFFFFFFFFFFFFFFFFFF AND MUL OR SWAP1 SSTORE POP DUP1 DUP3 PUSH20 0xFFFFFFFFFFFFFFFFFFFFFFFFFFFFFFFFFFFFFFFF AND PUSH2 0x14F9 DUP4 PUSH2 0xAF1 JUMP JUMPDEST PUSH20 0xFFFFFFFFFFFFFFFFFFFFFFFFFFFFFFFFFFFFFFFF AND PUSH32 0x8C5BE1E5EBEC7D5BD14F71427D1E84F3DD0314C0F7B2291E5B200AC8C7C3B925 PUSH1 0x40 MLOAD PUSH1 0x40 MLOAD DUP1 SWAP2 SUB SWAP1 LOG4 POP POP JUMP JUMPDEST PUSH2 0x1550 DUP2 PUSH2 0x154B PUSH2 0x147E JUMP JUMPDEST PUSH2 0x224E JUMP JUMPDEST POP JUMP JUMPDEST PUSH1 0x0 DUP1 SHL PUSH2 0x1560 DUP2 PUSH2 0x153F JUMP JUMPDEST PUSH1 0x0 DUP7 GT PUSH2 0x15A3 JUMPI PUSH1 0x40 MLOAD PUSH32 0x8C379A000000000000000000000000000000000000000000000000000000000 DUP2 MSTORE PUSH1 0x4 ADD PUSH2 0x159A SWAP1 PUSH2 0x39C9 JUMP JUMPDEST PUSH1 0x40 MLOAD DUP1 SWAP2 SUB SWAP1 REVERT JUMPDEST PUSH1 0x0 DUP6 GT PUSH2 0x15E6 JUMPI PUSH1 0x40 MLOAD PUSH32 0x8C379A000000000000000000000000000000000000000000000000000000000 DUP2 MSTORE PUSH1 0x4 ADD PUSH2 0x15DD SWAP1 PUSH2 0x3A5B JUMP JUMPDEST PUSH1 0x40 MLOAD DUP1 SWAP2 SUB SWAP1 REVERT JUMPDEST TIMESTAMP DUP5 GT PUSH2 0x1628 JUMPI PUSH1 0x40 MLOAD PUSH32 0x8C379A000000000000000000000000000000000000000000000000000000000 DUP2 MSTORE PUSH1 0x4 ADD PUSH2 0x161F SWAP1 PUSH2 0x3AED JUMP JUMPDEST PUSH1 0x40 MLOAD DUP1 SWAP2 SUB SWAP1 REVERT JUMPDEST PUSH1 0x0 DUP4 GT PUSH2 0x166B JUMPI PUSH1 0x40 MLOAD PUSH32 0x8C379A000000000000000000000000000000000000000000000000000000000 DUP2 MSTORE PUSH1 0x4 ADD PUSH2 0x1662 SWAP1 PUSH2 0x3B7F JUMP JUMPDEST PUSH1 0x40 MLOAD DUP1 SWAP2 SUB SWAP1 REVERT JUMPDEST PUSH1 0x0 DUP3 GT PUSH2 0x16AE JUMPI PUSH1 0x40 MLOAD PUSH32 0x8C379A000000000000000000000000000000000000000000000000000000000 DUP2 MSTORE PUSH1 0x4 ADD PUSH2 0x16A5 SWAP1 PUSH2 0x3C11 JUMP JUMPDEST PUSH1 0x40 MLOAD DUP1 SWAP2 SUB SWAP1 REVERT JUMPDEST DUP6 PUSH1 0x7 DUP2 SWAP1 SSTORE POP PUSH4 0x3B9ACA00 DUP6 PUSH2 0x16C5 SWAP2 SWAP1 PUSH2 0x3846 JUMP JUMPDEST PUSH1 0x8 PUSH1 0x0 ADD DUP2 SWAP1 SSTORE POP DUP4 PUSH1 0x8 PUSH1 0x1 ADD PUSH1 0x0 ADD DUP2 SWAP1 SSTORE POP DUP3 DUP5 PUSH2 0x16E7 SWAP2 SWAP1 PUSH2 0x3888 JUMP JUMPDEST PUSH1 0x8 PUSH1 0x1 ADD PUSH1 0x1 ADD DUP2 SWAP1 SSTORE POP DUP2 DUP4 DUP6 PUSH2 0x1700 SWAP2 SWAP1 PUSH2 0x3888 JUMP JUMPDEST PUSH2 0x170A SWAP2 SWAP1 PUSH2 0x3888 JUMP JUMPDEST PUSH1 0x8 PUSH1 0x1 ADD PUSH1 0x2 ADD DUP2 SWAP1 SSTORE POP PUSH2 0x171E PUSH2 0x22D3 JUMP JUMPDEST POP POP POP POP POP POP JUMP JUMPDEST PUSH1 0x0 DUP1 PUSH2 0x1732 DUP4 PUSH2 0xAF1 JUMP JUMPDEST SWAP1 POP DUP1 PUSH20 0xFFFFFFFFFFFFFFFFFFFFFFFFFFFFFFFFFFFFFFFF AND DUP5 PUSH20 0xFFFFFFFFFFFFFFFFFFFFFFFFFFFFFFFFFFFFFFFF AND EQ DUP1 PUSH2 0x1774 JUMPI POP PUSH2 0x1773 DUP2 DUP6 PUSH2 0x108F JUMP JUMPDEST JUMPDEST DUP1 PUSH2 0x17B2 JUMPI POP DUP4 PUSH20 0xFFFFFFFFFFFFFFFFFFFFFFFFFFFFFFFFFFFFFFFF AND PUSH2 0x179A DUP5 PUSH2 0x747 JUMP JUMPDEST PUSH20 0xFFFFFFFFFFFFFFFFFFFFFFFFFFFFFFFFFFFFFFFF AND EQ JUMPDEST SWAP2 POP POP SWAP3 SWAP2 POP POP JUMP JUMPDEST DUP3 PUSH20 0xFFFFFFFFFFFFFFFFFFFFFFFFFFFFFFFFFFFFFFFF AND PUSH2 0x17DB DUP3 PUSH2 0xAF1 JUMP JUMPDEST PUSH20 0xFFFFFFFFFFFFFFFFFFFFFFFFFFFFFFFFFFFFFFFF AND EQ PUSH2 0x1831 JUMPI PUSH1 0x40 MLOAD PUSH32 0x8C379A000000000000000000000000000000000000000000000000000000000 DUP2 MSTORE PUSH1 0x4 ADD PUSH2 0x1828 SWAP1 PUSH2 0x3CA3 JUMP JUMPDEST PUSH1 0x40 MLOAD DUP1 SWAP2 SUB SWAP1 REVERT JUMPDEST PUSH1 0x0 PUSH20 0xFFFFFFFFFFFFFFFFFFFFFFFFFFFFFFFFFFFFFFFF AND DUP3 PUSH20 0xFFFFFFFFFFFFFFFFFFFFFFFFFFFFFFFFFFFFFFFF AND SUB PUSH2 0x18A0 JUMPI PUSH1 0x40 MLOAD PUSH32 0x8C379A000000000000000000000000000000000000000000000000000000000 DUP2 MSTORE PUSH1 0x4 ADD PUSH2 0x1897 SWAP1 PUSH2 0x3D35 JUMP JUMPDEST PUSH1 0x40 MLOAD DUP1 SWAP2 SUB SWAP1 REVERT JUMPDEST PUSH2 0x18AD DUP4 DUP4 DUP4 PUSH1 0x1 PUSH2 0x23F3 JUMP JUMPDEST DUP3 PUSH20 0xFFFFFFFFFFFFFFFFFFFFFFFFFFFFFFFFFFFFFFFF AND PUSH2 0x18CD DUP3 PUSH2 0xAF1 JUMP JUMPDEST PUSH20 0xFFFFFFFFFFFFFFFFFFFFFFFFFFFFFFFFFFFFFFFF AND EQ PUSH2 0x1923 JUMPI PUSH1 0x40 MLOAD PUSH32 0x8C379A000000000000000000000000000000000000000000000000000000000 DUP2 MSTORE PUSH1 0x4 ADD PUSH2 0x191A SWAP1 PUSH2 0x3CA3 JUMP JUMPDEST PUSH1 0x40 MLOAD DUP1 SWAP2 SUB SWAP1 REVERT JUMPDEST PUSH1 0x4 PUSH1 0x0 DUP3 DUP2 MSTORE PUSH1 0x20 ADD SWAP1 DUP2 MSTORE PUSH1 0x20 ADD PUSH1 0x0 KECCAK256 PUSH1 0x0 PUSH2 0x100 EXP DUP2 SLOAD SWAP1 PUSH20 0xFFFFFFFFFFFFFFFFFFFFFFFFFFFFFFFFFFFFFFFF MUL NOT AND SWAP1 SSTORE PUSH1 0x1 PUSH1 0x3 PUSH1 0x0 DUP6 PUSH20 0xFFFFFFFFFFFFFFFFFFFFFFFFFFFFFFFFFFFFFFFF AND PUSH20 0xFFFFFFFFFFFFFFFFFFFFFFFFFFFFFFFFFFFFFFFF AND DUP2 MSTORE PUSH1 0x20 ADD SWAP1 DUP2 MSTORE PUSH1 0x20 ADD PUSH1 0x0 KECCAK256 PUSH1 0x0 DUP3 DUP3 SLOAD SUB SWAP3 POP POP DUP2 SWAP1 SSTORE POP PUSH1 0x1 PUSH1 0x3 PUSH1 0x0 DUP5 PUSH20 0xFFFFFFFFFFFFFFFFFFFFFFFFFFFFFFFFFFFFFFFF AND PUSH20 0xFFFFFFFFFFFFFFFFFFFFFFFFFFFFFFFFFFFFFFFF AND DUP2 MSTORE PUSH1 0x20 ADD SWAP1 DUP2 MSTORE PUSH1 0x20 ADD PUSH1 0x0 KECCAK256 PUSH1 0x0 DUP3 DUP3 SLOAD ADD SWAP3 POP POP DUP2 SWAP1 SSTORE POP DUP2 PUSH1 0x2 PUSH1 0x0 DUP4 DUP2 MSTORE PUSH1 0x20 ADD SWAP1 DUP2 MSTORE PUSH1 0x20 ADD PUSH1 0x0 KECCAK256 PUSH1 0x0 PUSH2 0x100 EXP DUP2 SLOAD DUP2 PUSH20 0xFFFFFFFFFFFFFFFFFFFFFFFFFFFFFFFFFFFFFFFF MUL NOT AND SWAP1 DUP4 PUSH20 0xFFFFFFFFFFFFFFFFFFFFFFFFFFFFFFFFFFFFFFFF AND MUL OR SWAP1 SSTORE POP DUP1 DUP3 PUSH20 0xFFFFFFFFFFFFFFFFFFFFFFFFFFFFFFFFFFFFFFFF AND DUP5 PUSH20 0xFFFFFFFFFFFFFFFFFFFFFFFFFFFFFFFFFFFFFFFF AND PUSH32 0xDDF252AD1BE2C89B69C2B068FC378DAA952BA7F163C4A11628F55A4DF523B3EF PUSH1 0x40 MLOAD PUSH1 0x40 MLOAD DUP1 SWAP2 SUB SWAP1 LOG4 PUSH2 0x1AAF DUP4 DUP4 DUP4 PUSH1 0x1 PUSH2 0x23F9 JUMP JUMPDEST POP POP POP JUMP JUMPDEST PUSH2 0x1ABE DUP3 DUP3 PUSH2 0xDAF JUMP JUMPDEST PUSH2 0x1B91 JUMPI PUSH1 0x1 PUSH1 0x6 PUSH1 0x0 DUP5 DUP2 MSTORE PUSH1 0x20 ADD SWAP1 DUP2 MSTORE PUSH1 0x20 ADD PUSH1 0x0 KECCAK256 PUSH1 0x0 ADD PUSH1 0x0 DUP4 PUSH20 0xFFFFFFFFFFFFFFFFFFFFFFFFFFFFFFFFFFFFFFFF AND PUSH20 0xFFFFFFFFFFFFFFFFFFFFFFFFFFFFFFFFFFFFFFFF AND DUP2 MSTORE PUSH1 0x20 ADD SWAP1 DUP2 MSTORE PUSH1 0x20 ADD PUSH1 0x0 KECCAK256 PUSH1 0x0 PUSH2 0x100 EXP DUP2 SLOAD DUP2 PUSH1 0xFF MUL NOT AND SWAP1 DUP4 ISZERO ISZERO MUL OR SWAP1 SSTORE POP PUSH2 0x1B36 PUSH2 0x147E JUMP JUMPDEST PUSH20 0xFFFFFFFFFFFFFFFFFFFFFFFFFFFFFFFFFFFFFFFF AND DUP2 PUSH20 0xFFFFFFFFFFFFFFFFFFFFFFFFFFFFFFFFFFFFFFFF AND DUP4 PUSH32 0x2F8788117E7EFF1D82E926EC794901D17C78024A50270940304540A733656F0D PUSH1 0x40 MLOAD PUSH1 0x40 MLOAD DUP1 SWAP2 SUB SWAP1 LOG4 JUMPDEST POP POP JUMP JUMPDEST PUSH2 0x1B9F DUP3 DUP3 PUSH2 0xDAF JUMP JUMPDEST ISZERO PUSH2 0x1C73 JUMPI PUSH1 0x0 PUSH1 0x6 PUSH1 0x0 DUP5 DUP2 MSTORE PUSH1 0x20 ADD SWAP1 DUP2 MSTORE PUSH1 0x20 ADD PUSH1 0x0 KECCAK256 PUSH1 0x0 ADD PUSH1 0x0 DUP4 PUSH20 0xFFFFFFFFFFFFFFFFFFFFFFFFFFFFFFFFFFFFFFFF AND PUSH20 0xFFFFFFFFFFFFFFFFFFFFFFFFFFFFFFFFFFFFFFFF AND DUP2 MSTORE PUSH1 0x20 ADD SWAP1 DUP2 MSTORE PUSH1 0x20 ADD PUSH1 0x0 KECCAK256 PUSH1 0x0 PUSH2 0x100 EXP DUP2 SLOAD DUP2 PUSH1 0xFF MUL NOT AND SWAP1 DUP4 ISZERO ISZERO MUL OR SWAP1 SSTORE POP PUSH2 0x1C18 PUSH2 0x147E JUMP JUMPDEST PUSH20 0xFFFFFFFFFFFFFFFFFFFFFFFFFFFFFFFFFFFFFFFF AND DUP2 PUSH20 0xFFFFFFFFFFFFFFFFFFFFFFFFFFFFFFFFFFFFFFFF AND DUP4 PUSH32 0xF6391F5C32D9C69D2A47EA670B442974B53935D1EDC7FD64EB21E047A839171B PUSH1 0x40 MLOAD PUSH1 0x40 MLOAD DUP1 SWAP2 SUB SWAP1 LOG4 JUMPDEST POP POP JUMP JUMPDEST PUSH1 0x0 PUSH2 0x1C82 DUP3 PUSH2 0xAF1 JUMP JUMPDEST SWAP1 POP PUSH2 0x1C92 DUP2 PUSH1 0x0 DUP5 PUSH1 0x1 PUSH2 0x23F3 JUMP JUMPDEST PUSH2 0x1C9B DUP3 PUSH2 0xAF1 JUMP JUMPDEST SWAP1 POP PUSH1 0x4 PUSH1 0x0 DUP4 DUP2 MSTORE PUSH1 0x20 ADD SWAP1 DUP2 MSTORE PUSH1 0x20 ADD PUSH1 0x0 KECCAK256 PUSH1 0x0 PUSH2 0x100 EXP DUP2 SLOAD SWAP1 PUSH20 0xFFFFFFFFFFFFFFFFFFFFFFFFFFFFFFFFFFFFFFFF MUL NOT AND SWAP1 SSTORE PUSH1 0x1 PUSH1 0x3 PUSH1 0x0 DUP4 PUSH20 0xFFFFFFFFFFFFFFFFFFFFFFFFFFFFFFFFFFFFFFFF AND PUSH20 0xFFFFFFFFFFFFFFFFFFFFFFFFFFFFFFFFFFFFFFFF AND DUP2 MSTORE PUSH1 0x20 ADD SWAP1 DUP2 MSTORE PUSH1 0x20 ADD PUSH1 0x0 KECCAK256 PUSH1 0x0 DUP3 DUP3 SLOAD SUB SWAP3 POP POP DUP2 SWAP1 SSTORE POP PUSH1 0x2 PUSH1 0x0 DUP4 DUP2 MSTORE PUSH1 0x20 ADD SWAP1 DUP2 MSTORE PUSH1 0x20 ADD PUSH1 0x0 KECCAK256 PUSH1 0x0 PUSH2 0x100 EXP DUP2 SLOAD SWAP1 PUSH20 0xFFFFFFFFFFFFFFFFFFFFFFFFFFFFFFFFFFFFFFFF MUL NOT AND SWAP1 SSTORE DUP2 PUSH1 0x0 PUSH20 0xFFFFFFFFFFFFFFFFFFFFFFFFFFFFFFFFFFFFFFFF AND DUP3 PUSH20 0xFFFFFFFFFFFFFFFFFFFFFFFFFFFFFFFFFFFFFFFF AND PUSH32 0xDDF252AD1BE2C89B69C2B068FC378DAA952BA7F163C4A11628F55A4DF523B3EF PUSH1 0x40 MLOAD PUSH1 0x40 MLOAD DUP1 SWAP2 SUB SWAP1 LOG4 PUSH2 0x1DC1 DUP2 PUSH1 0x0 DUP5 PUSH1 0x1 PUSH2 0x23F9 JUMP JUMPDEST POP POP JUMP JUMPDEST PUSH1 0x0 PUSH1 0x2 PUSH1 0x0 DUP4 DUP2 MSTORE PUSH1 0x20 ADD SWAP1 DUP2 MSTORE PUSH1 0x20 ADD PUSH1 0x0 KECCAK256 PUSH1 0x0 SWAP1 SLOAD SWAP1 PUSH2 0x100 EXP SWAP1 DIV PUSH20 0xFFFFFFFFFFFFFFFFFFFFFFFFFFFFFFFFFFFFFFFF AND SWAP1 POP SWAP2 SWAP1 POP JUMP JUMPDEST PUSH32 0x9F2DF0FED2C77648DE5860A4CC508CD0818C85B8B8A1AB4CEEEF8D981C8956A6 PUSH2 0x1E2C DUP2 PUSH2 0x153F JUMP JUMPDEST PUSH2 0x1E4E CALLER PUSH1 0xD PUSH1 0x0 PUSH1 0x8 PUSH1 0x4 ADD SLOAD DUP2 MSTORE PUSH1 0x20 ADD SWAP1 DUP2 MSTORE PUSH1 0x20 ADD PUSH1 0x0 KECCAK256 SLOAD PUSH2 0x23FF JUMP JUMPDEST POP JUMP JUMPDEST PUSH2 0x1E73 CALLER PUSH1 0xD PUSH1 0x0 PUSH1 0x8 PUSH1 0x4 ADD SLOAD DUP2 MSTORE PUSH1 0x20 ADD SWAP1 DUP2 MSTORE PUSH1 0x20 ADD PUSH1 0x0 KECCAK256 SLOAD PUSH2 0x23FF JUMP JUMPDEST JUMP JUMPDEST DUP2 PUSH20 0xFFFFFFFFFFFFFFFFFFFFFFFFFFFFFFFFFFFFFFFF AND DUP4 PUSH20 0xFFFFFFFFFFFFFFFFFFFFFFFFFFFFFFFFFFFFFFFF AND SUB PUSH2 0x1EE3 JUMPI PUSH1 0x40 MLOAD PUSH32 0x8C379A000000000000000000000000000000000000000000000000000000000 DUP2 MSTORE PUSH1 0x4 ADD PUSH2 0x1EDA SWAP1 PUSH2 0x3DA1 JUMP JUMPDEST PUSH1 0x40 MLOAD DUP1 SWAP2 SUB SWAP1 REVERT JUMPDEST DUP1 PUSH1 0x5 PUSH1 0x0 DUP6 PUSH20 0xFFFFFFFFFFFFFFFFFFFFFFFFFFFFFFFFFFFFFFFF AND PUSH20 0xFFFFFFFFFFFFFFFFFFFFFFFFFFFFFFFFFFFFFFFF AND DUP2 MSTORE PUSH1 0x20 ADD SWAP1 DUP2 MSTORE PUSH1 0x20 ADD PUSH1 0x0 KECCAK256 PUSH1 0x0 DUP5 PUSH20 0xFFFFFFFFFFFFFFFFFFFFFFFFFFFFFFFFFFFFFFFF AND PUSH20 0xFFFFFFFFFFFFFFFFFFFFFFFFFFFFFFFFFFFFFFFF AND DUP2 MSTORE PUSH1 0x20 ADD SWAP1 DUP2 MSTORE PUSH1 0x20 ADD PUSH1 0x0 KECCAK256 PUSH1 0x0 PUSH2 0x100 EXP DUP2 SLOAD DUP2 PUSH1 0xFF MUL NOT AND SWAP1 DUP4 ISZERO ISZERO MUL OR SWAP1 SSTORE POP DUP2 PUSH20 0xFFFFFFFFFFFFFFFFFFFFFFFFFFFFFFFFFFFFFFFF AND DUP4 PUSH20 0xFFFFFFFFFFFFFFFFFFFFFFFFFFFFFFFFFFFFFFFF AND PUSH32 0x17307EAB39AB6107E8899845AD3D59BD9653F200F220920489CA2B5937696C31 DUP4 PUSH1 0x40 MLOAD PUSH2 0x1FD4 SWAP2 SWAP1 PUSH2 0x2AB0 JUMP JUMPDEST PUSH1 0x40 MLOAD DUP1 SWAP2 SUB SWAP1 LOG3 POP POP POP JUMP JUMPDEST PUSH2 0x1FEC DUP5 DUP5 DUP5 PUSH2 0x17BB JUMP JUMPDEST PUSH2 0x1FF8 DUP5 DUP5 DUP5 DUP5 PUSH2 0x241D JUMP JUMPDEST PUSH2 0x2037 JUMPI PUSH1 0x40 MLOAD PUSH32 0x8C379A000000000000000000000000000000000000000000000000000000000 DUP2 MSTORE PUSH1 0x4 ADD PUSH2 0x202E SWAP1 PUSH2 0x3E33 JUMP JUMPDEST PUSH1 0x40 MLOAD DUP1 SWAP2 SUB SWAP1 REVERT JUMPDEST POP POP POP POP JUMP JUMPDEST PUSH1 0x60 PUSH1 0x40 MLOAD DUP1 PUSH1 0x80 ADD PUSH1 0x40 MSTORE DUP1 PUSH1 0x44 DUP2 MSTORE PUSH1 0x20 ADD PUSH2 0x41D3 PUSH1 0x44 SWAP2 CODECOPY SWAP1 POP SWAP1 JUMP JUMPDEST PUSH1 0x60 PUSH1 0x0 PUSH1 0x1 PUSH2 0x206C DUP5 PUSH2 0x25A4 JUMP JUMPDEST ADD SWAP1 POP PUSH1 0x0 DUP2 PUSH8 0xFFFFFFFFFFFFFFFF DUP2 GT ISZERO PUSH2 0x208B JUMPI PUSH2 0x208A PUSH2 0x2F70 JUMP JUMPDEST JUMPDEST PUSH1 0x40 MLOAD SWAP1 DUP1 DUP3 MSTORE DUP1 PUSH1 0x1F ADD PUSH1 0x1F NOT AND PUSH1 0x20 ADD DUP3 ADD PUSH1 0x40 MSTORE DUP1 ISZERO PUSH2 0x20BD JUMPI DUP2 PUSH1 0x20 ADD PUSH1 0x1 DUP3 MUL DUP1 CALLDATASIZE DUP4 CALLDATACOPY DUP1 DUP3 ADD SWAP2 POP POP SWAP1 POP JUMPDEST POP SWAP1 POP PUSH1 0x0 DUP3 PUSH1 0x20 ADD DUP3 ADD SWAP1 POP JUMPDEST PUSH1 0x1 ISZERO PUSH2 0x2120 JUMPI DUP1 DUP1 PUSH1 0x1 SWAP1 SUB SWAP2 POP POP PUSH32 0x3031323334353637383961626364656600000000000000000000000000000000 PUSH1 0xA DUP7 MOD BYTE DUP2 MSTORE8 PUSH1 0xA DUP6 DUP2 PUSH2 0x2114 JUMPI PUSH2 0x2113 PUSH2 0x3E53 JUMP JUMPDEST JUMPDEST DIV SWAP5 POP PUSH1 0x0 DUP6 SUB PUSH2 0x20CB JUMPI JUMPDEST DUP2 SWAP4 POP POP POP POP SWAP2 SWAP1 POP JUMP JUMPDEST PUSH1 0x0 PUSH32 0x80AC58CD00000000000000000000000000000000000000000000000000000000 PUSH28 0xFFFFFFFFFFFFFFFFFFFFFFFFFFFFFFFFFFFFFFFFFFFFFFFFFFFFFFFF NOT AND DUP3 PUSH28 0xFFFFFFFFFFFFFFFFFFFFFFFFFFFFFFFFFFFFFFFFFFFFFFFFFFFFFFFF NOT AND EQ DUP1 PUSH2 0x21F6 JUMPI POP PUSH32 0x5B5E139F00000000000000000000000000000000000000000000000000000000 PUSH28 0xFFFFFFFFFFFFFFFFFFFFFFFFFFFFFFFFFFFFFFFFFFFFFFFFFFFFFFFF NOT AND DUP3 PUSH28 0xFFFFFFFFFFFFFFFFFFFFFFFFFFFFFFFFFFFFFFFFFFFFFFFFFFFFFFFF NOT AND EQ JUMPDEST DUP1 PUSH2 0x2206 JUMPI POP PUSH2 0x2205 DUP3 PUSH2 0x26F7 JUMP JUMPDEST JUMPDEST SWAP1 POP SWAP2 SWAP1 POP JUMP JUMPDEST PUSH1 0x0 DUP1 PUSH20 0xFFFFFFFFFFFFFFFFFFFFFFFFFFFFFFFFFFFFFFFF AND PUSH2 0x222F DUP4 PUSH2 0x1DC5 JUMP JUMPDEST PUSH20 0xFFFFFFFFFFFFFFFFFFFFFFFFFFFFFFFFFFFFFFFF AND EQ ISZERO SWAP1 POP SWAP2 SWAP1 POP JUMP JUMPDEST PUSH2 0x2258 DUP3 DUP3 PUSH2 0xDAF JUMP JUMPDEST PUSH2 0x22CF JUMPI PUSH2 0x2265 DUP2 PUSH2 0x1150 JUMP JUMPDEST PUSH2 0x2273 DUP4 PUSH1 0x0 SHR PUSH1 0x20 PUSH2 0x117D JUMP JUMPDEST PUSH1 0x40 MLOAD PUSH1 0x20 ADD PUSH2 0x2284 SWAP3 SWAP2 SWAP1 PUSH2 0x3F1A JUMP JUMPDEST PUSH1 0x40 MLOAD PUSH1 0x20 DUP2 DUP4 SUB SUB DUP2 MSTORE SWAP1 PUSH1 0x40 MSTORE PUSH1 0x40 MLOAD PUSH32 0x8C379A000000000000000000000000000000000000000000000000000000000 DUP2 MSTORE PUSH1 0x4 ADD PUSH2 0x22C6 SWAP2 SWAP1 PUSH2 0x2B5B JUMP JUMPDEST PUSH1 0x40 MLOAD DUP1 SWAP2 SUB SWAP1 REVERT JUMPDEST POP POP JUMP JUMPDEST PUSH1 0x0 DUP1 SHL PUSH2 0x22E0 DUP2 PUSH2 0x153F JUMP JUMPDEST PUSH1 0x0 JUMPDEST PUSH1 0x7 SLOAD DUP2 LT ISZERO PUSH2 0x2318 JUMPI DUP1 PUSH1 0xD PUSH1 0x0 DUP4 DUP2 MSTORE PUSH1 0x20 ADD SWAP1 DUP2 MSTORE PUSH1 0x20 ADD PUSH1 0x0 KECCAK256 DUP2 SWAP1 SSTORE POP DUP1 DUP1 PUSH2 0x2310 SWAP1 PUSH2 0x370C JUMP JUMPDEST SWAP2 POP POP PUSH2 0x22E3 JUMP JUMPDEST POP PUSH1 0x0 PUSH1 0x7 SLOAD SWAP1 POP PUSH1 0x0 JUMPDEST DUP2 DUP2 LT ISZERO PUSH2 0x23EE JUMPI PUSH1 0x0 DUP2 DUP4 PUSH2 0x2339 SWAP2 SWAP1 PUSH2 0x3F54 JUMP JUMPDEST TIMESTAMP PREVRANDAO DUP5 PUSH1 0x40 MLOAD PUSH1 0x20 ADD PUSH2 0x234E SWAP4 SWAP3 SWAP2 SWAP1 PUSH2 0x3FA9 JUMP JUMPDEST PUSH1 0x40 MLOAD PUSH1 0x20 DUP2 DUP4 SUB SUB DUP2 MSTORE SWAP1 PUSH1 0x40 MSTORE DUP1 MLOAD SWAP1 PUSH1 0x20 ADD KECCAK256 PUSH1 0x0 SHR PUSH2 0x2371 SWAP2 SWAP1 PUSH2 0x3FE6 JUMP JUMPDEST DUP3 PUSH2 0x237C SWAP2 SWAP1 PUSH2 0x3888 JUMP JUMPDEST SWAP1 POP PUSH1 0x0 PUSH1 0xD PUSH1 0x0 DUP4 DUP2 MSTORE PUSH1 0x20 ADD SWAP1 DUP2 MSTORE PUSH1 0x20 ADD PUSH1 0x0 KECCAK256 SLOAD SWAP1 POP PUSH1 0xD PUSH1 0x0 DUP5 DUP2 MSTORE PUSH1 0x20 ADD SWAP1 DUP2 MSTORE PUSH1 0x20 ADD PUSH1 0x0 KECCAK256 SLOAD PUSH1 0xD PUSH1 0x0 DUP5 DUP2 MSTORE PUSH1 0x20 ADD SWAP1 DUP2 MSTORE PUSH1 0x20 ADD PUSH1 0x0 KECCAK256 DUP2 SWAP1 SSTORE POP DUP1 PUSH1 0xD PUSH1 0x0 DUP6 DUP2 MSTORE PUSH1 0x20 ADD SWAP1 DUP2 MSTORE PUSH1 0x20 ADD PUSH1 0x0 KECCAK256 DUP2 SWAP1 SSTORE POP POP POP DUP1 DUP1 PUSH2 0x23E6 SWAP1 PUSH2 0x370C JUMP JUMPDEST SWAP2 POP POP PUSH2 0x2323 JUMP JUMPDEST POP POP POP JUMP JUMPDEST POP POP POP POP JUMP JUMPDEST POP POP POP POP JUMP JUMPDEST PUSH2 0x2419 DUP3 DUP3 PUSH1 0x40 MLOAD DUP1 PUSH1 0x20 ADD PUSH1 0x40 MSTORE DUP1 PUSH1 0x0 DUP2 MSTORE POP PUSH2 0x2761 JUMP JUMPDEST POP POP JUMP JUMPDEST PUSH1 0x0 PUSH2 0x243E DUP5 PUSH20 0xFFFFFFFFFFFFFFFFFFFFFFFFFFFFFFFFFFFFFFFF AND PUSH2 0x27BC JUMP JUMPDEST ISZERO PUSH2 0x2597 JUMPI DUP4 PUSH20 0xFFFFFFFFFFFFFFFFFFFFFFFFFFFFFFFFFFFFFFFF AND PUSH4 0x150B7A02 PUSH2 0x2467 PUSH2 0x147E JUMP JUMPDEST DUP8 DUP7 DUP7 PUSH1 0x40 MLOAD DUP6 PUSH4 0xFFFFFFFF AND PUSH1 0xE0 SHL DUP2 MSTORE PUSH1 0x4 ADD PUSH2 0x2489 SWAP5 SWAP4 SWAP3 SWAP2 SWAP1 PUSH2 0x406C JUMP JUMPDEST PUSH1 0x20 PUSH1 0x40 MLOAD DUP1 DUP4 SUB DUP2 PUSH1 0x0 DUP8 GAS CALL SWAP3 POP POP POP DUP1 ISZERO PUSH2 0x24C5 JUMPI POP PUSH1 0x40 MLOAD RETURNDATASIZE PUSH1 0x1F NOT PUSH1 0x1F DUP3 ADD AND DUP3 ADD DUP1 PUSH1 0x40 MSTORE POP DUP2 ADD SWAP1 PUSH2 0x24C2 SWAP2 SWAP1 PUSH2 0x40CD JUMP JUMPDEST PUSH1 0x1 JUMPDEST PUSH2 0x2547 JUMPI RETURNDATASIZE DUP1 PUSH1 0x0 DUP2 EQ PUSH2 0x24F5 JUMPI PUSH1 0x40 MLOAD SWAP2 POP PUSH1 0x1F NOT PUSH1 0x3F RETURNDATASIZE ADD AND DUP3 ADD PUSH1 0x40 MSTORE RETURNDATASIZE DUP3 MSTORE RETURNDATASIZE PUSH1 0x0 PUSH1 0x20 DUP5 ADD RETURNDATACOPY PUSH2 0x24FA JUMP JUMPDEST PUSH1 0x60 SWAP2 POP JUMPDEST POP PUSH1 0x0 DUP2 MLOAD SUB PUSH2 0x253F JUMPI PUSH1 0x40 MLOAD PUSH32 0x8C379A000000000000000000000000000000000000000000000000000000000 DUP2 MSTORE PUSH1 0x4 ADD PUSH2 0x2536 SWAP1 PUSH2 0x3E33 JUMP JUMPDEST PUSH1 0x40 MLOAD DUP1 SWAP2 SUB SWAP1 REVERT JUMPDEST DUP1 MLOAD DUP2 PUSH1 0x20 ADD REVERT JUMPDEST PUSH4 0x150B7A02 PUSH1 0xE0 SHL PUSH28 0xFFFFFFFFFFFFFFFFFFFFFFFFFFFFFFFFFFFFFFFFFFFFFFFFFFFFFFFF NOT AND DUP2 PUSH28 0xFFFFFFFFFFFFFFFFFFFFFFFFFFFFFFFFFFFFFFFFFFFFFFFFFFFFFFFF NOT AND EQ SWAP2 POP POP PUSH2 0x259C JUMP JUMPDEST PUSH1 0x1 SWAP1 POP JUMPDEST SWAP5 SWAP4 POP POP POP POP JUMP JUMPDEST PUSH1 0x0 DUP1 PUSH1 0x0 SWAP1 POP PUSH27 0x184F03E93FF9F4DAA797ED6E38ED64BF6A1F010000000000000000 DUP4 LT PUSH2 0x2602 JUMPI PUSH27 0x184F03E93FF9F4DAA797ED6E38ED64BF6A1F010000000000000000 DUP4 DUP2 PUSH2 0x25F8 JUMPI PUSH2 0x25F7 PUSH2 0x3E53 JUMP JUMPDEST JUMPDEST DIV SWAP3 POP PUSH1 0x40 DUP2 ADD SWAP1 POP JUMPDEST PUSH14 0x4EE2D6D415B85ACEF8100000000 DUP4 LT PUSH2 0x263F JUMPI PUSH14 0x4EE2D6D415B85ACEF8100000000 DUP4 DUP2 PUSH2 0x2635 JUMPI PUSH2 0x2634 PUSH2 0x3E53 JUMP JUMPDEST JUMPDEST DIV SWAP3 POP PUSH1 0x20 DUP2 ADD SWAP1 POP JUMPDEST PUSH7 0x2386F26FC10000 DUP4 LT PUSH2 0x266E JUMPI PUSH7 0x2386F26FC10000 DUP4 DUP2 PUSH2 0x2664 JUMPI PUSH2 0x2663 PUSH2 0x3E53 JUMP JUMPDEST JUMPDEST DIV SWAP3 POP PUSH1 0x10 DUP2 ADD SWAP1 POP JUMPDEST PUSH4 0x5F5E100 DUP4 LT PUSH2 0x2697 JUMPI PUSH4 0x5F5E100 DUP4 DUP2 PUSH2 0x268D JUMPI PUSH2 0x268C PUSH2 0x3E53 JUMP JUMPDEST JUMPDEST DIV SWAP3 POP PUSH1 0x8 DUP2 ADD SWAP1 POP JUMPDEST PUSH2 0x2710 DUP4 LT PUSH2 0x26BC JUMPI PUSH2 0x2710 DUP4 DUP2 PUSH2 0x26B2 JUMPI PUSH2 0x26B1 PUSH2 0x3E53 JUMP JUMPDEST JUMPDEST DIV SWAP3 POP PUSH1 0x4 DUP2 ADD SWAP1 POP JUMPDEST PUSH1 0x64 DUP4 LT PUSH2 0x26DF JUMPI PUSH1 0x64 DUP4 DUP2 PUSH2 0x26D5 JUMPI PUSH2 0x26D4 PUSH2 0x3E53 JUMP JUMPDEST JUMPDEST DIV SWAP3 POP PUSH1 0x2 DUP2 ADD SWAP1 POP JUMPDEST PUSH1 0xA DUP4 LT PUSH2 0x26EE JUMPI PUSH1 0x1 DUP2 ADD SWAP1 POP JUMPDEST DUP1 SWAP2 POP POP SWAP2 SWAP1 POP JUMP JUMPDEST PUSH1 0x0 PUSH32 0x1FFC9A700000000000000000000000000000000000000000000000000000000 PUSH28 0xFFFFFFFFFFFFFFFFFFFFFFFFFFFFFFFFFFFFFFFFFFFFFFFFFFFFFFFF NOT AND DUP3 PUSH28 0xFFFFFFFFFFFFFFFFFFFFFFFFFFFFFFFFFFFFFFFFFFFFFFFFFFFFFFFF NOT AND EQ SWAP1 POP SWAP2 SWAP1 POP JUMP JUMPDEST PUSH2 0x276B DUP4 DUP4 PUSH2 0x27DF JUMP JUMPDEST PUSH2 0x2778 PUSH1 0x0 DUP5 DUP5 DUP5 PUSH2 0x241D JUMP JUMPDEST PUSH2 0x27B7 JUMPI PUSH1 0x40 MLOAD PUSH32 0x8C379A000000000000000000000000000000000000000000000000000000000 DUP2 MSTORE PUSH1 0x4 ADD PUSH2 0x27AE SWAP1 PUSH2 0x3E33 JUMP JUMPDEST PUSH1 0x40 MLOAD DUP1 SWAP2 SUB SWAP1 REVERT JUMPDEST POP POP POP JUMP JUMPDEST PUSH1 0x0 DUP1 DUP3 PUSH20 0xFFFFFFFFFFFFFFFFFFFFFFFFFFFFFFFFFFFFFFFF AND EXTCODESIZE GT SWAP1 POP SWAP2 SWAP1 POP JUMP JUMPDEST PUSH1 0x0 PUSH20 0xFFFFFFFFFFFFFFFFFFFFFFFFFFFFFFFFFFFFFFFF AND DUP3 PUSH20 0xFFFFFFFFFFFFFFFFFFFFFFFFFFFFFFFFFFFFFFFF AND SUB PUSH2 0x284E JUMPI PUSH1 0x40 MLOAD PUSH32 0x8C379A000000000000000000000000000000000000000000000000000000000 DUP2 MSTORE PUSH1 0x4 ADD PUSH2 0x2845 SWAP1 PUSH2 0x4146 JUMP JUMPDEST PUSH1 0x40 MLOAD DUP1 SWAP2 SUB SWAP1 REVERT JUMPDEST PUSH2 0x2857 DUP2 PUSH2 0x220D JUMP JUMPDEST ISZERO PUSH2 0x2897 JUMPI PUSH1 0x40 MLOAD PUSH32 0x8C379A000000000000000000000000000000000000000000000000000000000 DUP2 MSTORE PUSH1 0x4 ADD PUSH2 0x288E SWAP1 PUSH2 0x41B2 JUMP JUMPDEST PUSH1 0x40 MLOAD DUP1 SWAP2 SUB SWAP1 REVERT JUMPDEST PUSH2 0x28A5 PUSH1 0x0 DUP4 DUP4 PUSH1 0x1 PUSH2 0x23F3 JUMP JUMPDEST PUSH2 0x28AE DUP2 PUSH2 0x220D JUMP JUMPDEST ISZERO PUSH2 0x28EE JUMPI PUSH1 0x40 MLOAD PUSH32 0x8C379A000000000000000000000000000000000000000000000000000000000 DUP2 MSTORE PUSH1 0x4 ADD PUSH2 0x28E5 SWAP1 PUSH2 0x41B2 JUMP JUMPDEST PUSH1 0x40 MLOAD DUP1 SWAP2 SUB SWAP1 REVERT JUMPDEST PUSH1 0x1 PUSH1 0x3 PUSH1 0x0 DUP5 PUSH20 0xFFFFFFFFFFFFFFFFFFFFFFFFFFFFFFFFFFFFFFFF AND PUSH20 0xFFFFFFFFFFFFFFFFFFFFFFFFFFFFFFFFFFFFFFFF AND DUP2 MSTORE PUSH1 0x20 ADD SWAP1 DUP2 MSTORE PUSH1 0x20 ADD PUSH1 0x0 KECCAK256 PUSH1 0x0 DUP3 DUP3 SLOAD ADD SWAP3 POP POP DUP2 SWAP1 SSTORE POP DUP2 PUSH1 0x2 PUSH1 0x0 DUP4 DUP2 MSTORE PUSH1 0x20 ADD SWAP1 DUP2 MSTORE PUSH1 0x20 ADD PUSH1 0x0 KECCAK256 PUSH1 0x0 PUSH2 0x100 EXP DUP2 SLOAD DUP2 PUSH20 0xFFFFFFFFFFFFFFFFFFFFFFFFFFFFFFFFFFFFFFFF MUL NOT AND SWAP1 DUP4 PUSH20 0xFFFFFFFFFFFFFFFFFFFFFFFFFFFFFFFFFFFFFFFF AND MUL OR SWAP1 SSTORE POP DUP1 DUP3 PUSH20 0xFFFFFFFFFFFFFFFFFFFFFFFFFFFFFFFFFFFFFFFF AND PUSH1 0x0 PUSH20 0xFFFFFFFFFFFFFFFFFFFFFFFFFFFFFFFFFFFFFFFF AND PUSH32 0xDDF252AD1BE2C89B69C2B068FC378DAA952BA7F163C4A11628F55A4DF523B3EF PUSH1 0x40 MLOAD PUSH1 0x40 MLOAD DUP1 SWAP2 SUB SWAP1 LOG4 PUSH2 0x29F8 PUSH1 0x0 DUP4 DUP4 PUSH1 0x1 PUSH2 0x23F9 JUMP JUMPDEST POP POP JUMP JUMPDEST PUSH1 0x0 PUSH1 0x40 MLOAD SWAP1 POP SWAP1 JUMP JUMPDEST PUSH1 0x0 DUP1 REVERT JUMPDEST PUSH1 0x0 DUP1 REVERT JUMPDEST PUSH1 0x0 PUSH32 0xFFFFFFFF00000000000000000000000000000000000000000000000000000000 DUP3 AND SWAP1 POP SWAP2 SWAP1 POP JUMP JUMPDEST PUSH2 0x2A45 DUP2 PUSH2 0x2A10 JUMP JUMPDEST DUP2 EQ PUSH2 0x2A50 JUMPI PUSH1 0x0 DUP1 REVERT JUMPDEST POP JUMP JUMPDEST PUSH1 0x0 DUP2 CALLDATALOAD SWAP1 POP PUSH2 0x2A62 DUP2 PUSH2 0x2A3C JUMP JUMPDEST SWAP3 SWAP2 POP POP JUMP JUMPDEST PUSH1 0x0 PUSH1 0x20 DUP3 DUP5 SUB SLT ISZERO PUSH2 0x2A7E JUMPI PUSH2 0x2A7D PUSH2 0x2A06 JUMP JUMPDEST JUMPDEST PUSH1 0x0 PUSH2 0x2A8C DUP5 DUP3 DUP6 ADD PUSH2 0x2A53 JUMP JUMPDEST SWAP2 POP POP SWAP3 SWAP2 POP POP JUMP JUMPDEST PUSH1 0x0 DUP2 ISZERO ISZERO SWAP1 POP SWAP2 SWAP1 POP JUMP JUMPDEST PUSH2 0x2AAA DUP2 PUSH2 0x2A95 JUMP JUMPDEST DUP3 MSTORE POP POP JUMP JUMPDEST PUSH1 0x0 PUSH1 0x20 DUP3 ADD SWAP1 POP PUSH2 0x2AC5 PUSH1 0x0 DUP4 ADD DUP5 PUSH2 0x2AA1 JUMP JUMPDEST SWAP3 SWAP2 POP POP JUMP JUMPDEST PUSH1 0x0 DUP2 MLOAD SWAP1 POP SWAP2 SWAP1 POP JUMP JUMPDEST PUSH1 0x0 DUP3 DUP3 MSTORE PUSH1 0x20 DUP3 ADD SWAP1 POP SWAP3 SWAP2 POP POP JUMP JUMPDEST PUSH1 0x0 JUMPDEST DUP4 DUP2 LT ISZERO PUSH2 0x2B05 JUMPI DUP1 DUP3 ADD MLOAD DUP2 DUP5 ADD MSTORE PUSH1 0x20 DUP2 ADD SWAP1 POP PUSH2 0x2AEA JUMP JUMPDEST PUSH1 0x0 DUP5 DUP5 ADD MSTORE POP POP POP POP JUMP JUMPDEST PUSH1 0x0 PUSH1 0x1F NOT PUSH1 0x1F DUP4 ADD AND SWAP1 POP SWAP2 SWAP1 POP JUMP JUMPDEST PUSH1 0x0 PUSH2 0x2B2D DUP3 PUSH2 0x2ACB JUMP JUMPDEST PUSH2 0x2B37 DUP2 DUP6 PUSH2 0x2AD6 JUMP JUMPDEST SWAP4 POP PUSH2 0x2B47 DUP2 DUP6 PUSH1 0x20 DUP7 ADD PUSH2 0x2AE7 JUMP JUMPDEST PUSH2 0x2B50 DUP2 PUSH2 0x2B11 JUMP JUMPDEST DUP5 ADD SWAP2 POP POP SWAP3 SWAP2 POP POP JUMP JUMPDEST PUSH1 0x0 PUSH1 0x20 DUP3 ADD SWAP1 POP DUP2 DUP2 SUB PUSH1 0x0 DUP4 ADD MSTORE PUSH2 0x2B75 DUP2 DUP5 PUSH2 0x2B22 JUMP JUMPDEST SWAP1 POP SWAP3 SWAP2 POP POP JUMP JUMPDEST PUSH1 0x0 DUP2 SWAP1 POP SWAP2 SWAP1 POP JUMP JUMPDEST PUSH2 0x2B90 DUP2 PUSH2 0x2B7D JUMP JUMPDEST DUP2 EQ PUSH2 0x2B9B JUMPI PUSH1 0x0 DUP1 REVERT JUMPDEST POP JUMP JUMPDEST PUSH1 0x0 DUP2 CALLDATALOAD SWAP1 POP PUSH2 0x2BAD DUP2 PUSH2 0x2B87 JUMP JUMPDEST SWAP3 SWAP2 POP POP JUMP JUMPDEST PUSH1 0x0 PUSH1 0x20 DUP3 DUP5 SUB SLT ISZERO PUSH2 0x2BC9 JUMPI PUSH2 0x2BC8 PUSH2 0x2A06 JUMP JUMPDEST JUMPDEST PUSH1 0x0 PUSH2 0x2BD7 DUP5 DUP3 DUP6 ADD PUSH2 0x2B9E JUMP JUMPDEST SWAP2 POP POP SWAP3 SWAP2 POP POP JUMP JUMPDEST PUSH1 0x0 PUSH20 0xFFFFFFFFFFFFFFFFFFFFFFFFFFFFFFFFFFFFFFFF DUP3 AND SWAP1 POP SWAP2 SWAP1 POP JUMP JUMPDEST PUSH1 0x0 PUSH2 0x2C0B DUP3 PUSH2 0x2BE0 JUMP JUMPDEST SWAP1 POP SWAP2 SWAP1 POP JUMP JUMPDEST PUSH2 0x2C1B DUP2 PUSH2 0x2C00 JUMP JUMPDEST DUP3 MSTORE POP POP JUMP JUMPDEST PUSH1 0x0 PUSH1 0x20 DUP3 ADD SWAP1 POP PUSH2 0x2C36 PUSH1 0x0 DUP4 ADD DUP5 PUSH2 0x2C12 JUMP JUMPDEST SWAP3 SWAP2 POP POP JUMP JUMPDEST PUSH2 0x2C45 DUP2 PUSH2 0x2C00 JUMP JUMPDEST DUP2 EQ PUSH2 0x2C50 JUMPI PUSH1 0x0 DUP1 REVERT JUMPDEST POP JUMP JUMPDEST PUSH1 0x0 DUP2 CALLDATALOAD SWAP1 POP PUSH2 0x2C62 DUP2 PUSH2 0x2C3C JUMP JUMPDEST SWAP3 SWAP2 POP POP JUMP JUMPDEST PUSH1 0x0 DUP1 PUSH1 0x40 DUP4 DUP6 SUB SLT ISZERO PUSH2 0x2C7F JUMPI PUSH2 0x2C7E PUSH2 0x2A06 JUMP JUMPDEST JUMPDEST PUSH1 0x0 PUSH2 0x2C8D DUP6 DUP3 DUP7 ADD PUSH2 0x2C53 JUMP JUMPDEST SWAP3 POP POP PUSH1 0x20 PUSH2 0x2C9E DUP6 DUP3 DUP7 ADD PUSH2 0x2B9E JUMP JUMPDEST SWAP2 POP POP SWAP3 POP SWAP3 SWAP1 POP JUMP JUMPDEST PUSH1 0x0 DUP1 PUSH1 0x0 PUSH1 0x60 DUP5 DUP7 SUB SLT ISZERO PUSH2 0x2CC1 JUMPI PUSH2 0x2CC0 PUSH2 0x2A06 JUMP JUMPDEST JUMPDEST PUSH1 0x0 PUSH2 0x2CCF DUP7 DUP3 DUP8 ADD PUSH2 0x2B9E JUMP JUMPDEST SWAP4 POP POP PUSH1 0x20 PUSH2 0x2CE0 DUP7 DUP3 DUP8 ADD PUSH2 0x2B9E JUMP JUMPDEST SWAP3 POP POP PUSH1 0x40 PUSH2 0x2CF1 DUP7 DUP3 DUP8 ADD PUSH2 0x2B9E JUMP JUMPDEST SWAP2 POP POP SWAP3 POP SWAP3 POP SWAP3 JUMP JUMPDEST PUSH2 0x2D04 DUP2 PUSH2 0x2B7D JUMP JUMPDEST DUP3 MSTORE POP POP JUMP JUMPDEST PUSH2 0x2D13 DUP2 PUSH2 0x2B7D JUMP JUMPDEST DUP3 MSTORE POP POP JUMP JUMPDEST PUSH1 0x60 DUP3 ADD PUSH1 0x0 DUP3 ADD MLOAD PUSH2 0x2D2F PUSH1 0x0 DUP6 ADD DUP3 PUSH2 0x2D0A JUMP JUMPDEST POP PUSH1 0x20 DUP3 ADD MLOAD PUSH2 0x2D42 PUSH1 0x20 DUP6 ADD DUP3 PUSH2 0x2D0A JUMP JUMPDEST POP PUSH1 0x40 DUP3 ADD MLOAD PUSH2 0x2D55 PUSH1 0x40 DUP6 ADD DUP3 PUSH2 0x2D0A JUMP JUMPDEST POP POP POP POP JUMP JUMPDEST PUSH1 0x0 PUSH1 0xA0 DUP3 ADD SWAP1 POP PUSH2 0x2D70 PUSH1 0x0 DUP4 ADD DUP7 PUSH2 0x2CFB JUMP JUMPDEST PUSH2 0x2D7D PUSH1 0x20 DUP4 ADD DUP6 PUSH2 0x2D19 JUMP JUMPDEST PUSH2 0x2D8A PUSH1 0x80 DUP4 ADD DUP5 PUSH2 0x2CFB JUMP JUMPDEST SWAP5 SWAP4 POP POP POP POP JUMP JUMPDEST PUSH1 0x0 PUSH1 0x20 DUP3 ADD SWAP1 POP PUSH2 0x2DA7 PUSH1 0x0 DUP4 ADD DUP5 PUSH2 0x2CFB JUMP JUMPDEST SWAP3 SWAP2 POP POP JUMP JUMPDEST PUSH1 0x0 DUP1 PUSH1 0x0 PUSH1 0x60 DUP5 DUP7 SUB SLT ISZERO PUSH2 0x2DC6 JUMPI PUSH2 0x2DC5 PUSH2 0x2A06 JUMP JUMPDEST JUMPDEST PUSH1 0x0 PUSH2 0x2DD4 DUP7 DUP3 DUP8 ADD PUSH2 0x2C53 JUMP JUMPDEST SWAP4 POP POP PUSH1 0x20 PUSH2 0x2DE5 DUP7 DUP3 DUP8 ADD PUSH2 0x2C53 JUMP JUMPDEST SWAP3 POP POP PUSH1 0x40 PUSH2 0x2DF6 DUP7 DUP3 DUP8 ADD PUSH2 0x2B9E JUMP JUMPDEST SWAP2 POP POP SWAP3 POP SWAP3 POP SWAP3 JUMP JUMPDEST PUSH1 0x0 DUP2 SWAP1 POP SWAP2 SWAP1 POP JUMP JUMPDEST PUSH2 0x2E13 DUP2 PUSH2 0x2E00 JUMP JUMPDEST DUP2 EQ PUSH2 0x2E1E JUMPI PUSH1 0x0 DUP1 REVERT JUMPDEST POP JUMP JUMPDEST PUSH1 0x0 DUP2 CALLDATALOAD SWAP1 POP PUSH2 0x2E30 DUP2 PUSH2 0x2E0A JUMP JUMPDEST SWAP3 SWAP2 POP POP JUMP JUMPDEST PUSH1 0x0 PUSH1 0x20 DUP3 DUP5 SUB SLT ISZERO PUSH2 0x2E4C JUMPI PUSH2 0x2E4B PUSH2 0x2A06 JUMP JUMPDEST JUMPDEST PUSH1 0x0 PUSH2 0x2E5A DUP5 DUP3 DUP6 ADD PUSH2 0x2E21 JUMP JUMPDEST SWAP2 POP POP SWAP3 SWAP2 POP POP JUMP JUMPDEST PUSH2 0x2E6C DUP2 PUSH2 0x2E00 JUMP JUMPDEST DUP3 MSTORE POP POP JUMP JUMPDEST PUSH1 0x0 PUSH1 0x20 DUP3 ADD SWAP1 POP PUSH2 0x2E87 PUSH1 0x0 DUP4 ADD DUP5 PUSH2 0x2E63 JUMP JUMPDEST SWAP3 SWAP2 POP POP JUMP JUMPDEST PUSH1 0x0 DUP1 PUSH1 0x40 DUP4 DUP6 SUB SLT ISZERO PUSH2 0x2EA4 JUMPI PUSH2 0x2EA3 PUSH2 0x2A06 JUMP JUMPDEST JUMPDEST PUSH1 0x0 PUSH2 0x2EB2 DUP6 DUP3 DUP7 ADD PUSH2 0x2E21 JUMP JUMPDEST SWAP3 POP POP PUSH1 0x20 PUSH2 0x2EC3 DUP6 DUP3 DUP7 ADD PUSH2 0x2C53 JUMP JUMPDEST SWAP2 POP POP SWAP3 POP SWAP3 SWAP1 POP JUMP JUMPDEST PUSH1 0x0 PUSH1 0x20 DUP3 DUP5 SUB SLT ISZERO PUSH2 0x2EE3 JUMPI PUSH2 0x2EE2 PUSH2 0x2A06 JUMP JUMPDEST JUMPDEST PUSH1 0x0 PUSH2 0x2EF1 DUP5 DUP3 DUP6 ADD PUSH2 0x2C53 JUMP JUMPDEST SWAP2 POP POP SWAP3 SWAP2 POP POP JUMP JUMPDEST PUSH2 0x2F03 DUP2 PUSH2 0x2A95 JUMP JUMPDEST DUP2 EQ PUSH2 0x2F0E JUMPI PUSH1 0x0 DUP1 REVERT JUMPDEST POP JUMP JUMPDEST PUSH1 0x0 DUP2 CALLDATALOAD SWAP1 POP PUSH2 0x2F20 DUP2 PUSH2 0x2EFA JUMP JUMPDEST SWAP3 SWAP2 POP POP JUMP JUMPDEST PUSH1 0x0 DUP1 PUSH1 0x40 DUP4 DUP6 SUB SLT ISZERO PUSH2 0x2F3D JUMPI PUSH2 0x2F3C PUSH2 0x2A06 JUMP JUMPDEST JUMPDEST PUSH1 0x0 PUSH2 0x2F4B DUP6 DUP3 DUP7 ADD PUSH2 0x2C53 JUMP JUMPDEST SWAP3 POP POP PUSH1 0x20 PUSH2 0x2F5C DUP6 DUP3 DUP7 ADD PUSH2 0x2F11 JUMP JUMPDEST SWAP2 POP POP SWAP3 POP SWAP3 SWAP1 POP JUMP JUMPDEST PUSH1 0x0 DUP1 REVERT JUMPDEST PUSH1 0x0 DUP1 REVERT JUMPDEST PUSH32 0x4E487B7100000000000000000000000000000000000000000000000000000000 PUSH1 0x0 MSTORE PUSH1 0x41 PUSH1 0x4 MSTORE PUSH1 0x24 PUSH1 0x0 REVERT JUMPDEST PUSH2 0x2FA8 DUP3 PUSH2 0x2B11 JUMP JUMPDEST DUP2 ADD DUP2 DUP2 LT PUSH8 0xFFFFFFFFFFFFFFFF DUP3 GT OR ISZERO PUSH2 0x2FC7 JUMPI PUSH2 0x2FC6 PUSH2 0x2F70 JUMP JUMPDEST JUMPDEST DUP1 PUSH1 0x40 MSTORE POP POP POP JUMP JUMPDEST PUSH1 0x0 PUSH2 0x2FDA PUSH2 0x29FC JUMP JUMPDEST SWAP1 POP PUSH2 0x2FE6 DUP3 DUP3 PUSH2 0x2F9F JUMP JUMPDEST SWAP2 SWAP1 POP JUMP JUMPDEST PUSH1 0x0 PUSH8 0xFFFFFFFFFFFFFFFF DUP3 GT ISZERO PUSH2 0x3006 JUMPI PUSH2 0x3005 PUSH2 0x2F70 JUMP JUMPDEST JUMPDEST PUSH2 0x300F DUP3 PUSH2 0x2B11 JUMP JUMPDEST SWAP1 POP PUSH1 0x20 DUP2 ADD SWAP1 POP SWAP2 SWAP1 POP JUMP JUMPDEST DUP3 DUP2 DUP4 CALLDATACOPY PUSH1 0x0 DUP4 DUP4 ADD MSTORE POP POP POP JUMP JUMPDEST PUSH1 0x0 PUSH2 0x303E PUSH2 0x3039 DUP5 PUSH2 0x2FEB JUMP JUMPDEST PUSH2 0x2FD0 JUMP JUMPDEST SWAP1 POP DUP3 DUP2 MSTORE PUSH1 0x20 DUP2 ADD DUP5 DUP5 DUP5 ADD GT ISZERO PUSH2 0x305A JUMPI PUSH2 0x3059 PUSH2 0x2F6B JUMP JUMPDEST JUMPDEST PUSH2 0x3065 DUP5 DUP3 DUP6 PUSH2 0x301C JUMP JUMPDEST POP SWAP4 SWAP3 POP POP POP JUMP JUMPDEST PUSH1 0x0 DUP3 PUSH1 0x1F DUP4 ADD SLT PUSH2 0x3082 JUMPI PUSH2 0x3081 PUSH2 0x2F66 JUMP JUMPDEST JUMPDEST DUP2 CALLDATALOAD PUSH2 0x3092 DUP5 DUP3 PUSH1 0x20 DUP7 ADD PUSH2 0x302B JUMP JUMPDEST SWAP2 POP POP SWAP3 SWAP2 POP POP JUMP JUMPDEST PUSH1 0x0 DUP1 PUSH1 0x0 DUP1 PUSH1 0x80 DUP6 DUP8 SUB SLT ISZERO PUSH2 0x30B5 JUMPI PUSH2 0x30B4 PUSH2 0x2A06 JUMP JUMPDEST JUMPDEST PUSH1 0x0 PUSH2 0x30C3 DUP8 DUP3 DUP9 ADD PUSH2 0x2C53 JUMP JUMPDEST SWAP5 POP POP PUSH1 0x20 PUSH2 0x30D4 DUP8 DUP3 DUP9 ADD PUSH2 0x2C53 JUMP JUMPDEST SWAP4 POP POP PUSH1 0x40 PUSH2 0x30E5 DUP8 DUP3 DUP9 ADD PUSH2 0x2B9E JUMP JUMPDEST SWAP3 POP POP PUSH1 0x60 DUP6 ADD CALLDATALOAD PUSH8 0xFFFFFFFFFFFFFFFF DUP2 GT ISZERO PUSH2 0x3106 JUMPI PUSH2 0x3105 PUSH2 0x2A0B JUMP JUMPDEST JUMPDEST PUSH2 0x3112 DUP8 DUP3 DUP9 ADD PUSH2 0x306D JUMP JUMPDEST SWAP2 POP POP SWAP3 SWAP6 SWAP2 SWAP5 POP SWAP3 POP JUMP JUMPDEST PUSH1 0x0 DUP1 PUSH1 0x40 DUP4 DUP6 SUB SLT ISZERO PUSH2 0x3135 JUMPI PUSH2 0x3134 PUSH2 0x2A06 JUMP JUMPDEST JUMPDEST PUSH1 0x0 PUSH2 0x3143 DUP6 DUP3 DUP7 ADD PUSH2 0x2C53 JUMP JUMPDEST SWAP3 POP POP PUSH1 0x20 PUSH2 0x3154 DUP6 DUP3 DUP7 ADD PUSH2 0x2C53 JUMP JUMPDEST SWAP2 POP POP SWAP3 POP SWAP3 SWAP1 POP JUMP JUMPDEST PUSH32 0x4E487B7100000000000000000000000000000000000000000000000000000000 PUSH1 0x0 MSTORE PUSH1 0x22 PUSH1 0x4 MSTORE PUSH1 0x24 PUSH1 0x0 REVERT JUMPDEST PUSH1 0x0 PUSH1 0x2 DUP3 DIV SWAP1 POP PUSH1 0x1 DUP3 AND DUP1 PUSH2 0x31A5 JUMPI PUSH1 0x7F DUP3 AND SWAP2 POP JUMPDEST PUSH1 0x20 DUP3 LT DUP2 SUB PUSH2 0x31B8 JUMPI PUSH2 0x31B7 PUSH2 0x315E JUMP JUMPDEST JUMPDEST POP SWAP2 SWAP1 POP JUMP JUMPDEST PUSH32 0x4552433732313A20617070726F76616C20746F2063757272656E74206F776E65 PUSH1 0x0 DUP3 ADD MSTORE PUSH32 0x7200000000000000000000000000000000000000000000000000000000000000 PUSH1 0x20 DUP3 ADD MSTORE POP JUMP JUMPDEST PUSH1 0x0 PUSH2 0x321A PUSH1 0x21 DUP4 PUSH2 0x2AD6 JUMP JUMPDEST SWAP2 POP PUSH2 0x3225 DUP3 PUSH2 0x31BE JUMP JUMPDEST PUSH1 0x40 DUP3 ADD SWAP1 POP SWAP2 SWAP1 POP JUMP JUMPDEST PUSH1 0x0 PUSH1 0x20 DUP3 ADD SWAP1 POP DUP2 DUP2 SUB PUSH1 0x0 DUP4 ADD MSTORE PUSH2 0x3249 DUP2 PUSH2 0x320D JUMP JUMPDEST SWAP1 POP SWAP2 SWAP1 POP JUMP JUMPDEST PUSH32 0x4552433732313A20617070726F76652063616C6C6572206973206E6F7420746F PUSH1 0x0 DUP3 ADD MSTORE PUSH32 0x6B656E206F776E6572206F7220617070726F76656420666F7220616C6C000000 PUSH1 0x20 DUP3 ADD MSTORE POP JUMP JUMPDEST PUSH1 0x0 PUSH2 0x32AC PUSH1 0x3D DUP4 PUSH2 0x2AD6 JUMP JUMPDEST SWAP2 POP PUSH2 0x32B7 DUP3 PUSH2 0x3250 JUMP JUMPDEST PUSH1 0x40 DUP3 ADD SWAP1 POP SWAP2 SWAP1 POP JUMP JUMPDEST PUSH1 0x0 PUSH1 0x20 DUP3 ADD SWAP1 POP DUP2 DUP2 SUB PUSH1 0x0 DUP4 ADD MSTORE PUSH2 0x32DB DUP2 PUSH2 0x329F JUMP JUMPDEST SWAP1 POP SWAP2 SWAP1 POP JUMP JUMPDEST PUSH32 0x4552433732313A2063616C6C6572206973206E6F7420746F6B656E206F776E65 PUSH1 0x0 DUP3 ADD MSTORE PUSH32 0x72206F7220617070726F76656400000000000000000000000000000000000000 PUSH1 0x20 DUP3 ADD MSTORE POP JUMP JUMPDEST PUSH1 0x0 PUSH2 0x333E PUSH1 0x2D DUP4 PUSH2 0x2AD6 JUMP JUMPDEST SWAP2 POP PUSH2 0x3349 DUP3 PUSH2 0x32E2 JUMP JUMPDEST PUSH1 0x40 DUP3 ADD SWAP1 POP SWAP2 SWAP1 POP JUMP JUMPDEST PUSH1 0x0 PUSH1 0x20 DUP3 ADD SWAP1 POP DUP2 DUP2 SUB PUSH1 0x0 DUP4 ADD MSTORE PUSH2 0x336D DUP2 PUSH2 0x3331 JUMP JUMPDEST SWAP1 POP SWAP2 SWAP1 POP JUMP JUMPDEST PUSH32 0x416363657373436F6E74726F6C3A2063616E206F6E6C792072656E6F756E6365 PUSH1 0x0 DUP3 ADD MSTORE PUSH32 0x20726F6C657320666F722073656C660000000000000000000000000000000000 PUSH1 0x20 DUP3 ADD MSTORE POP JUMP JUMPDEST PUSH1 0x0 PUSH2 0x33D0 PUSH1 0x2F DUP4 PUSH2 0x2AD6 JUMP JUMPDEST SWAP2 POP PUSH2 0x33DB DUP3 PUSH2 0x3374 JUMP JUMPDEST PUSH1 0x40 DUP3 ADD SWAP1 POP SWAP2 SWAP1 POP JUMP JUMPDEST PUSH1 0x0 PUSH1 0x20 DUP3 ADD SWAP1 POP DUP2 DUP2 SUB PUSH1 0x0 DUP4 ADD MSTORE PUSH2 0x33FF DUP2 PUSH2 0x33C3 JUMP JUMPDEST SWAP1 POP SWAP2 SWAP1 POP JUMP JUMPDEST PUSH32 0x4E6F20746F6B656E20746F206275726E00000000000000000000000000000000 PUSH1 0x0 DUP3 ADD MSTORE POP JUMP JUMPDEST PUSH1 0x0 PUSH2 0x343C PUSH1 0x10 DUP4 PUSH2 0x2AD6 JUMP JUMPDEST SWAP2 POP PUSH2 0x3447 DUP3 PUSH2 0x3406 JUMP JUMPDEST PUSH1 0x20 DUP3 ADD SWAP1 POP SWAP2 SWAP1 POP JUMP JUMPDEST PUSH1 0x0 PUSH1 0x20 DUP3 ADD SWAP1 POP DUP2 DUP2 SUB PUSH1 0x0 DUP4 ADD MSTORE PUSH2 0x346B DUP2 PUSH2 0x342F JUMP JUMPDEST SWAP1 POP SWAP2 SWAP1 POP JUMP JUMPDEST PUSH32 0x4E487B7100000000000000000000000000000000000000000000000000000000 PUSH1 0x0 MSTORE PUSH1 0x11 PUSH1 0x4 MSTORE PUSH1 0x24 PUSH1 0x0 REVERT JUMPDEST PUSH1 0x0 PUSH2 0x34AC DUP3 PUSH2 0x2B7D JUMP JUMPDEST SWAP2 POP PUSH1 0x0 DUP3 SUB PUSH2 0x34BF JUMPI PUSH2 0x34BE PUSH2 0x3472 JUMP JUMPDEST JUMPDEST PUSH1 0x1 DUP3 SUB SWAP1 POP SWAP2 SWAP1 POP JUMP JUMPDEST PUSH32 0x4552433732313A20696E76616C696420746F6B656E2049440000000000000000 PUSH1 0x0 DUP3 ADD MSTORE POP JUMP JUMPDEST PUSH1 0x0 PUSH2 0x3500 PUSH1 0x18 DUP4 PUSH2 0x2AD6 JUMP JUMPDEST SWAP2 POP PUSH2 0x350B DUP3 PUSH2 0x34CA JUMP JUMPDEST PUSH1 0x20 DUP3 ADD SWAP1 POP SWAP2 SWAP1 POP JUMP JUMPDEST PUSH1 0x0 PUSH1 0x20 DUP3 ADD SWAP1 POP DUP2 DUP2 SUB PUSH1 0x0 DUP4 ADD MSTORE PUSH2 0x352F DUP2 PUSH2 0x34F3 JUMP JUMPDEST SWAP1 POP SWAP2 SWAP1 POP JUMP JUMPDEST PUSH32 0x4D696E74206861732065697468657220656E646564206F72206E6F7420737461 PUSH1 0x0 DUP3 ADD MSTORE PUSH32 0x7274656400000000000000000000000000000000000000000000000000000000 PUSH1 0x20 DUP3 ADD MSTORE POP JUMP JUMPDEST PUSH1 0x0 PUSH2 0x3592 PUSH1 0x24 DUP4 PUSH2 0x2AD6 JUMP JUMPDEST SWAP2 POP PUSH2 0x359D DUP3 PUSH2 0x3536 JUMP JUMPDEST PUSH1 0x40 DUP3 ADD SWAP1 POP SWAP2 SWAP1 POP JUMP JUMPDEST PUSH1 0x0 PUSH1 0x20 DUP3 ADD SWAP1 POP DUP2 DUP2 SUB PUSH1 0x0 DUP4 ADD MSTORE PUSH2 0x35C1 DUP2 PUSH2 0x3585 JUMP JUMPDEST SWAP1 POP SWAP2 SWAP1 POP JUMP JUMPDEST PUSH32 0x596F75277665206D696E74656421000000000000000000000000000000000000 PUSH1 0x0 DUP3 ADD MSTORE POP JUMP JUMPDEST PUSH1 0x0 PUSH2 0x35FE PUSH1 0xE DUP4 PUSH2 0x2AD6 JUMP JUMPDEST SWAP2 POP PUSH2 0x3609 DUP3 PUSH2 0x35C8 JUMP JUMPDEST PUSH1 0x20 DUP3 ADD SWAP1 POP SWAP2 SWAP1 POP JUMP JUMPDEST PUSH1 0x0 PUSH1 0x20 DUP3 ADD SWAP1 POP DUP2 DUP2 SUB PUSH1 0x0 DUP4 ADD MSTORE PUSH2 0x362D DUP2 PUSH2 0x35F1 JUMP JUMPDEST SWAP1 POP SWAP2 SWAP1 POP JUMP JUMPDEST PUSH32 0x416C6C20746F6B656E2068617665206265656E206D696E746564000000000000 PUSH1 0x0 DUP3 ADD MSTORE POP JUMP JUMPDEST PUSH1 0x0 PUSH2 0x366A PUSH1 0x1A DUP4 PUSH2 0x2AD6 JUMP JUMPDEST SWAP2 POP PUSH2 0x3675 DUP3 PUSH2 0x3634 JUMP JUMPDEST PUSH1 0x20 DUP3 ADD SWAP1 POP SWAP2 SWAP1 POP JUMP JUMPDEST PUSH1 0x0 PUSH1 0x20 DUP3 ADD SWAP1 POP DUP2 DUP2 SUB PUSH1 0x0 DUP4 ADD MSTORE PUSH2 0x3699 DUP2 PUSH2 0x365D JUMP JUMPDEST SWAP1 POP SWAP2 SWAP1 POP JUMP JUMPDEST PUSH32 0x496E76616C696420616D6F756E74000000000000000000000000000000000000 PUSH1 0x0 DUP3 ADD MSTORE POP JUMP JUMPDEST PUSH1 0x0 PUSH2 0x36D6 PUSH1 0xE DUP4 PUSH2 0x2AD6 JUMP JUMPDEST SWAP2 POP PUSH2 0x36E1 DUP3 PUSH2 0x36A0 JUMP JUMPDEST PUSH1 0x20 DUP3 ADD SWAP1 POP SWAP2 SWAP1 POP JUMP JUMPDEST PUSH1 0x0 PUSH1 0x20 DUP3 ADD SWAP1 POP DUP2 DUP2 SUB PUSH1 0x0 DUP4 ADD MSTORE PUSH2 0x3705 DUP2 PUSH2 0x36C9 JUMP JUMPDEST SWAP1 POP SWAP2 SWAP1 POP JUMP JUMPDEST PUSH1 0x0 PUSH2 0x3717 DUP3 PUSH2 0x2B7D JUMP JUMPDEST SWAP2 POP PUSH32 0xFFFFFFFFFFFFFFFFFFFFFFFFFFFFFFFFFFFFFFFFFFFFFFFFFFFFFFFFFFFFFFFF DUP3 SUB PUSH2 0x3749 JUMPI PUSH2 0x3748 PUSH2 0x3472 JUMP JUMPDEST JUMPDEST PUSH1 0x1 DUP3 ADD SWAP1 POP SWAP2 SWAP1 POP JUMP JUMPDEST PUSH32 0x4552433732313A2061646472657373207A65726F206973206E6F742061207661 PUSH1 0x0 DUP3 ADD MSTORE PUSH32 0x6C6964206F776E65720000000000000000000000000000000000000000000000 PUSH1 0x20 DUP3 ADD MSTORE POP JUMP JUMPDEST PUSH1 0x0 PUSH2 0x37B0 PUSH1 0x29 DUP4 PUSH2 0x2AD6 JUMP JUMPDEST SWAP2 POP PUSH2 0x37BB DUP3 PUSH2 0x3754 JUMP JUMPDEST PUSH1 0x40 DUP3 ADD SWAP1 POP SWAP2 SWAP1 POP JUMP JUMPDEST PUSH1 0x0 PUSH1 0x20 DUP3 ADD SWAP1 POP DUP2 DUP2 SUB PUSH1 0x0 DUP4 ADD MSTORE PUSH2 0x37DF DUP2 PUSH2 0x37A3 JUMP JUMPDEST SWAP1 POP SWAP2 SWAP1 POP JUMP JUMPDEST PUSH1 0x0 DUP2 SWAP1 POP SWAP3 SWAP2 POP POP JUMP JUMPDEST PUSH1 0x0 PUSH2 0x37FC DUP3 PUSH2 0x2ACB JUMP JUMPDEST PUSH2 0x3806 DUP2 DUP6 PUSH2 0x37E6 JUMP JUMPDEST SWAP4 POP PUSH2 0x3816 DUP2 DUP6 PUSH1 0x20 DUP7 ADD PUSH2 0x2AE7 JUMP JUMPDEST DUP1 DUP5 ADD SWAP2 POP POP SWAP3 SWAP2 POP POP JUMP JUMPDEST PUSH1 0x0 PUSH2 0x382E DUP3 DUP6 PUSH2 0x37F1 JUMP JUMPDEST SWAP2 POP PUSH2 0x383A DUP3 DUP5 PUSH2 0x37F1 JUMP JUMPDEST SWAP2 POP DUP2 SWAP1 POP SWAP4 SWAP3 POP POP POP JUMP JUMPDEST PUSH1 0x0 PUSH2 0x3851 DUP3 PUSH2 0x2B7D JUMP JUMPDEST SWAP2 POP PUSH2 0x385C DUP4 PUSH2 0x2B7D JUMP JUMPDEST SWAP3 POP DUP3 DUP3 MUL PUSH2 0x386A DUP2 PUSH2 0x2B7D JUMP JUMPDEST SWAP2 POP DUP3 DUP3 DIV DUP5 EQ DUP4 ISZERO OR PUSH2 0x3881 JUMPI PUSH2 0x3880 PUSH2 0x3472 JUMP JUMPDEST JUMPDEST POP SWAP3 SWAP2 POP POP JUMP JUMPDEST PUSH1 0x0 PUSH2 0x3893 DUP3 PUSH2 0x2B7D JUMP JUMPDEST SWAP2 POP PUSH2 0x389E DUP4 PUSH2 0x2B7D JUMP JUMPDEST SWAP3 POP DUP3 DUP3 ADD SWAP1 POP DUP1 DUP3 GT ISZERO PUSH2 0x38B6 JUMPI PUSH2 0x38B5 PUSH2 0x3472 JUMP JUMPDEST JUMPDEST SWAP3 SWAP2 POP POP JUMP JUMPDEST PUSH32 0x4E487B7100000000000000000000000000000000000000000000000000000000 PUSH1 0x0 MSTORE PUSH1 0x32 PUSH1 0x4 MSTORE PUSH1 0x24 PUSH1 0x0 REVERT JUMPDEST PUSH32 0x537472696E67733A20686578206C656E67746820696E73756666696369656E74 PUSH1 0x0 DUP3 ADD MSTORE POP JUMP JUMPDEST PUSH1 0x0 PUSH2 0x3921 PUSH1 0x20 DUP4 PUSH2 0x2AD6 JUMP JUMPDEST SWAP2 POP PUSH2 0x392C DUP3 PUSH2 0x38EB JUMP JUMPDEST PUSH1 0x20 DUP3 ADD SWAP1 POP SWAP2 SWAP1 POP JUMP JUMPDEST PUSH1 0x0 PUSH1 0x20 DUP3 ADD SWAP1 POP DUP2 DUP2 SUB PUSH1 0x0 DUP4 ADD MSTORE PUSH2 0x3950 DUP2 PUSH2 0x3914 JUMP JUMPDEST SWAP1 POP SWAP2 SWAP1 POP JUMP JUMPDEST PUSH32 0x746F74616C20737570706C79206D757374206265206772656174657220746861 PUSH1 0x0 DUP3 ADD MSTORE PUSH32 0x6E207A65726F7300000000000000000000000000000000000000000000000000 PUSH1 0x20 DUP3 ADD MSTORE POP JUMP JUMPDEST PUSH1 0x0 PUSH2 0x39B3 PUSH1 0x27 DUP4 PUSH2 0x2AD6 JUMP JUMPDEST SWAP2 POP PUSH2 0x39BE DUP3 PUSH2 0x3957 JUMP JUMPDEST PUSH1 0x40 DUP3 ADD SWAP1 POP SWAP2 SWAP1 POP JUMP JUMPDEST PUSH1 0x0 PUSH1 0x20 DUP3 ADD SWAP1 POP DUP2 DUP2 SUB PUSH1 0x0 DUP4 ADD MSTORE PUSH2 0x39E2 DUP2 PUSH2 0x39A6 JUMP JUMPDEST SWAP1 POP SWAP2 SWAP1 POP JUMP JUMPDEST PUSH32 0x6D696E74207072696365206D7573742062652067726561746572207468616E20 PUSH1 0x0 DUP3 ADD MSTORE PUSH32 0x7A65726F00000000000000000000000000000000000000000000000000000000 PUSH1 0x20 DUP3 ADD MSTORE POP JUMP JUMPDEST PUSH1 0x0 PUSH2 0x3A45 PUSH1 0x24 DUP4 PUSH2 0x2AD6 JUMP JUMPDEST SWAP2 POP PUSH2 0x3A50 DUP3 PUSH2 0x39E9 JUMP JUMPDEST PUSH1 0x40 DUP3 ADD SWAP1 POP SWAP2 SWAP1 POP JUMP JUMPDEST PUSH1 0x0 PUSH1 0x20 DUP3 ADD SWAP1 POP DUP2 DUP2 SUB PUSH1 0x0 DUP4 ADD MSTORE PUSH2 0x3A74 DUP2 PUSH2 0x3A38 JUMP JUMPDEST SWAP1 POP SWAP2 SWAP1 POP JUMP JUMPDEST PUSH32 0x6D696E742073746172742074696D65206D757374206265206772656174657220 PUSH1 0x0 DUP3 ADD MSTORE PUSH32 0x7468616E2063757272656E742074696D65000000000000000000000000000000 PUSH1 0x20 DUP3 ADD MSTORE POP JUMP JUMPDEST PUSH1 0x0 PUSH2 0x3AD7 PUSH1 0x31 DUP4 PUSH2 0x2AD6 JUMP JUMPDEST SWAP2 POP PUSH2 0x3AE2 DUP3 PUSH2 0x3A7B JUMP JUMPDEST PUSH1 0x40 DUP3 ADD SWAP1 POP SWAP2 SWAP1 POP JUMP JUMPDEST PUSH1 0x0 PUSH1 0x20 DUP3 ADD SWAP1 POP DUP2 DUP2 SUB PUSH1 0x0 DUP4 ADD MSTORE PUSH2 0x3B06 DUP2 PUSH2 0x3ACA JUMP JUMPDEST SWAP1 POP SWAP2 SWAP1 POP JUMP JUMPDEST PUSH32 0x70726573616C65206D7573742062652067726561746572207468616E207A6572 PUSH1 0x0 DUP3 ADD MSTORE PUSH32 0x6F00000000000000000000000000000000000000000000000000000000000000 PUSH1 0x20 DUP3 ADD MSTORE POP JUMP JUMPDEST PUSH1 0x0 PUSH2 0x3B69 PUSH1 0x21 DUP4 PUSH2 0x2AD6 JUMP JUMPDEST SWAP2 POP PUSH2 0x3B74 DUP3 PUSH2 0x3B0D JUMP JUMPDEST PUSH1 0x40 DUP3 ADD SWAP1 POP SWAP2 SWAP1 POP JUMP JUMPDEST PUSH1 0x0 PUSH1 0x20 DUP3 ADD SWAP1 POP DUP2 DUP2 SUB PUSH1 0x0 DUP4 ADD MSTORE PUSH2 0x3B98 DUP2 PUSH2 0x3B5C JUMP JUMPDEST SWAP1 POP SWAP2 SWAP1 POP JUMP JUMPDEST PUSH32 0x7075626C696373616C65206D7573742062652067726561746572207468616E20 PUSH1 0x0 DUP3 ADD MSTORE PUSH32 0x7A65726F00000000000000000000000000000000000000000000000000000000 PUSH1 0x20 DUP3 ADD MSTORE POP JUMP JUMPDEST PUSH1 0x0 PUSH2 0x3BFB PUSH1 0x24 DUP4 PUSH2 0x2AD6 JUMP JUMPDEST SWAP2 POP PUSH2 0x3C06 DUP3 PUSH2 0x3B9F JUMP JUMPDEST PUSH1 0x40 DUP3 ADD SWAP1 POP SWAP2 SWAP1 POP JUMP JUMPDEST PUSH1 0x0 PUSH1 0x20 DUP3 ADD SWAP1 POP DUP2 DUP2 SUB PUSH1 0x0 DUP4 ADD MSTORE PUSH2 0x3C2A DUP2 PUSH2 0x3BEE JUMP JUMPDEST SWAP1 POP SWAP2 SWAP1 POP JUMP JUMPDEST PUSH32 0x4552433732313A207472616E736665722066726F6D20696E636F727265637420 PUSH1 0x0 DUP3 ADD MSTORE PUSH32 0x6F776E6572000000000000000000000000000000000000000000000000000000 PUSH1 0x20 DUP3 ADD MSTORE POP JUMP JUMPDEST PUSH1 0x0 PUSH2 0x3C8D PUSH1 0x25 DUP4 PUSH2 0x2AD6 JUMP JUMPDEST SWAP2 POP PUSH2 0x3C98 DUP3 PUSH2 0x3C31 JUMP JUMPDEST PUSH1 0x40 DUP3 ADD SWAP1 POP SWAP2 SWAP1 POP JUMP JUMPDEST PUSH1 0x0 PUSH1 0x20 DUP3 ADD SWAP1 POP DUP2 DUP2 SUB PUSH1 0x0 DUP4 ADD MSTORE PUSH2 0x3CBC DUP2 PUSH2 0x3C80 JUMP JUMPDEST SWAP1 POP SWAP2 SWAP1 POP JUMP JUMPDEST PUSH32 0x4552433732313A207472616E7366657220746F20746865207A65726F20616464 PUSH1 0x0 DUP3 ADD MSTORE PUSH32 0x7265737300000000000000000000000000000000000000000000000000000000 PUSH1 0x20 DUP3 ADD MSTORE POP JUMP JUMPDEST PUSH1 0x0 PUSH2 0x3D1F PUSH1 0x24 DUP4 PUSH2 0x2AD6 JUMP JUMPDEST SWAP2 POP PUSH2 0x3D2A DUP3 PUSH2 0x3CC3 JUMP JUMPDEST PUSH1 0x40 DUP3 ADD SWAP1 POP SWAP2 SWAP1 POP JUMP JUMPDEST PUSH1 0x0 PUSH1 0x20 DUP3 ADD SWAP1 POP DUP2 DUP2 SUB PUSH1 0x0 DUP4 ADD MSTORE PUSH2 0x3D4E DUP2 PUSH2 0x3D12 JUMP JUMPDEST SWAP1 POP SWAP2 SWAP1 POP JUMP JUMPDEST PUSH32 0x4552433732313A20617070726F766520746F2063616C6C657200000000000000 PUSH1 0x0 DUP3 ADD MSTORE POP JUMP JUMPDEST PUSH1 0x0 PUSH2 0x3D8B PUSH1 0x19 DUP4 PUSH2 0x2AD6 JUMP JUMPDEST SWAP2 POP PUSH2 0x3D96 DUP3 PUSH2 0x3D55 JUMP JUMPDEST PUSH1 0x20 DUP3 ADD SWAP1 POP SWAP2 SWAP1 POP JUMP JUMPDEST PUSH1 0x0 PUSH1 0x20 DUP3 ADD SWAP1 POP DUP2 DUP2 SUB PUSH1 0x0 DUP4 ADD MSTORE PUSH2 0x3DBA DUP2 PUSH2 0x3D7E JUMP JUMPDEST SWAP1 POP SWAP2 SWAP1 POP JUMP JUMPDEST PUSH32 0x4552433732313A207472616E7366657220746F206E6F6E204552433732315265 PUSH1 0x0 DUP3 ADD MSTORE PUSH32 0x63656976657220696D706C656D656E7465720000000000000000000000000000 PUSH1 0x20 DUP3 ADD MSTORE POP JUMP JUMPDEST PUSH1 0x0 PUSH2 0x3E1D PUSH1 0x32 DUP4 PUSH2 0x2AD6 JUMP JUMPDEST SWAP2 POP PUSH2 0x3E28 DUP3 PUSH2 0x3DC1 JUMP JUMPDEST PUSH1 0x40 DUP3 ADD SWAP1 POP SWAP2 SWAP1 POP JUMP JUMPDEST PUSH1 0x0 PUSH1 0x20 DUP3 ADD SWAP1 POP DUP2 DUP2 SUB PUSH1 0x0 DUP4 ADD MSTORE PUSH2 0x3E4C DUP2 PUSH2 0x3E10 JUMP JUMPDEST SWAP1 POP SWAP2 SWAP1 POP JUMP JUMPDEST PUSH32 0x4E487B7100000000000000000000000000000000000000000000000000000000 PUSH1 0x0 MSTORE PUSH1 0x12 PUSH1 0x4 MSTORE PUSH1 0x24 PUSH1 0x0 REVERT JUMPDEST PUSH32 0x416363657373436F6E74726F6C3A206163636F756E7420000000000000000000 PUSH1 0x0 DUP3 ADD MSTORE POP JUMP JUMPDEST PUSH1 0x0 PUSH2 0x3EB8 PUSH1 0x17 DUP4 PUSH2 0x37E6 JUMP JUMPDEST SWAP2 POP PUSH2 0x3EC3 DUP3 PUSH2 0x3E82 JUMP JUMPDEST PUSH1 0x17 DUP3 ADD SWAP1 POP SWAP2 SWAP1 POP JUMP JUMPDEST PUSH32 0x206973206D697373696E6720726F6C6520000000000000000000000000000000 PUSH1 0x0 DUP3 ADD MSTORE POP JUMP JUMPDEST PUSH1 0x0 PUSH2 0x3F04 PUSH1 0x11 DUP4 PUSH2 0x37E6 JUMP JUMPDEST SWAP2 POP PUSH2 0x3F0F DUP3 PUSH2 0x3ECE JUMP JUMPDEST PUSH1 0x11 DUP3 ADD SWAP1 POP SWAP2 SWAP1 POP JUMP JUMPDEST PUSH1 0x0 PUSH2 0x3F25 DUP3 PUSH2 0x3EAB JUMP JUMPDEST SWAP2 POP PUSH2 0x3F31 DUP3 DUP6 PUSH2 0x37F1 JUMP JUMPDEST SWAP2 POP PUSH2 0x3F3C DUP3 PUSH2 0x3EF7 JUMP JUMPDEST SWAP2 POP PUSH2 0x3F48 DUP3 DUP5 PUSH2 0x37F1 JUMP JUMPDEST SWAP2 POP DUP2 SWAP1 POP SWAP4 SWAP3 POP POP POP JUMP JUMPDEST PUSH1 0x0 PUSH2 0x3F5F DUP3 PUSH2 0x2B7D JUMP JUMPDEST SWAP2 POP PUSH2 0x3F6A DUP4 PUSH2 0x2B7D JUMP JUMPDEST SWAP3 POP DUP3 DUP3 SUB SWAP1 POP DUP2 DUP2 GT ISZERO PUSH2 0x3F82 JUMPI PUSH2 0x3F81 PUSH2 0x3472 JUMP JUMPDEST JUMPDEST SWAP3 SWAP2 POP POP JUMP JUMPDEST PUSH1 0x0 DUP2 SWAP1 POP SWAP2 SWAP1 POP JUMP JUMPDEST PUSH2 0x3FA3 PUSH2 0x3F9E DUP3 PUSH2 0x2B7D JUMP JUMPDEST PUSH2 0x3F88 JUMP JUMPDEST DUP3 MSTORE POP POP JUMP JUMPDEST PUSH1 0x0 PUSH2 0x3FB5 DUP3 DUP7 PUSH2 0x3F92 JUMP JUMPDEST PUSH1 0x20 DUP3 ADD SWAP2 POP PUSH2 0x3FC5 DUP3 DUP6 PUSH2 0x3F92 JUMP JUMPDEST PUSH1 0x20 DUP3 ADD SWAP2 POP PUSH2 0x3FD5 DUP3 DUP5 PUSH2 0x3F92 JUMP JUMPDEST PUSH1 0x20 DUP3 ADD SWAP2 POP DUP2 SWAP1 POP SWAP5 SWAP4 POP POP POP POP JUMP JUMPDEST PUSH1 0x0 PUSH2 0x3FF1 DUP3 PUSH2 0x2B7D JUMP JUMPDEST SWAP2 POP PUSH2 0x3FFC DUP4 PUSH2 0x2B7D JUMP JUMPDEST SWAP3 POP DUP3 PUSH2 0x400C JUMPI PUSH2 0x400B PUSH2 0x3E53 JUMP JUMPDEST JUMPDEST DUP3 DUP3 MOD SWAP1 POP SWAP3 SWAP2 POP POP JUMP JUMPDEST PUSH1 0x0 DUP2 MLOAD SWAP1 POP SWAP2 SWAP1 POP JUMP JUMPDEST PUSH1 0x0 DUP3 DUP3 MSTORE PUSH1 0x20 DUP3 ADD SWAP1 POP SWAP3 SWAP2 POP POP JUMP JUMPDEST PUSH1 0x0 PUSH2 0x403E DUP3 PUSH2 0x4017 JUMP JUMPDEST PUSH2 0x4048 DUP2 DUP6 PUSH2 0x4022 JUMP JUMPDEST SWAP4 POP PUSH2 0x4058 DUP2 DUP6 PUSH1 0x20 DUP7 ADD PUSH2 0x2AE7 JUMP JUMPDEST PUSH2 0x4061 DUP2 PUSH2 0x2B11 JUMP JUMPDEST DUP5 ADD SWAP2 POP POP SWAP3 SWAP2 POP POP JUMP JUMPDEST PUSH1 0x0 PUSH1 0x80 DUP3 ADD SWAP1 POP PUSH2 0x4081 PUSH1 0x0 DUP4 ADD DUP8 PUSH2 0x2C12 JUMP JUMPDEST PUSH2 0x408E PUSH1 0x20 DUP4 ADD DUP7 PUSH2 0x2C12 JUMP JUMPDEST PUSH2 0x409B PUSH1 0x40 DUP4 ADD DUP6 PUSH2 0x2CFB JUMP JUMPDEST DUP2 DUP2 SUB PUSH1 0x60 DUP4 ADD MSTORE PUSH2 0x40AD DUP2 DUP5 PUSH2 0x4033 JUMP JUMPDEST SWAP1 POP SWAP6 SWAP5 POP POP POP POP POP JUMP JUMPDEST PUSH1 0x0 DUP2 MLOAD SWAP1 POP PUSH2 0x40C7 DUP2 PUSH2 0x2A3C JUMP JUMPDEST SWAP3 SWAP2 POP POP JUMP JUMPDEST PUSH1 0x0 PUSH1 0x20 DUP3 DUP5 SUB SLT ISZERO PUSH2 0x40E3 JUMPI PUSH2 0x40E2 PUSH2 0x2A06 JUMP JUMPDEST JUMPDEST PUSH1 0x0 PUSH2 0x40F1 DUP5 DUP3 DUP6 ADD PUSH2 0x40B8 JUMP JUMPDEST SWAP2 POP POP SWAP3 SWAP2 POP POP JUMP JUMPDEST PUSH32 0x4552433732313A206D696E7420746F20746865207A65726F2061646472657373 PUSH1 0x0 DUP3 ADD MSTORE POP JUMP JUMPDEST PUSH1 0x0 PUSH2 0x4130 PUSH1 0x20 DUP4 PUSH2 0x2AD6 JUMP JUMPDEST SWAP2 POP PUSH2 0x413B DUP3 PUSH2 0x40FA JUMP JUMPDEST PUSH1 0x20 DUP3 ADD SWAP1 POP SWAP2 SWAP1 POP JUMP JUMPDEST PUSH1 0x0 PUSH1 0x20 DUP3 ADD SWAP1 POP DUP2 DUP2 SUB PUSH1 0x0 DUP4 ADD MSTORE PUSH2 0x415F DUP2 PUSH2 0x4123 JUMP JUMPDEST SWAP1 POP SWAP2 SWAP1 POP JUMP JUMPDEST PUSH32 0x4552433732313A20746F6B656E20616C7265616479206D696E74656400000000 PUSH1 0x0 DUP3 ADD MSTORE POP JUMP JUMPDEST PUSH1 0x0 PUSH2 0x419C PUSH1 0x1C DUP4 PUSH2 0x2AD6 JUMP JUMPDEST SWAP2 POP PUSH2 0x41A7 DUP3 PUSH2 0x4166 JUMP JUMPDEST PUSH1 0x20 DUP3 ADD SWAP1 POP SWAP2 SWAP1 POP JUMP JUMPDEST PUSH1 0x0 PUSH1 0x20 DUP3 ADD SWAP1 POP DUP2 DUP2 SUB PUSH1 0x0 DUP4 ADD MSTORE PUSH2 0x41CB DUP2 PUSH2 0x418F JUMP JUMPDEST SWAP1 POP SWAP2 SWAP1 POP JUMP INVALID PUSH9 0x747470733A2F2F6970 PUSH7 0x732E696F2F6970 PUSH7 0x732F516D5A6348 CALLVALUE MSIZE PUSH23 0x425656524A74646E345264626171677370465538674836 POP CODECOPY PUSH23 0x6F6D4470425670414C3375342FA2646970667358221220 PUSH15 0xE200EAE29392389533685873CE7F9C 0xF8 0xDA 0xEE CALLCODE DUP11 ORIGIN SWAP4 GASPRICE SMOD STATICCALL SWAP10 GASPRICE 0xBC PUSH9 0xE36964736F6C634300 ADDMOD SLT STOP CALLER "},"methodIdentifiers":{"DEFAULT_ADMIN_ROLE()":"a217fddf","MINTER_ROLE()":"d5391393","approve(address,uint256)":"095ea7b3","balanceOf(address)":"70a08231","burn()":"44df8e70","burnAll()":"9975038c","getApproved(uint256)":"081812fc","getRoleAdmin(bytes32)":"248a9ca3","grantMintRole(address)":"c2e3273d","grantRole(bytes32,address)":"2f2ff15d","hasRole(bytes32,address)":"91d14854","isApprovedForAll(address,address)":"e985e9c5","mint()":"1249c58b","name()":"06fdde03","ownerOf(uint256)":"6352211e","renounceRole(bytes32,address)":"36568abe","resetMint(uint256,uint256,uint256)":"0ff95bc5","revokeMintRole(address)":"f81094f3","revokeRole(bytes32,address)":"d547741f","safeMint()":"6871ee40","safeTransferFrom(address,address,uint256)":"42842e0e","safeTransferFrom(address,address,uint256,bytes)":"b88d4fde","setApprovalForAll(address,bool)":"a22cb465","supportsInterface(bytes4)":"01ffc9a7","symbol()":"95d89b41","tokenURI(uint256)":"c87b56dd","totalSupply()":"18160ddd","transferFrom(address,address,uint256)":"23b872dd"}}}}}