{
  "_format": "hh-sol-artifact-1",
  "contractName": "AzukiTrans",
  "sourceName": "contracts/AzukiTrans.sol",
  "abi": [
    {
      "inputs": [
        {
          "internalType": "uint256",
          "name": "_totalSupply",
          "type": "uint256"
        },
        {
          "internalType": "uint256",
          "name": "_mintPrice",
          "type": "uint256"
        },
        {
          "internalType": "uint256",
          "name": "_mintStart",
          "type": "uint256"
        },
        {
          "internalType": "uint256",
          "name": "_presale",
          "type": "uint256"
        },
        {
          "internalType": "uint256",
          "name": "_publicsale",
          "type": "uint256"
        }
      ],
      "stateMutability": "nonpayable",
      "type": "constructor"
    },
    {
      "anonymous": false,
      "inputs": [
        {
          "indexed": true,
          "internalType": "address",
          "name": "owner",
          "type": "address"
        },
        {
          "indexed": true,
          "internalType": "address",
          "name": "approved",
          "type": "address"
        },
        {
          "indexed": true,
          "internalType": "uint256",
          "name": "tokenId",
          "type": "uint256"
        }
      ],
      "name": "Approval",
      "type": "event"
    },
    {
      "anonymous": false,
      "inputs": [
        {
          "indexed": true,
          "internalType": "address",
          "name": "owner",
          "type": "address"
        },
        {
          "indexed": true,
          "internalType": "address",
          "name": "operator",
          "type": "address"
        },
        {
          "indexed": false,
          "internalType": "bool",
          "name": "approved",
          "type": "bool"
        }
      ],
      "name": "ApprovalForAll",
      "type": "event"
    },
    {
      "anonymous": false,
      "inputs": [
        {
          "indexed": true,
          "internalType": "bytes32",
          "name": "role",
          "type": "bytes32"
        },
        {
          "indexed": true,
          "internalType": "bytes32",
          "name": "previousAdminRole",
          "type": "bytes32"
        },
        {
          "indexed": true,
          "internalType": "bytes32",
          "name": "newAdminRole",
          "type": "bytes32"
        }
      ],
      "name": "RoleAdminChanged",
      "type": "event"
    },
    {
      "anonymous": false,
      "inputs": [
        {
          "indexed": true,
          "internalType": "bytes32",
          "name": "role",
          "type": "bytes32"
        },
        {
          "indexed": true,
          "internalType": "address",
          "name": "account",
          "type": "address"
        },
        {
          "indexed": true,
          "internalType": "address",
          "name": "sender",
          "type": "address"
        }
      ],
      "name": "RoleGranted",
      "type": "event"
    },
    {
      "anonymous": false,
      "inputs": [
        {
          "indexed": true,
          "internalType": "bytes32",
          "name": "role",
          "type": "bytes32"
        },
        {
          "indexed": true,
          "internalType": "address",
          "name": "account",
          "type": "address"
        },
        {
          "indexed": true,
          "internalType": "address",
          "name": "sender",
          "type": "address"
        }
      ],
      "name": "RoleRevoked",
      "type": "event"
    },
    {
      "anonymous": false,
      "inputs": [
        {
          "indexed": true,
          "internalType": "address",
          "name": "from",
          "type": "address"
        },
        {
          "indexed": true,
          "internalType": "address",
          "name": "to",
          "type": "address"
        },
        {
          "indexed": true,
          "internalType": "uint256",
          "name": "tokenId",
          "type": "uint256"
        }
      ],
      "name": "Transfer",
      "type": "event"
    },
    {
      "inputs": [],
      "name": "DEFAULT_ADMIN_ROLE",
      "outputs": [
        {
          "internalType": "bytes32",
          "name": "",
          "type": "bytes32"
        }
      ],
      "stateMutability": "view",
      "type": "function"
    },
    {
      "inputs": [],
      "name": "MINTER_ROLE",
      "outputs": [
        {
          "internalType": "bytes32",
          "name": "",
          "type": "bytes32"
        }
      ],
      "stateMutability": "view",
      "type": "function"
    },
    {
      "inputs": [
        {
          "internalType": "address",
          "name": "to",
          "type": "address"
        },
        {
          "internalType": "uint256",
          "name": "tokenId",
          "type": "uint256"
        }
      ],
      "name": "approve",
      "outputs": [],
      "stateMutability": "nonpayable",
      "type": "function"
    },
    {
      "inputs": [
        {
          "internalType": "address",
          "name": "owner",
          "type": "address"
        }
      ],
      "name": "balanceOf",
      "outputs": [
        {
          "internalType": "uint256",
          "name": "",
          "type": "uint256"
        }
      ],
      "stateMutability": "view",
      "type": "function"
    },
    {
      "inputs": [],
      "name": "burn",
      "outputs": [],
      "stateMutability": "nonpayable",
      "type": "function"
    },
    {
      "inputs": [],
      "name": "burnAll",
      "outputs": [],
      "stateMutability": "nonpayable",
      "type": "function"
    },
    {
      "inputs": [
        {
          "internalType": "uint256",
          "name": "tokenId",
          "type": "uint256"
        }
      ],
      "name": "getApproved",
      "outputs": [
        {
          "internalType": "address",
          "name": "",
          "type": "address"
        }
      ],
      "stateMutability": "view",
      "type": "function"
    },
    {
      "inputs": [
        {
          "internalType": "bytes32",
          "name": "role",
          "type": "bytes32"
        }
      ],
      "name": "getRoleAdmin",
      "outputs": [
        {
          "internalType": "bytes32",
          "name": "",
          "type": "bytes32"
        }
      ],
      "stateMutability": "view",
      "type": "function"
    },
    {
      "inputs": [
        {
          "internalType": "address",
          "name": "account",
          "type": "address"
        }
      ],
      "name": "grantMintRole",
      "outputs": [],
      "stateMutability": "nonpayable",
      "type": "function"
    },
    {
      "inputs": [
        {
          "internalType": "bytes32",
          "name": "role",
          "type": "bytes32"
        },
        {
          "internalType": "address",
          "name": "account",
          "type": "address"
        }
      ],
      "name": "grantRole",
      "outputs": [],
      "stateMutability": "nonpayable",
      "type": "function"
    },
    {
      "inputs": [
        {
          "internalType": "bytes32",
          "name": "role",
          "type": "bytes32"
        },
        {
          "internalType": "address",
          "name": "account",
          "type": "address"
        }
      ],
      "name": "hasRole",
      "outputs": [
        {
          "internalType": "bool",
          "name": "",
          "type": "bool"
        }
      ],
      "stateMutability": "view",
      "type": "function"
    },
    {
      "inputs": [
        {
          "internalType": "address",
          "name": "owner",
          "type": "address"
        },
        {
          "internalType": "address",
          "name": "operator",
          "type": "address"
        }
      ],
      "name": "isApprovedForAll",
      "outputs": [
        {
          "internalType": "bool",
          "name": "",
          "type": "bool"
        }
      ],
      "stateMutability": "view",
      "type": "function"
    },
    {
      "inputs": [],
      "name": "mint",
      "outputs": [
        {
          "internalType": "uint256",
          "name": "priceGWei",
          "type": "uint256"
        },
        {
          "components": [
            {
              "internalType": "uint256",
              "name": "start",
              "type": "uint256"
            },
            {
              "internalType": "uint256",
              "name": "publicSale",
              "type": "uint256"
            },
            {
              "internalType": "uint256",
              "name": "end",
              "type": "uint256"
            }
          ],
          "internalType": "struct AzukiTrans.MintTime",
          "name": "time",
          "type": "tuple"
        },
        {
          "internalType": "uint256",
          "name": "total",
          "type": "uint256"
        }
      ],
      "stateMutability": "view",
      "type": "function"
    },
    {
      "inputs": [],
      "name": "name",
      "outputs": [
        {
          "internalType": "string",
          "name": "",
          "type": "string"
        }
      ],
      "stateMutability": "view",
      "type": "function"
    },
    {
      "inputs": [
        {
          "internalType": "uint256",
          "name": "tokenId",
          "type": "uint256"
        }
      ],
      "name": "ownerOf",
      "outputs": [
        {
          "internalType": "address",
          "name": "",
          "type": "address"
        }
      ],
      "stateMutability": "view",
      "type": "function"
    },
    {
      "inputs": [
        {
          "internalType": "bytes32",
          "name": "role",
          "type": "bytes32"
        },
        {
          "internalType": "address",
          "name": "account",
          "type": "address"
        }
      ],
      "name": "renounceRole",
      "outputs": [],
      "stateMutability": "nonpayable",
      "type": "function"
    },
    {
      "inputs": [
        {
          "internalType": "uint256",
          "name": "_mintStart",
          "type": "uint256"
        },
        {
          "internalType": "uint256",
          "name": "_presale",
          "type": "uint256"
        },
        {
          "internalType": "uint256",
          "name": "_publicsale",
          "type": "uint256"
        }
      ],
      "name": "resetMint",
      "outputs": [],
      "stateMutability": "nonpayable",
      "type": "function"
    },
    {
      "inputs": [
        {
          "internalType": "address",
          "name": "account",
          "type": "address"
        }
      ],
      "name": "revokeMintRole",
      "outputs": [],
      "stateMutability": "nonpayable",
      "type": "function"
    },
    {
      "inputs": [
        {
          "internalType": "bytes32",
          "name": "role",
          "type": "bytes32"
        },
        {
          "internalType": "address",
          "name": "account",
          "type": "address"
        }
      ],
      "name": "revokeRole",
      "outputs": [],
      "stateMutability": "nonpayable",
      "type": "function"
    },
    {
      "inputs": [],
      "name": "safeMint",
      "outputs": [],
      "stateMutability": "payable",
      "type": "function"
    },
    {
      "inputs": [
        {
          "internalType": "address",
          "name": "from",
          "type": "address"
        },
        {
          "internalType": "address",
          "name": "to",
          "type": "address"
        },
        {
          "internalType": "uint256",
          "name": "tokenId",
          "type": "uint256"
        }
      ],
      "name": "safeTransferFrom",
      "outputs": [],
      "stateMutability": "nonpayable",
      "type": "function"
    },
    {
      "inputs": [
        {
          "internalType": "address",
          "name": "from",
          "type": "address"
        },
        {
          "internalType": "address",
          "name": "to",
          "type": "address"
        },
        {
          "internalType": "uint256",
          "name": "tokenId",
          "type": "uint256"
        },
        {
          "internalType": "bytes",
          "name": "data",
          "type": "bytes"
        }
      ],
      "name": "safeTransferFrom",
      "outputs": [],
      "stateMutability": "nonpayable",
      "type": "function"
    },
    {
      "inputs": [
        {
          "internalType": "address",
          "name": "operator",
          "type": "address"
        },
        {
          "internalType": "bool",
          "name": "approved",
          "type": "bool"
        }
      ],
      "name": "setApprovalForAll",
      "outputs": [],
      "stateMutability": "nonpayable",
      "type": "function"
    },
    {
      "inputs": [
        {
          "internalType": "bytes4",
          "name": "interfaceId",
          "type": "bytes4"
        }
      ],
      "name": "supportsInterface",
      "outputs": [
        {
          "internalType": "bool",
          "name": "",
          "type": "bool"
        }
      ],
      "stateMutability": "view",
      "type": "function"
    },
    {
      "inputs": [],
      "name": "symbol",
      "outputs": [
        {
          "internalType": "string",
          "name": "",
          "type": "string"
        }
      ],
      "stateMutability": "view",
      "type": "function"
    },
    {
      "inputs": [
        {
          "internalType": "uint256",
          "name": "tokenId",
          "type": "uint256"
        }
      ],
      "name": "tokenURI",
      "outputs": [
        {
          "internalType": "string",
          "name": "",
          "type": "string"
        }
      ],
      "stateMutability": "view",
      "type": "function"
    },
    {
      "inputs": [],
      "name": "totalSupply",
      "outputs": [
        {
          "internalType": "uint256",
          "name": "",
          "type": "uint256"
        }
      ],
      "stateMutability": "view",
      "type": "function"
    },
    {
      "inputs": [
        {
          "internalType": "address",
          "name": "from",
          "type": "address"
        },
        {
          "internalType": "address",
          "name": "to",
          "type": "address"
        },
        {
          "internalType": "uint256",
          "name": "tokenId",
          "type": "uint256"
        }
      ],
      "name": "transferFrom",
      "outputs": [],
      "stateMutability": "nonpayable",
      "type": "function"
    }
  ],
  "bytecode": "0x60806040523480156200001157600080fd5b506040516200574c3803806200574c833981810160405281019062000037919062000967565b6040518060400160405280600781526020017f4d79546f6b656e000000000000000000000000000000000000000000000000008152506040518060400160405280600381526020017f4d544b00000000000000000000000000000000000000000000000000000000008152508160009081620000b4919062000c5f565b508060019081620000c6919062000c5f565b505050620000de6000801b336200013060201b60201c565b620001107f9f2df0fed2c77648de5860a4cc508cd0818c85b8b8a1ab4ceeef8d981c8956a6336200013060201b60201c565b6200012585858585856200022260201b60201c565b5050505050620014f0565b6200014282826200041c60201b60201c565b6200021e5760016006600084815260200190815260200160002060000160008373ffffffffffffffffffffffffffffffffffffffff1673ffffffffffffffffffffffffffffffffffffffff16815260200190815260200160002060006101000a81548160ff021916908315150217905550620001c36200048760201b60201c565b73ffffffffffffffffffffffffffffffffffffffff168173ffffffffffffffffffffffffffffffffffffffff16837f2f8788117e7eff1d82e926ec794901d17c78024a50270940304540a733656f0d60405160405180910390a45b5050565b6000801b62000237816200048f60201b60201c565b600086116200027d576040517f08c379a0000000000000000000000000000000000000000000000000000000008152600401620002749062000dcd565b60405180910390fd5b60008511620002c3576040517f08c379a0000000000000000000000000000000000000000000000000000000008152600401620002ba9062000e65565b60405180910390fd5b42841162000308576040517f08c379a0000000000000000000000000000000000000000000000000000000008152600401620002ff9062000efd565b60405180910390fd5b600083116200034e576040517f08c379a0000000000000000000000000000000000000000000000000000000008152600401620003459062000f95565b60405180910390fd5b6000821162000394576040517f08c379a00000000000000000000000000000000000000000000000000000000081526004016200038b906200102d565b60405180910390fd5b85600781905550633b9aca0085620003ad91906200107e565b600860000181905550836008600101600001819055508284620003d19190620010c9565b600860010160010181905550818385620003ec9190620010c9565b620003f89190620010c9565b60086001016002018190555062000414620004b360201b60201c565b505050505050565b60006006600084815260200190815260200160002060000160008373ffffffffffffffffffffffffffffffffffffffff1673ffffffffffffffffffffffffffffffffffffffff16815260200190815260200160002060009054906101000a900460ff16905092915050565b600033905090565b620004b081620004a46200048760201b60201c565b620005eb60201b60201c565b50565b6000801b620004c8816200048f60201b60201c565b60005b600754811015620005045780600d6000838152602001908152602001600020819055508080620004fb9062001104565b915050620004cb565b506000600754905060005b81811015620005e6576000818362000528919062001151565b4244846040516020016200053f93929190620011b1565b6040516020818303038152906040528051906020012060001c62000564919062001223565b82620005719190620010c9565b90506000600d6000838152602001908152602001600020549050600d600084815260200190815260200160002054600d60008481526020019081526020016000208190555080600d60008581526020019081526020016000208190555050508080620005dd9062001104565b9150506200050f565b505050565b620005fd82826200041c60201b60201c565b620006935762000618816200069760201b620011501760201c565b620006338360001c6020620006cc60201b6200117d1760201c565b6040516020016200064692919062001369565b6040516020818303038152906040526040517f08c379a00000000000000000000000000000000000000000000000000000000081526004016200068a9190620013fd565b60405180910390fd5b5050565b6060620006c58273ffffffffffffffffffffffffffffffffffffffff16601460ff16620006cc60201b60201c565b9050919050565b606060006002836002620006e191906200107e565b620006ed9190620010c9565b67ffffffffffffffff811115620007095762000708620009fa565b5b6040519080825280601f01601f1916602001820160405280156200073c5781602001600182028036833780820191505090505b5090507f30000000000000000000000000000000000000000000000000000000000000008160008151811062000777576200077662001421565b5b60200101907effffffffffffffffffffffffffffffffffffffffffffffffffffffffffffff1916908160001a9053507f780000000000000000000000000000000000000000000000000000000000000081600181518110620007de57620007dd62001421565b5b60200101907effffffffffffffffffffffffffffffffffffffffffffffffffffffffffffff1916908160001a905350600060018460026200082091906200107e565b6200082c9190620010c9565b90505b6001811115620008d6577f3031323334353637383961626364656600000000000000000000000000000000600f86166010811062000872576200087162001421565b5b1a60f81b8282815181106200088c576200088b62001421565b5b60200101907effffffffffffffffffffffffffffffffffffffffffffffffffffffffffffff1916908160001a905350600485901c945080620008ce9062001450565b90506200082f565b50600084146200091d576040517f08c379a00000000000000000000000000000000000000000000000000000000081526004016200091490620014ce565b60405180910390fd5b8091505092915050565b600080fd5b6000819050919050565b62000941816200092c565b81146200094d57600080fd5b50565b600081519050620009618162000936565b92915050565b600080600080600060a0868803121562000986576200098562000927565b5b6000620009968882890162000950565b9550506020620009a98882890162000950565b9450506040620009bc8882890162000950565b9350506060620009cf8882890162000950565b9250506080620009e28882890162000950565b9150509295509295909350565b600081519050919050565b7f4e487b7100000000000000000000000000000000000000000000000000000000600052604160045260246000fd5b7f4e487b7100000000000000000000000000000000000000000000000000000000600052602260045260246000fd5b6000600282049050600182168062000a7157607f821691505b60208210810362000a875762000a8662000a29565b5b50919050565b60008190508160005260206000209050919050565b60006020601f8301049050919050565b600082821b905092915050565b60006008830262000af17fffffffffffffffffffffffffffffffffffffffffffffffffffffffffffffffff8262000ab2565b62000afd868362000ab2565b95508019841693508086168417925050509392505050565b6000819050919050565b600062000b4062000b3a62000b34846200092c565b62000b15565b6200092c565b9050919050565b6000819050919050565b62000b5c8362000b1f565b62000b7462000b6b8262000b47565b84845462000abf565b825550505050565b600090565b62000b8b62000b7c565b62000b9881848462000b51565b505050565b5b8181101562000bc05762000bb460008262000b81565b60018101905062000b9e565b5050565b601f82111562000c0f5762000bd98162000a8d565b62000be48462000aa2565b8101602085101562000bf4578190505b62000c0c62000c038562000aa2565b83018262000b9d565b50505b505050565b600082821c905092915050565b600062000c346000198460080262000c14565b1980831691505092915050565b600062000c4f838362000c21565b9150826002028217905092915050565b62000c6a82620009ef565b67ffffffffffffffff81111562000c865762000c85620009fa565b5b62000c92825462000a58565b62000c9f82828562000bc4565b600060209050601f83116001811462000cd7576000841562000cc2578287015190505b62000cce858262000c41565b86555062000d3e565b601f19841662000ce78662000a8d565b60005b8281101562000d115784890151825560018201915060208501945060208101905062000cea565b8683101562000d31578489015162000d2d601f89168262000c21565b8355505b6001600288020188555050505b505050505050565b600082825260208201905092915050565b7f746f74616c20737570706c79206d75737420626520677265617465722074686160008201527f6e207a65726f7300000000000000000000000000000000000000000000000000602082015250565b600062000db560278362000d46565b915062000dc28262000d57565b604082019050919050565b6000602082019050818103600083015262000de88162000da6565b9050919050565b7f6d696e74207072696365206d7573742062652067726561746572207468616e2060008201527f7a65726f00000000000000000000000000000000000000000000000000000000602082015250565b600062000e4d60248362000d46565b915062000e5a8262000def565b604082019050919050565b6000602082019050818103600083015262000e808162000e3e565b9050919050565b7f6d696e742073746172742074696d65206d75737420626520677265617465722060008201527f7468616e2063757272656e742074696d65000000000000000000000000000000602082015250565b600062000ee560318362000d46565b915062000ef28262000e87565b604082019050919050565b6000602082019050818103600083015262000f188162000ed6565b9050919050565b7f70726573616c65206d7573742062652067726561746572207468616e207a657260008201527f6f00000000000000000000000000000000000000000000000000000000000000602082015250565b600062000f7d60218362000d46565b915062000f8a8262000f1f565b604082019050919050565b6000602082019050818103600083015262000fb08162000f6e565b9050919050565b7f7075626c696373616c65206d7573742062652067726561746572207468616e2060008201527f7a65726f00000000000000000000000000000000000000000000000000000000602082015250565b60006200101560248362000d46565b9150620010228262000fb7565b604082019050919050565b60006020820190508181036000830152620010488162001006565b9050919050565b7f4e487b7100000000000000000000000000000000000000000000000000000000600052601160045260246000fd5b60006200108b826200092c565b915062001098836200092c565b9250828202620010a8816200092c565b91508282048414831517620010c257620010c16200104f565b5b5092915050565b6000620010d6826200092c565b9150620010e3836200092c565b9250828201905080821115620010fe57620010fd6200104f565b5b92915050565b600062001111826200092c565b91507fffffffffffffffffffffffffffffffffffffffffffffffffffffffffffffffff82036200114657620011456200104f565b5b600182019050919050565b60006200115e826200092c565b91506200116b836200092c565b92508282039050818111156200118657620011856200104f565b5b92915050565b6000819050919050565b620011ab620011a5826200092c565b6200118c565b82525050565b6000620011bf828662001196565b602082019150620011d1828562001196565b602082019150620011e3828462001196565b602082019150819050949350505050565b7f4e487b7100000000000000000000000000000000000000000000000000000000600052601260045260246000fd5b600062001230826200092c565b91506200123d836200092c565b92508262001250576200124f620011f4565b5b828206905092915050565b600081905092915050565b7f416363657373436f6e74726f6c3a206163636f756e7420000000000000000000600082015250565b60006200129e6017836200125b565b9150620012ab8262001266565b601782019050919050565b60005b83811015620012d6578082015181840152602081019050620012b9565b60008484015250505050565b6000620012ef82620009ef565b620012fb81856200125b565b93506200130d818560208601620012b6565b80840191505092915050565b7f206973206d697373696e6720726f6c6520000000000000000000000000000000600082015250565b6000620013516011836200125b565b91506200135e8262001319565b601182019050919050565b600062001376826200128f565b9150620013848285620012e2565b9150620013918262001342565b91506200139f8284620012e2565b91508190509392505050565b6000601f19601f8301169050919050565b6000620013c982620009ef565b620013d5818562000d46565b9350620013e7818560208601620012b6565b620013f281620013ab565b840191505092915050565b60006020820190508181036000830152620014198184620013bc565b905092915050565b7f4e487b7100000000000000000000000000000000000000000000000000000000600052603260045260246000fd5b60006200145d826200092c565b9150600082036200147357620014726200104f565b5b600182039050919050565b7f537472696e67733a20686578206c656e67746820696e73756666696369656e74600082015250565b6000620014b660208362000d46565b9150620014c3826200147e565b602082019050919050565b60006020820190508181036000830152620014e981620014a7565b9050919050565b61424c80620015006000396000f3fe6080604052600436106101b75760003560e01c80636871ee40116100ec578063b88d4fde1161008a578063d539139311610064578063d5391393146105e9578063d547741f14610614578063e985e9c51461063d578063f81094f31461067a576101b7565b8063b88d4fde1461055a578063c2e3273d14610583578063c87b56dd146105ac576101b7565b806395d89b41116100c657806395d89b41146104c45780639975038c146104ef578063a217fddf14610506578063a22cb46514610531576101b7565b80636871ee401461044057806370a082311461044a57806391d1485414610487576101b7565b806323b872dd1161015957806336568abe1161013357806336568abe1461039a57806342842e0e146103c357806344df8e70146103ec5780636352211e14610403576101b7565b806323b872dd1461030b578063248a9ca3146103345780632f2ff15d14610371576101b7565b8063095ea7b311610195578063095ea7b3146102615780630ff95bc51461028a5780631249c58b146102b357806318160ddd146102e0576101b7565b806301ffc9a7146101bc57806306fdde03146101f9578063081812fc14610224575b600080fd5b3480156101c857600080fd5b506101e360048036038101906101de9190612a68565b6106a3565b6040516101f09190612ab0565b60405180910390f35b34801561020557600080fd5b5061020e6106b5565b60405161021b9190612b5b565b60405180910390f35b34801561023057600080fd5b5061024b60048036038101906102469190612bb3565b610747565b6040516102589190612c21565b60405180910390f35b34801561026d57600080fd5b5061028860048036038101906102839190612c68565b61078d565b005b34801561029657600080fd5b506102b160048036038101906102ac9190612ca8565b6108a4565b005b3480156102bf57600080fd5b506102c86108d3565b6040516102d793929190612d5b565b60405180910390f35b3480156102ec57600080fd5b506102f5610913565b6040516103029190612d92565b60405180910390f35b34801561031757600080fd5b50610332600480360381019061032d9190612dad565b610919565b005b34801561034057600080fd5b5061035b60048036038101906103569190612e36565b610979565b6040516103689190612e72565b60405180910390f35b34801561037d57600080fd5b5061039860048036038101906103939190612e8d565b610999565b005b3480156103a657600080fd5b506103c160048036038101906103bc9190612e8d565b6109ba565b005b3480156103cf57600080fd5b506103ea60048036038101906103e59190612dad565b610a3d565b005b3480156103f857600080fd5b50610401610a5d565b005b34801561040f57600080fd5b5061042a60048036038101906104259190612bb3565b610af1565b6040516104379190612c21565b60405180910390f35b610448610b77565b005b34801561045657600080fd5b50610471600480360381019061046c9190612ecd565b610cf8565b60405161047e9190612d92565b60405180910390f35b34801561049357600080fd5b506104ae60048036038101906104a99190612e8d565b610daf565b6040516104bb9190612ab0565b60405180910390f35b3480156104d057600080fd5b506104d9610e1a565b6040516104e69190612b5b565b60405180910390f35b3480156104fb57600080fd5b50610504610eac565b005b34801561051257600080fd5b5061051b610f36565b6040516105289190612e72565b60405180910390f35b34801561053d57600080fd5b5061055860048036038101906105539190612f26565b610f3d565b005b34801561056657600080fd5b50610581600480360381019061057c919061309b565b610f53565b005b34801561058f57600080fd5b506105aa60048036038101906105a59190612ecd565b610fb5565b005b3480156105b857600080fd5b506105d360048036038101906105ce9190612bb3565b610fe2565b6040516105e09190612b5b565b60405180910390f35b3480156105f557600080fd5b506105fe61104a565b60405161060b9190612e72565b60405180910390f35b34801561062057600080fd5b5061063b60048036038101906106369190612e8d565b61106e565b005b34801561064957600080fd5b50610664600480360381019061065f919061311e565b61108f565b6040516106719190612ab0565b60405180910390f35b34801561068657600080fd5b506106a1600480360381019061069c9190612ecd565b611123565b005b60006106ae826113b9565b9050919050565b6060600080546106c49061318d565b80601f01602080910402602001604051908101604052809291908181526020018280546106f09061318d565b801561073d5780601f106107125761010080835404028352916020019161073d565b820191906000526020600020905b81548152906001019060200180831161072057829003601f168201915b5050505050905090565b600061075282611433565b6004600083815260200190815260200160002060009054906101000a900473ffffffffffffffffffffffffffffffffffffffff169050919050565b600061079882610af1565b90508073ffffffffffffffffffffffffffffffffffffffff168373ffffffffffffffffffffffffffffffffffffffff1603610808576040517f08c379a00000000000000000000000000000000000000000000000000000000081526004016107ff90613230565b60405180910390fd5b8073ffffffffffffffffffffffffffffffffffffffff1661082761147e565b73ffffffffffffffffffffffffffffffffffffffff16148061085657506108558161085061147e565b61108f565b5b610895576040517f08c379a000000000000000000000000000000000000000000000000000000000815260040161088c906132c2565b60405180910390fd5b61089f8383611486565b505050565b6000801b6108b18161153f565b6108b9610eac565b6108cd600754600860000154868686611553565b50505050565b6008806000015490806001016040518060600160405290816000820154815260200160018201548152602001600282015481525050908060040154905083565b60075481565b61092a61092461147e565b82611726565b610969576040517f08c379a000000000000000000000000000000000000000000000000000000000815260040161096090613354565b60405180910390fd5b6109748383836117bb565b505050565b600060066000838152602001908152602001600020600101549050919050565b6109a282610979565b6109ab8161153f565b6109b58383611ab4565b505050565b6109c261147e565b73ffffffffffffffffffffffffffffffffffffffff168173ffffffffffffffffffffffffffffffffffffffff1614610a2f576040517f08c379a0000000000000000000000000000000000000000000000000000000008152600401610a26906133e6565b60405180910390fd5b610a398282611b95565b5050565b610a5883838360405180602001604052806000815250610f53565b505050565b6000801b610a6a8161153f565b600060086004015411610ab2576040517f08c379a0000000000000000000000000000000000000000000000000000000008152600401610aa990613452565b60405180910390fd5b60086004016000815480929190610ac8906134a1565b9190505550610aee600d6000600860040154815260200190815260200160002054611c77565b50565b600080610afd83611dc5565b9050600073ffffffffffffffffffffffffffffffffffffffff168173ffffffffffffffffffffffffffffffffffffffff1603610b6e576040517f08c379a0000000000000000000000000000000000000000000000000000000008152600401610b6590613516565b60405180910390fd5b80915050919050565b600042905060086001016002015481108015610b9a575060086001016000015481115b610bd9576040517f08c379a0000000000000000000000000000000000000000000000000000000008152600401610bd0906135a8565b60405180910390fd5b6000610be433610cf8565b14610c24576040517f08c379a0000000000000000000000000000000000000000000000000000000008152600401610c1b90613614565b60405180910390fd5b60075460086004015410610c6d576040517f08c379a0000000000000000000000000000000000000000000000000000000008152600401610c6490613680565b60405180910390fd5b6008600001543414610cb4576040517f08c379a0000000000000000000000000000000000000000000000000000000008152600401610cab906136ec565b60405180910390fd5b600860010160010154811015610cd157610ccc611e02565b610cda565b610cd9611e51565b5b60086004016000815480929190610cf09061370c565b919050555050565b60008073ffffffffffffffffffffffffffffffffffffffff168273ffffffffffffffffffffffffffffffffffffffff1603610d68576040517f08c379a0000000000000000000000000000000000000000000000000000000008152600401610d5f906137c6565b60405180910390fd5b600360008373ffffffffffffffffffffffffffffffffffffffff1673ffffffffffffffffffffffffffffffffffffffff168152602001908152602001600020549050919050565b60006006600084815260200190815260200160002060000160008373ffffffffffffffffffffffffffffffffffffffff1673ffffffffffffffffffffffffffffffffffffffff16815260200190815260200160002060009054906101000a900460ff16905092915050565b606060018054610e299061318d565b80601f0160208091040260200160405190810160405280929190818152602001828054610e559061318d565b8015610ea25780601f10610e7757610100808354040283529160200191610ea2565b820191906000526020600020905b815481529060010190602001808311610e8557829003601f168201915b5050505050905090565b6000801b610eb98161153f565b600060086004015411610f01576040517f08c379a0000000000000000000000000000000000000000000000000000000008152600401610ef890613452565b60405180910390fd5b6000600860040154905060005b81811015610f3157610f1e610a5d565b8080610f299061370c565b915050610f0e565b505050565b6000801b81565b610f4f610f4861147e565b8383611e75565b5050565b610f64610f5e61147e565b83611726565b610fa3576040517f08c379a0000000000000000000000000000000000000000000000000000000008152600401610f9a90613354565b60405180910390fd5b610faf84848484611fe1565b50505050565b610fdf7f9f2df0fed2c77648de5860a4cc508cd0818c85b8b8a1ab4ceeef8d981c8956a682610999565b50565b6060610fed82611433565b6000610ff761203d565b905060008151116110175760405180602001604052806000815250611042565b806110218461205d565b604051602001611032929190613822565b6040516020818303038152906040525b915050919050565b7f9f2df0fed2c77648de5860a4cc508cd0818c85b8b8a1ab4ceeef8d981c8956a681565b61107782610979565b6110808161153f565b61108a8383611b95565b505050565b6000600560008473ffffffffffffffffffffffffffffffffffffffff1673ffffffffffffffffffffffffffffffffffffffff16815260200190815260200160002060008373ffffffffffffffffffffffffffffffffffffffff1673ffffffffffffffffffffffffffffffffffffffff16815260200190815260200160002060009054906101000a900460ff16905092915050565b61114d7f9f2df0fed2c77648de5860a4cc508cd0818c85b8b8a1ab4ceeef8d981c8956a68261106e565b50565b60606111768273ffffffffffffffffffffffffffffffffffffffff16601460ff1661117d565b9050919050565b6060600060028360026111909190613846565b61119a9190613888565b67ffffffffffffffff8111156111b3576111b2612f70565b5b6040519080825280601f01601f1916602001820160405280156111e55781602001600182028036833780820191505090505b5090507f30000000000000000000000000000000000000000000000000000000000000008160008151811061121d5761121c6138bc565b5b60200101907effffffffffffffffffffffffffffffffffffffffffffffffffffffffffffff1916908160001a9053507f780000000000000000000000000000000000000000000000000000000000000081600181518110611281576112806138bc565b5b60200101907effffffffffffffffffffffffffffffffffffffffffffffffffffffffffffff1916908160001a905350600060018460026112c19190613846565b6112cb9190613888565b90505b600181111561136b577f3031323334353637383961626364656600000000000000000000000000000000600f86166010811061130d5761130c6138bc565b5b1a60f81b828281518110611324576113236138bc565b5b60200101907effffffffffffffffffffffffffffffffffffffffffffffffffffffffffffff1916908160001a905350600485901c945080611364906134a1565b90506112ce565b50600084146113af576040517f08c379a00000000000000000000000000000000000000000000000000000000081526004016113a690613937565b60405180910390fd5b8091505092915050565b60007f7965db0b000000000000000000000000000000000000000000000000000000007bffffffffffffffffffffffffffffffffffffffffffffffffffffffff1916827bffffffffffffffffffffffffffffffffffffffffffffffffffffffff1916148061142c575061142b8261212b565b5b9050919050565b61143c8161220d565b61147b576040517f08c379a000000000000000000000000000000000000000000000000000000000815260040161147290613516565b60405180910390fd5b50565b600033905090565b816004600083815260200190815260200160002060006101000a81548173ffffffffffffffffffffffffffffffffffffffff021916908373ffffffffffffffffffffffffffffffffffffffff160217905550808273ffffffffffffffffffffffffffffffffffffffff166114f983610af1565b73ffffffffffffffffffffffffffffffffffffffff167f8c5be1e5ebec7d5bd14f71427d1e84f3dd0314c0f7b2291e5b200ac8c7c3b92560405160405180910390a45050565b6115508161154b61147e565b61224e565b50565b6000801b6115608161153f565b600086116115a3576040517f08c379a000000000000000000000000000000000000000000000000000000000815260040161159a906139c9565b60405180910390fd5b600085116115e6576040517f08c379a00000000000000000000000000000000000000000000000000000000081526004016115dd90613a5b565b60405180910390fd5b428411611628576040517f08c379a000000000000000000000000000000000000000000000000000000000815260040161161f90613aed565b60405180910390fd5b6000831161166b576040517f08c379a000000000000000000000000000000000000000000000000000000000815260040161166290613b7f565b60405180910390fd5b600082116116ae576040517f08c379a00000000000000000000000000000000000000000000000000000000081526004016116a590613c11565b60405180910390fd5b85600781905550633b9aca00856116c59190613846565b6008600001819055508360086001016000018190555082846116e79190613888565b6008600101600101819055508183856117009190613888565b61170a9190613888565b60086001016002018190555061171e6122d3565b505050505050565b60008061173283610af1565b90508073ffffffffffffffffffffffffffffffffffffffff168473ffffffffffffffffffffffffffffffffffffffff1614806117745750611773818561108f565b5b806117b257508373ffffffffffffffffffffffffffffffffffffffff1661179a84610747565b73ffffffffffffffffffffffffffffffffffffffff16145b91505092915050565b8273ffffffffffffffffffffffffffffffffffffffff166117db82610af1565b73ffffffffffffffffffffffffffffffffffffffff1614611831576040517f08c379a000000000000000000000000000000000000000000000000000000000815260040161182890613ca3565b60405180910390fd5b600073ffffffffffffffffffffffffffffffffffffffff168273ffffffffffffffffffffffffffffffffffffffff16036118a0576040517f08c379a000000000000000000000000000000000000000000000000000000000815260040161189790613d35565b60405180910390fd5b6118ad83838360016123f3565b8273ffffffffffffffffffffffffffffffffffffffff166118cd82610af1565b73ffffffffffffffffffffffffffffffffffffffff1614611923576040517f08c379a000000000000000000000000000000000000000000000000000000000815260040161191a90613ca3565b60405180910390fd5b6004600082815260200190815260200160002060006101000a81549073ffffffffffffffffffffffffffffffffffffffff02191690556001600360008573ffffffffffffffffffffffffffffffffffffffff1673ffffffffffffffffffffffffffffffffffffffff168152602001908152602001600020600082825403925050819055506001600360008473ffffffffffffffffffffffffffffffffffffffff1673ffffffffffffffffffffffffffffffffffffffff16815260200190815260200160002060008282540192505081905550816002600083815260200190815260200160002060006101000a81548173ffffffffffffffffffffffffffffffffffffffff021916908373ffffffffffffffffffffffffffffffffffffffff160217905550808273ffffffffffffffffffffffffffffffffffffffff168473ffffffffffffffffffffffffffffffffffffffff167fddf252ad1be2c89b69c2b068fc378daa952ba7f163c4a11628f55a4df523b3ef60405160405180910390a4611aaf83838360016123f9565b505050565b611abe8282610daf565b611b915760016006600084815260200190815260200160002060000160008373ffffffffffffffffffffffffffffffffffffffff1673ffffffffffffffffffffffffffffffffffffffff16815260200190815260200160002060006101000a81548160ff021916908315150217905550611b3661147e565b73ffffffffffffffffffffffffffffffffffffffff168173ffffffffffffffffffffffffffffffffffffffff16837f2f8788117e7eff1d82e926ec794901d17c78024a50270940304540a733656f0d60405160405180910390a45b5050565b611b9f8282610daf565b15611c735760006006600084815260200190815260200160002060000160008373ffffffffffffffffffffffffffffffffffffffff1673ffffffffffffffffffffffffffffffffffffffff16815260200190815260200160002060006101000a81548160ff021916908315150217905550611c1861147e565b73ffffffffffffffffffffffffffffffffffffffff168173ffffffffffffffffffffffffffffffffffffffff16837ff6391f5c32d9c69d2a47ea670b442974b53935d1edc7fd64eb21e047a839171b60405160405180910390a45b5050565b6000611c8282610af1565b9050611c928160008460016123f3565b611c9b82610af1565b90506004600083815260200190815260200160002060006101000a81549073ffffffffffffffffffffffffffffffffffffffff02191690556001600360008373ffffffffffffffffffffffffffffffffffffffff1673ffffffffffffffffffffffffffffffffffffffff168152602001908152602001600020600082825403925050819055506002600083815260200190815260200160002060006101000a81549073ffffffffffffffffffffffffffffffffffffffff021916905581600073ffffffffffffffffffffffffffffffffffffffff168273ffffffffffffffffffffffffffffffffffffffff167fddf252ad1be2c89b69c2b068fc378daa952ba7f163c4a11628f55a4df523b3ef60405160405180910390a4611dc18160008460016123f9565b5050565b60006002600083815260200190815260200160002060009054906101000a900473ffffffffffffffffffffffffffffffffffffffff169050919050565b7f9f2df0fed2c77648de5860a4cc508cd0818c85b8b8a1ab4ceeef8d981c8956a6611e2c8161153f565b611e4e33600d60006008600401548152602001908152602001600020546123ff565b50565b611e7333600d60006008600401548152602001908152602001600020546123ff565b565b8173ffffffffffffffffffffffffffffffffffffffff168373ffffffffffffffffffffffffffffffffffffffff1603611ee3576040517f08c379a0000000000000000000000000000000000000000000000000000000008152600401611eda90613da1565b60405180910390fd5b80600560008573ffffffffffffffffffffffffffffffffffffffff1673ffffffffffffffffffffffffffffffffffffffff16815260200190815260200160002060008473ffffffffffffffffffffffffffffffffffffffff1673ffffffffffffffffffffffffffffffffffffffff16815260200190815260200160002060006101000a81548160ff0219169083151502179055508173ffffffffffffffffffffffffffffffffffffffff168373ffffffffffffffffffffffffffffffffffffffff167f17307eab39ab6107e8899845ad3d59bd9653f200f220920489ca2b5937696c3183604051611fd49190612ab0565b60405180910390a3505050565b611fec8484846117bb565b611ff88484848461241d565b612037576040517f08c379a000000000000000000000000000000000000000000000000000000000815260040161202e90613e33565b60405180910390fd5b50505050565b60606040518060800160405280604481526020016141d360449139905090565b60606000600161206c846125a4565b01905060008167ffffffffffffffff81111561208b5761208a612f70565b5b6040519080825280601f01601f1916602001820160405280156120bd5781602001600182028036833780820191505090505b509050600082602001820190505b600115612120578080600190039150507f3031323334353637383961626364656600000000000000000000000000000000600a86061a8153600a858161211457612113613e53565b5b049450600085036120cb575b819350505050919050565b60007f80ac58cd000000000000000000000000000000000000000000000000000000007bffffffffffffffffffffffffffffffffffffffffffffffffffffffff1916827bffffffffffffffffffffffffffffffffffffffffffffffffffffffff191614806121f657507f5b5e139f000000000000000000000000000000000000000000000000000000007bffffffffffffffffffffffffffffffffffffffffffffffffffffffff1916827bffffffffffffffffffffffffffffffffffffffffffffffffffffffff1916145b806122065750612205826126f7565b5b9050919050565b60008073ffffffffffffffffffffffffffffffffffffffff1661222f83611dc5565b73ffffffffffffffffffffffffffffffffffffffff1614159050919050565b6122588282610daf565b6122cf5761226581611150565b6122738360001c602061117d565b604051602001612284929190613f1a565b6040516020818303038152906040526040517f08c379a00000000000000000000000000000000000000000000000000000000081526004016122c69190612b5b565b60405180910390fd5b5050565b6000801b6122e08161153f565b60005b6007548110156123185780600d60008381526020019081526020016000208190555080806123109061370c565b9150506122e3565b506000600754905060005b818110156123ee57600081836123399190613f54565b42448460405160200161234e93929190613fa9565b6040516020818303038152906040528051906020012060001c6123719190613fe6565b8261237c9190613888565b90506000600d6000838152602001908152602001600020549050600d600084815260200190815260200160002054600d60008481526020019081526020016000208190555080600d600085815260200190815260200160002081905550505080806123e69061370c565b915050612323565b505050565b50505050565b50505050565b612419828260405180602001604052806000815250612761565b5050565b600061243e8473ffffffffffffffffffffffffffffffffffffffff166127bc565b15612597578373ffffffffffffffffffffffffffffffffffffffff1663150b7a0261246761147e565b8786866040518563ffffffff1660e01b8152600401612489949392919061406c565b6020604051808303816000875af19250505080156124c557506040513d601f19601f820116820180604052508101906124c291906140cd565b60015b612547573d80600081146124f5576040519150601f19603f3d011682016040523d82523d6000602084013e6124fa565b606091505b50600081510361253f576040517f08c379a000000000000000000000000000000000000000000000000000000000815260040161253690613e33565b60405180910390fd5b805181602001fd5b63150b7a0260e01b7bffffffffffffffffffffffffffffffffffffffffffffffffffffffff1916817bffffffffffffffffffffffffffffffffffffffffffffffffffffffff19161491505061259c565b600190505b949350505050565b600080600090507a184f03e93ff9f4daa797ed6e38ed64bf6a1f0100000000000000008310612602577a184f03e93ff9f4daa797ed6e38ed64bf6a1f01000000000000000083816125f8576125f7613e53565b5b0492506040810190505b6d04ee2d6d415b85acef8100000000831061263f576d04ee2d6d415b85acef8100000000838161263557612634613e53565b5b0492506020810190505b662386f26fc10000831061266e57662386f26fc10000838161266457612663613e53565b5b0492506010810190505b6305f5e1008310612697576305f5e100838161268d5761268c613e53565b5b0492506008810190505b61271083106126bc5761271083816126b2576126b1613e53565b5b0492506004810190505b606483106126df57606483816126d5576126d4613e53565b5b0492506002810190505b600a83106126ee576001810190505b80915050919050565b60007f01ffc9a7000000000000000000000000000000000000000000000000000000007bffffffffffffffffffffffffffffffffffffffffffffffffffffffff1916827bffffffffffffffffffffffffffffffffffffffffffffffffffffffff1916149050919050565b61276b83836127df565b612778600084848461241d565b6127b7576040517f08c379a00000000000000000000000000000000000000000000000000000000081526004016127ae90613e33565b60405180910390fd5b505050565b6000808273ffffffffffffffffffffffffffffffffffffffff163b119050919050565b600073ffffffffffffffffffffffffffffffffffffffff168273ffffffffffffffffffffffffffffffffffffffff160361284e576040517f08c379a000000000000000000000000000000000000000000000000000000000815260040161284590614146565b60405180910390fd5b6128578161220d565b15612897576040517f08c379a000000000000000000000000000000000000000000000000000000000815260040161288e906141b2565b60405180910390fd5b6128a56000838360016123f3565b6128ae8161220d565b156128ee576040517f08c379a00000000000000000000000000000000000000000000000000000000081526004016128e5906141b2565b60405180910390fd5b6001600360008473ffffffffffffffffffffffffffffffffffffffff1673ffffffffffffffffffffffffffffffffffffffff16815260200190815260200160002060008282540192505081905550816002600083815260200190815260200160002060006101000a81548173ffffffffffffffffffffffffffffffffffffffff021916908373ffffffffffffffffffffffffffffffffffffffff160217905550808273ffffffffffffffffffffffffffffffffffffffff16600073ffffffffffffffffffffffffffffffffffffffff167fddf252ad1be2c89b69c2b068fc378daa952ba7f163c4a11628f55a4df523b3ef60405160405180910390a46129f86000838360016123f9565b5050565b6000604051905090565b600080fd5b600080fd5b60007fffffffff0000000000000000000000000000000000000000000000000000000082169050919050565b612a4581612a10565b8114612a5057600080fd5b50565b600081359050612a6281612a3c565b92915050565b600060208284031215612a7e57612a7d612a06565b5b6000612a8c84828501612a53565b91505092915050565b60008115159050919050565b612aaa81612a95565b82525050565b6000602082019050612ac56000830184612aa1565b92915050565b600081519050919050565b600082825260208201905092915050565b60005b83811015612b05578082015181840152602081019050612aea565b60008484015250505050565b6000601f19601f8301169050919050565b6000612b2d82612acb565b612b378185612ad6565b9350612b47818560208601612ae7565b612b5081612b11565b840191505092915050565b60006020820190508181036000830152612b758184612b22565b905092915050565b6000819050919050565b612b9081612b7d565b8114612b9b57600080fd5b50565b600081359050612bad81612b87565b92915050565b600060208284031215612bc957612bc8612a06565b5b6000612bd784828501612b9e565b91505092915050565b600073ffffffffffffffffffffffffffffffffffffffff82169050919050565b6000612c0b82612be0565b9050919050565b612c1b81612c00565b82525050565b6000602082019050612c366000830184612c12565b92915050565b612c4581612c00565b8114612c5057600080fd5b50565b600081359050612c6281612c3c565b92915050565b60008060408385031215612c7f57612c7e612a06565b5b6000612c8d85828601612c53565b9250506020612c9e85828601612b9e565b9150509250929050565b600080600060608486031215612cc157612cc0612a06565b5b6000612ccf86828701612b9e565b9350506020612ce086828701612b9e565b9250506040612cf186828701612b9e565b9150509250925092565b612d0481612b7d565b82525050565b612d1381612b7d565b82525050565b606082016000820151612d2f6000850182612d0a565b506020820151612d426020850182612d0a565b506040820151612d556040850182612d0a565b50505050565b600060a082019050612d706000830186612cfb565b612d7d6020830185612d19565b612d8a6080830184612cfb565b949350505050565b6000602082019050612da76000830184612cfb565b92915050565b600080600060608486031215612dc657612dc5612a06565b5b6000612dd486828701612c53565b9350506020612de586828701612c53565b9250506040612df686828701612b9e565b9150509250925092565b6000819050919050565b612e1381612e00565b8114612e1e57600080fd5b50565b600081359050612e3081612e0a565b92915050565b600060208284031215612e4c57612e4b612a06565b5b6000612e5a84828501612e21565b91505092915050565b612e6c81612e00565b82525050565b6000602082019050612e876000830184612e63565b92915050565b60008060408385031215612ea457612ea3612a06565b5b6000612eb285828601612e21565b9250506020612ec385828601612c53565b9150509250929050565b600060208284031215612ee357612ee2612a06565b5b6000612ef184828501612c53565b91505092915050565b612f0381612a95565b8114612f0e57600080fd5b50565b600081359050612f2081612efa565b92915050565b60008060408385031215612f3d57612f3c612a06565b5b6000612f4b85828601612c53565b9250506020612f5c85828601612f11565b9150509250929050565b600080fd5b600080fd5b7f4e487b7100000000000000000000000000000000000000000000000000000000600052604160045260246000fd5b612fa882612b11565b810181811067ffffffffffffffff82111715612fc757612fc6612f70565b5b80604052505050565b6000612fda6129fc565b9050612fe68282612f9f565b919050565b600067ffffffffffffffff82111561300657613005612f70565b5b61300f82612b11565b9050602081019050919050565b82818337600083830152505050565b600061303e61303984612feb565b612fd0565b90508281526020810184848401111561305a57613059612f6b565b5b61306584828561301c565b509392505050565b600082601f83011261308257613081612f66565b5b813561309284826020860161302b565b91505092915050565b600080600080608085870312156130b5576130b4612a06565b5b60006130c387828801612c53565b94505060206130d487828801612c53565b93505060406130e587828801612b9e565b925050606085013567ffffffffffffffff81111561310657613105612a0b565b5b6131128782880161306d565b91505092959194509250565b6000806040838503121561313557613134612a06565b5b600061314385828601612c53565b925050602061315485828601612c53565b9150509250929050565b7f4e487b7100000000000000000000000000000000000000000000000000000000600052602260045260246000fd5b600060028204905060018216806131a557607f821691505b6020821081036131b8576131b761315e565b5b50919050565b7f4552433732313a20617070726f76616c20746f2063757272656e74206f776e6560008201527f7200000000000000000000000000000000000000000000000000000000000000602082015250565b600061321a602183612ad6565b9150613225826131be565b604082019050919050565b600060208201905081810360008301526132498161320d565b9050919050565b7f4552433732313a20617070726f76652063616c6c6572206973206e6f7420746f60008201527f6b656e206f776e6572206f7220617070726f76656420666f7220616c6c000000602082015250565b60006132ac603d83612ad6565b91506132b782613250565b604082019050919050565b600060208201905081810360008301526132db8161329f565b9050919050565b7f4552433732313a2063616c6c6572206973206e6f7420746f6b656e206f776e6560008201527f72206f7220617070726f76656400000000000000000000000000000000000000602082015250565b600061333e602d83612ad6565b9150613349826132e2565b604082019050919050565b6000602082019050818103600083015261336d81613331565b9050919050565b7f416363657373436f6e74726f6c3a2063616e206f6e6c792072656e6f756e636560008201527f20726f6c657320666f722073656c660000000000000000000000000000000000602082015250565b60006133d0602f83612ad6565b91506133db82613374565b604082019050919050565b600060208201905081810360008301526133ff816133c3565b9050919050565b7f4e6f20746f6b656e20746f206275726e00000000000000000000000000000000600082015250565b600061343c601083612ad6565b915061344782613406565b602082019050919050565b6000602082019050818103600083015261346b8161342f565b9050919050565b7f4e487b7100000000000000000000000000000000000000000000000000000000600052601160045260246000fd5b60006134ac82612b7d565b9150600082036134bf576134be613472565b5b600182039050919050565b7f4552433732313a20696e76616c696420746f6b656e2049440000000000000000600082015250565b6000613500601883612ad6565b915061350b826134ca565b602082019050919050565b6000602082019050818103600083015261352f816134f3565b9050919050565b7f4d696e74206861732065697468657220656e646564206f72206e6f742073746160008201527f7274656400000000000000000000000000000000000000000000000000000000602082015250565b6000613592602483612ad6565b915061359d82613536565b604082019050919050565b600060208201905081810360008301526135c181613585565b9050919050565b7f596f75277665206d696e74656421000000000000000000000000000000000000600082015250565b60006135fe600e83612ad6565b9150613609826135c8565b602082019050919050565b6000602082019050818103600083015261362d816135f1565b9050919050565b7f416c6c20746f6b656e2068617665206265656e206d696e746564000000000000600082015250565b600061366a601a83612ad6565b915061367582613634565b602082019050919050565b600060208201905081810360008301526136998161365d565b9050919050565b7f496e76616c696420616d6f756e74000000000000000000000000000000000000600082015250565b60006136d6600e83612ad6565b91506136e1826136a0565b602082019050919050565b60006020820190508181036000830152613705816136c9565b9050919050565b600061371782612b7d565b91507fffffffffffffffffffffffffffffffffffffffffffffffffffffffffffffffff820361374957613748613472565b5b600182019050919050565b7f4552433732313a2061646472657373207a65726f206973206e6f74206120766160008201527f6c6964206f776e65720000000000000000000000000000000000000000000000602082015250565b60006137b0602983612ad6565b91506137bb82613754565b604082019050919050565b600060208201905081810360008301526137df816137a3565b9050919050565b600081905092915050565b60006137fc82612acb565b61380681856137e6565b9350613816818560208601612ae7565b80840191505092915050565b600061382e82856137f1565b915061383a82846137f1565b91508190509392505050565b600061385182612b7d565b915061385c83612b7d565b925082820261386a81612b7d565b9150828204841483151761388157613880613472565b5b5092915050565b600061389382612b7d565b915061389e83612b7d565b92508282019050808211156138b6576138b5613472565b5b92915050565b7f4e487b7100000000000000000000000000000000000000000000000000000000600052603260045260246000fd5b7f537472696e67733a20686578206c656e67746820696e73756666696369656e74600082015250565b6000613921602083612ad6565b915061392c826138eb565b602082019050919050565b6000602082019050818103600083015261395081613914565b9050919050565b7f746f74616c20737570706c79206d75737420626520677265617465722074686160008201527f6e207a65726f7300000000000000000000000000000000000000000000000000602082015250565b60006139b3602783612ad6565b91506139be82613957565b604082019050919050565b600060208201905081810360008301526139e2816139a6565b9050919050565b7f6d696e74207072696365206d7573742062652067726561746572207468616e2060008201527f7a65726f00000000000000000000000000000000000000000000000000000000602082015250565b6000613a45602483612ad6565b9150613a50826139e9565b604082019050919050565b60006020820190508181036000830152613a7481613a38565b9050919050565b7f6d696e742073746172742074696d65206d75737420626520677265617465722060008201527f7468616e2063757272656e742074696d65000000000000000000000000000000602082015250565b6000613ad7603183612ad6565b9150613ae282613a7b565b604082019050919050565b60006020820190508181036000830152613b0681613aca565b9050919050565b7f70726573616c65206d7573742062652067726561746572207468616e207a657260008201527f6f00000000000000000000000000000000000000000000000000000000000000602082015250565b6000613b69602183612ad6565b9150613b7482613b0d565b604082019050919050565b60006020820190508181036000830152613b9881613b5c565b9050919050565b7f7075626c696373616c65206d7573742062652067726561746572207468616e2060008201527f7a65726f00000000000000000000000000000000000000000000000000000000602082015250565b6000613bfb602483612ad6565b9150613c0682613b9f565b604082019050919050565b60006020820190508181036000830152613c2a81613bee565b9050919050565b7f4552433732313a207472616e736665722066726f6d20696e636f72726563742060008201527f6f776e6572000000000000000000000000000000000000000000000000000000602082015250565b6000613c8d602583612ad6565b9150613c9882613c31565b604082019050919050565b60006020820190508181036000830152613cbc81613c80565b9050919050565b7f4552433732313a207472616e7366657220746f20746865207a65726f2061646460008201527f7265737300000000000000000000000000000000000000000000000000000000602082015250565b6000613d1f602483612ad6565b9150613d2a82613cc3565b604082019050919050565b60006020820190508181036000830152613d4e81613d12565b9050919050565b7f4552433732313a20617070726f766520746f2063616c6c657200000000000000600082015250565b6000613d8b601983612ad6565b9150613d9682613d55565b602082019050919050565b60006020820190508181036000830152613dba81613d7e565b9050919050565b7f4552433732313a207472616e7366657220746f206e6f6e20455243373231526560008201527f63656976657220696d706c656d656e7465720000000000000000000000000000602082015250565b6000613e1d603283612ad6565b9150613e2882613dc1565b604082019050919050565b60006020820190508181036000830152613e4c81613e10565b9050919050565b7f4e487b7100000000000000000000000000000000000000000000000000000000600052601260045260246000fd5b7f416363657373436f6e74726f6c3a206163636f756e7420000000000000000000600082015250565b6000613eb86017836137e6565b9150613ec382613e82565b601782019050919050565b7f206973206d697373696e6720726f6c6520000000000000000000000000000000600082015250565b6000613f046011836137e6565b9150613f0f82613ece565b601182019050919050565b6000613f2582613eab565b9150613f3182856137f1565b9150613f3c82613ef7565b9150613f4882846137f1565b91508190509392505050565b6000613f5f82612b7d565b9150613f6a83612b7d565b9250828203905081811115613f8257613f81613472565b5b92915050565b6000819050919050565b613fa3613f9e82612b7d565b613f88565b82525050565b6000613fb58286613f92565b602082019150613fc58285613f92565b602082019150613fd58284613f92565b602082019150819050949350505050565b6000613ff182612b7d565b9150613ffc83612b7d565b92508261400c5761400b613e53565b5b828206905092915050565b600081519050919050565b600082825260208201905092915050565b600061403e82614017565b6140488185614022565b9350614058818560208601612ae7565b61406181612b11565b840191505092915050565b60006080820190506140816000830187612c12565b61408e6020830186612c12565b61409b6040830185612cfb565b81810360608301526140ad8184614033565b905095945050505050565b6000815190506140c781612a3c565b92915050565b6000602082840312156140e3576140e2612a06565b5b60006140f1848285016140b8565b91505092915050565b7f4552433732313a206d696e7420746f20746865207a65726f2061646472657373600082015250565b6000614130602083612ad6565b915061413b826140fa565b602082019050919050565b6000602082019050818103600083015261415f81614123565b9050919050565b7f4552433732313a20746f6b656e20616c7265616479206d696e74656400000000600082015250565b600061419c601c83612ad6565b91506141a782614166565b602082019050919050565b600060208201905081810360008301526141cb8161418f565b905091905056fe68747470733a2f2f697066732e696f2f697066732f516d5a6348345976425656524a74646e3452646261716773704655386748365039766f6d4470425670414c3375342fa26469706673582212206ee200eae29392389533685873ce7f9cf8daeef28a32933a07fa993abc68e36964736f6c63430008120033",
  "linkReferences": {},
  "deployedLinkReferences": {}
}